:020000041000EA
:10100000480500201910001000000000A310001077
:1010100000040100000100001249134A134B00F0C4
:101020001AF8134880471349134A144B00F013F879
:101030001349144A144B00F00EF81449144A0020C6
:10104000521A02DD043A8850FCDC124880471248EC
:101050008047124880479B1A03DD043BC858D05094
:10106000FBDC7047805D00100C0000204401002074
:10107000693F0010B85E001048050020640600209B
:10108000D45F001068060020600F0020600F002071
:1010900018130020A1100010B9580010B53C001022
:1010A0007047FEE710B582B06B46354ADA80354BA3
:1010B000354A1A60354B0121C022520099508020D8
:1010C0001A58334C22401A508022120231480260D2
:1010D00031480260812292009950304A8423802155
:1010E000C904D1501DE029498122920088588023EB
:1010F0009B0003438B50294AFC235B00D358002BF1
:10110000F9D0C0239B00D358009380231B02214AAF
:101110001360214A13606B469A1DDB88013B9BB22A
:1011200013806B4606331B889BB2002BDBD1009BE0
:101130000023009305E080231B02164A1360164A21
:101140001360174B1B6C1B0FF5D1104B80215858A7
:10115000C022920202435A5000228531FF315A5078
:1011600084395A500D4B9532FF328039FF399950EE
:1011700083315A580B4802405A5002B010BDC04645
:1011800050460000BC4003480004103F00000348E4
:10119000FFFFFC7FE0400348E440034800040348AD
:1011A00000400348FFFFFFFB00B583B00023124A55
:1011B0001360124A13600321114803F0BFFB114969
:1011C00080228858104B03438B501423019308E06E
:1011D000019B013B019380231B02074A1360074ACE
:1011E0001360019B002BF3D1FFF75CFF0021044843
:1011F00003F0A4FB03B000BDE0400348E440034813
:10120000000403480000034800000180F8B552497B
:10121000524D280003F00AFB5149524E300003F0B2
:101220004DFB5149514C200003F048FB0321300095
:1012300003F084FB0321200003F080FBFFF7B4FFE1
:101240004B49280003F0B0FB4A49200003F008FC9A
:1012500082225200A1588023DB000B43A350434A53
:1012600084235B00D3589B06F9D5140082235B00CE
:10127000D25803208243E250E25801210A43E2504F
:10128000384DEA588243EA50EA580A43EA503A4B4A
:101290001A6888235B00E250384A1268E250384AE4
:1012A0000021200003F014FC364A0121200003F045
:1012B0000FFC354A0021280003F00AFC334A0121C3
:1012C000280003F005FC0021280003F037FB002173
:1012D000200003F033FB00220121280003F036FB3D
:1012E0000021280003F044FB200003F03AFB032117
:1012F000200003F023FB0321280003F01FFBB02391
:10130000234AE2500422FF32EA50224A06212000FA
:1013100003F0DEFB114EC2277F00F3594022134336
:10132000F3511D4A0721200003F0D2FBF35980241A
:101330002343F351194A0721280003F0C9FBC022B7
:101340005200B3582343B3508432B15880239B00DA
:101350000B43B350F8BDC046780500200000034899
:10136000B005002000040348E405002000080348FD
:101370000C06002000060020F8050020FC050020D7
:10138000C4050020D405002090050020A005002001
:1013900003040000680500204805002058050020CF
:1013A00010B500F007F800F02BFA10BD10B5FFF7EC
:1013B000F7FF10BDF0B5DE4657464E464546E0B550
:1013C00085B0DE4E0021300002F0EEFE80235B008F
:1013D0009846F360DA49DB4F380002F0FFFE022343
:1013E0009A46FB6304247C638021C904300002F028
:1013F000EDFE07233361D44A0121380002F02FFFAC
:10140000D24A0221380002F02AFFD14A03213800D3
:1014100002F025FF01220121380002F005FF012220
:101420000221380002F054FFA4257B5923437B514D
:1014300001218B46F16000243C67F960C549C64F25
:10144000380002F0E2FEC54B7B63802109053000C5
:1014500002F0BCFE70213161C14A6F39380002F0E0
:10146000FEFEC04A0221380002F0F9FEBE4A032106
:10147000380002F0F4FE0121380002F0E9FE504687
:10148000F0603C675846F860B849B94F380002F040
:10149000A5FEA023FB63B74B7B6380218905300049
:1014A00002F094FEE020C0013061B34A012138000F
:1014B00002F0D5FEB14A0221380002F0D0FEB04A57
:1014C0000321380002F0CBFE0822F2603C675E4642
:1014D000FE60A026F6050021300002F025FF4746F9
:1014E000F760A849A84F380002F030FFD2239B00D4
:1014F0009846FB637C64D223DB00994619003800D0
:1015000002F08FFF8021C904300002F03AFF072368
:1015100033619E4A0121380002F050FF9C4A0221AB
:10152000380002F04BFF9B4A0321380002F046FFCF
:1015300001220121380002F02DFF9749380002F006
:1015400097FF3C679549964F380002F0FFFE4346EF
:10155000FB637C644946380002F063FF8021090583
:10156000300002F00EFF702131618E4A6F39380071
:1015700002F024FF8C4A0221380002F01FFF8B4A40
:101580000321380002F01AFF01220121380002F085
:1015900001FF8749380002F06BFF3C678549864FA1
:1015A000380002F0D3FE4146F9637C6449463800B6
:1015B00002F037FF80214905300002F0E2FEE0230F
:1015C000DB0033617D4A0121380002F0F7FE7C4ADE
:1015D0000221380002F0F2FE7A4A0321380002F0BC
:1015E000EDFE01220121380002F0D4FE76493800D8
:1015F00002F03EFF3C677549754F380002F0A6FEC9
:101600004146F96379644946380002F00AFF8021B7
:101610008905300002F0B5FEE020C00130616D4A5E
:101620000121380002F0CAFE6B4A0221380002F0A4
:10163000C5FE6A4A0321380002F0C0FE01220121E2
:10164000380002F0A7FE03220021380002F0ECFE71
:1016500002220121380002F0E7FE002204213800B6
:1016600002F0E2FE01220321380002F0DDFE7B5988
:10167000584603437B517B59504603437B517B596A
:10168000102213437B517B5908210B437B513C674C
:10169000534D280002F020FF2B680326B3432B6034
:1016A0005049280002F024FF4F49280002F02AFF89
:1016B00000220221280002F030FF6B6F0422134346
:1016C0006B674A494A4D0022280002F031FFEB695E
:1016D00050229343EB61EB69493A93433343EB6107
:1016E000EA6B444B1A4080231B011343EB63424BCC
:1016F0002B610C360296019400943A2300220021BB
:10170000280003F015F81F2305220021280003F00C
:101710003FF81F2305222021280003F023F82B6C1B
:10172000B343524613432B64344803F011FA05B017
:10173000F0BCBB46B246A946A046F0BD0000044836
:101740000C590010000104481459001018590010D9
:101750001C5900102859001000020448FFFF000027
:10176000305900103459001038590010D059001069
:1017700000040448FF040000D8590010DC59001090
:10178000E05900103C590010000100505859001059
:101790005C590010605900104C5900106459001039
:1017A0000002005080590010845900108859001020
:1017B000745900108C59001000030050A8590010F3
:1017C000AC590010B05900109C590010B4590010C9
:1017D00000040050C4590010C8590010CC59001022
:1017E0000000015024590010205900100059001029
:1017F00000020048FFE0FFFF43820000E4590010B0
:1018000010B57F4A7F4C0021200002F0B5FB00227A
:101810000021200002F033FE7B4A0A21200002F062
:10182000ABFB00220A21200002F029FE774A0D219D
:10183000200002F0A1FB00220D21200002F01FFE7B
:10184000734A0121200002F097FB002201212000B1
:1018500002F015FE6F4A0221200002F08DFB0022EB
:101860000221200002F00BFE6B4A0321200002F04F
:1018700083FB00220321200002F001FE674A0421BD
:10188000200002F079FB00220421200002F0F7FD85
:10189000634A0521200002F06FFB00220521200091
:1018A00002F0EDFD5F4A0621200002F065FB0022F8
:1018B0000621200002F0E3FD5B4A0721200002F030
:1018C0005BFB00220721200002F0D9FD574A0821C6
:1018D000200002F051FB00220821200002F0CFFD81
:1018E000534A0921200002F047FB00220921200071
:1018F00002F0C5FD4F4A504C0021200002F03CFB95
:1019000000220021200002F0BAFD4C4A01212000F3
:1019100002F032FB00220121200002F0B0FD484A13
:101920000221200002F028FB00220221200002F008
:10193000A6FD444A0321200002F01EFB00220321E1
:10194000200002F09CFD404A0521200002F014FB1B
:1019500000220521200002F092FD3C4A3C4C0A2165
:10196000200002F009FB00220A21200002F087FD7E
:10197000384A0B21200002F0FFFA00220B21200040
:1019800002F07DFD344A0221200002F0F5FA002227
:101990000221200002F073FD304A0421200002F0F1
:1019A000EBFA00220421200002F069FD2C4A0521F7
:1019B000200002F0E1FA00220521200002F05FFD84
:1019C000284A0621200002F0D7FA00220621200032
:1019D00002F055FD244A0821200002F0CDFA002231
:1019E0000821200002F04BFD204A0921200002F0CE
:1019F000C3FA00220921200002F041FD10BDC046BB
:101A0000685A001000000440285A0010505A001074
:101A1000705A0010785A0010805A0010585A00105E
:101A2000485A0010205A0010185A0010885A001006
:101A3000905A0010405A001000010440385A00101B
:101A4000305A0010985A0010605A0010085A0010BE
:101A500000020440105A0010A85A0010F05900105B
:101A6000A05A0010B05A0010F8590010005A001087
:101A700030B585B001A8044B020032CB32C202F06F
:101A800069FB05B030BDC046B85A001010B5FFF76D
:101A90008DFC002010BD70B505000E001C0004ABCD
:101AA00018888D421FD395421ED2521A91B2A0427D
:101AB0000CD2AE1BB6B2201A80B270434B08C018CD
:101AC00002F0EAFC80B2201A80B20DE0AD1BADB28C
:101AD000001B80B268434B08C01802F0DDFC80B2E6
:101AE000001980B200E0200070BD70B51D0004AB8D
:101AF0001B7888421DD990421DD2AB420CD2441AA9
:101B0000E4B2E81AC0B26043511AC9B202F0D4FC80
:101B1000C0B2281AC0B20DE0441AE4B2581BC0B2D9
:101B20006043511AC9B202F0C7FCC0B24019C0B23A
:101B300000E0280070BD1800FCE7030008008B429D
:101B400000D21800704770B505000C000A2A15D89D
:101B50000A20801A68434A43801805300A2102F09F
:101B60009BFC80B284420AD1854202D9013080B206
:101B700005E0854203D2013880B200E0002070BD4C
:101B80000B8843400B80082202E05B080B80013A7F
:101B9000002A07D00B88D807F7D55B0802484340D6
:101BA0000B80F4E77047C04601A0FFFF002803D078
:101BB000044B20225A607047024B802292035A60E5
:101BC000F9E7C0460001044070B5164B1B78002BA6
:101BD00014D0012B16D0144B1B78002B0DD0134DB5
:101BE0002C88134B134A12785200D05A6043642158
:101BF00002F052FC80B224182C8070BD0A4B0122E6
:101C00001A70E8E70C4B1B88002B03D1064B01220E
:101C10001A70E0E7074B1B782D2BDCD9024B002212
:101C20001A70D8E76311002066110020AE0F002063
:101C3000CC0F0020FD100020C610002010B5194B5D
:101C40001B78002B0BD1184B1B88002B07D1174B8F
:101C500001221A70164B174A12781A701DE0134BA6
:101C60001B78002B19D0124B1B78002B16D0104A72
:101C7000013B13700E4B1B78642058430D4B1978B1
:101C800002F01AFC83B26420C01A80B20A4C238886
:101C90005843642102F010FC208010BD034B002249
:101CA0001A70E7E7FD100020C40F00205F1100202C
:101CB0005E1100203F060020AE0F0020084B1A786E
:101CC000FD2A00D9FD22074B18211970064B0F3948
:101CD0001970064B064909781970064B1A7070473F
:101CE000011100203806002036060020D410002004
:101CF00030060020EC10002010B50F4B1B889BB263
:101D0000002B15D00C4B198889B20C4B1B88AB20CB
:101D10008000584302F0C0FB094B1880094B1B7828
:101D2000002B04D0064A99005B185B00138010BD9D
:101D3000034B00221A80F1E7CE1200202806002073
:101D4000C61000209811002009490A889308D21A69
:101D500092B20A80074B1B889B189BB20B809B0892
:101D6000054A1380054A57214B4313807047C046EC
:101D7000A60F0020C0120020A80F0020BC0F0020DA
:101D800010B55B4B1A8892B25A4B1B889BB29A4291
:101D90003ED2594B01221A70584B1A78531EDBB2AF
:101DA000012B39D9052A37D0042A35D0544B0021CC
:101DB0001970534B1978002915D0524B1B880A3BD8
:101DC0009BB291204000834208D84F4B18884F4B5C
:101DD000984203D84E4B1B78002B04D04D48037813
:101DE0000224234303704C4B1B88642B1CD94B4BA0
:101DF0001B78002B18D1002916D0494B1B78013BCA
:101E0000DBB2812B10D947490B7801330B700EE000
:101E1000394B00221A70BFE7434B1B78002BC5D10A
:101E2000374B01211970C4E73E4B002119703D4B1F
:101E30001B78FA2B04D937490B78042003430B7025
:101E40003A4B1B78002B20D1394B1B885A2B08D9D1
:101E5000072A06D0062A04D0364A13880133138095
:101E600002E0344B00221A80334B1B88002B02D037
:101E7000304B00221A802F4B1B887D2B05D9254A19
:101E8000117880235B420B4313702C4B1B780F2B74
:101E900010D9274B1B88092B0CD8294A13780133FA
:101EA000DBB213700A2B08D91A4A137808210B43A6
:101EB000137002E0224B00221A70224B1B78002B79
:101EC00003D0214B1B78022B00D010BD1F4B1B7879
:101ED000132BFAD81D4A013313701D4B1B88D32BCB
:101EE000F3D90C4A137810210B431370EDE7C04669
:101EF000C01200204806002091110020001100208F
:101F0000021100201A060020AC0F00208A020000F7
:101F1000D81000203C060020B00F002062110020E5
:101F2000FD100020E4100020DA1000206A110020CB
:101F3000C40F0020BE0F0020C6100020E1100020BA
:101F4000F81000206D110020FC1000206C11002002
:101F5000B612002010B582B01B4B1C88A4B2C82258
:101F60001A4B18885623FF330093194B520028212F
:101F7000FFF791FD174B1880002C0BD0210016485D
:101F800002F08AFAC0B2154B1870782805D9782269
:101F90001A7002E0114B00221A70114B00221A80B5
:101FA0000E4B1C78002C0AD00E4B1878001B002812
:101FB00005DD0002210002F07FFA094B1880094B71
:101FC0001C7002B010BDC046C4120020C610002014
:101FD000AE1000002606002035DF0000FD100020B6
:101FE000740F0020FE10002030B583B0134B1B7817
:101FF000002B21D09A1ED2B2910051184900023311
:10200000DAB29300D21852000D4B002018700D4B1D
:102010001888904209D90C4B1B78002B02D0084B32
:1020200001241C70094B00241C70074C23780025E8
:102030000095FFF730FD207003B030BD440600204E
:1020400060110020C6100020D4100020EC100020E9
:1020500030B583B0144B188880B2144C2188082204
:10206000FFF771FD0300208011485843C00A80B279
:10207000104B1880104B1978104B1A78914204D3EA
:102080000F4B00221A7003B030BD0D4C2378950021
:10209000521952008D004919490000250095FFF79B
:1020A000FAFC2070EFE7C046B6120020AA0F00200D
:1020B00010270000C60F0020FB100020FA1000209F
:1020C000D410002010B56D4A13780133DBB21370C1
:1020D0006B490A780132D2B20A706A49097800293C
:1020E0001AD0032B18D9654B00211970654B197054
:1020F000654B1B78002B19D0012A17D9604B0022A1
:102100001A70614B1A70614B1A78082A00D9B0E036
:1021100093005F4AD3589F460029E9D1022BE7D9A3
:10212000564B1970574B01311970E1E7002BEAD17A
:10213000012AE8D9524B00221A70534B01321A700F
:10214000E1E7544B1878FFF731FD10BD514B18787B
:10215000002804D04B4B1878FFF728FDF5E7FFF770
:1021600025FDF2E74B4B1878002803D04A4B1B782B
:10217000002B02D1FFF71AFDE7E7434B1878FFF772
:1021800015FDE2E7434B1878002803D0424B1B783B
:10219000002B06D100280AD03A4B1878FFF706FD2D
:1021A000D3E73D4B1878C0B2FFF700FDCDE7FFF74E
:1021B000FDFCCAE7374B1878002803D0364B1B7854
:1021C000002B06D1002809D02E4B1878FFF7EEFC23
:1021D000BBE72D4B1878FFF7E9FCB6E7FFF7E6FC05
:1021E000B3E72D4B1B78002B05D02B4B1878C0B2D2
:1021F000FFF7DCFCA9E7274B1878FFF7D7FCA4E72B
:10220000254B1B78002B04D01F4B1878FFF7CEFC12
:102210009BE7204B1878FFF7C9FC96E71E4B1B780D
:10222000002B08D11B4B187800280AD0154B1878C2
:10223000FFF7BCFC89E7184B1878C0B2FFF7B6FC73
:1022400083E7FFF7B3FC80E7134B1B78002B08D123
:10225000104B1878002809D00A4B1878FFF7A6FC15
:1022600073E7094B1878FFF7A1FC6EE7FFF79EFCB8
:102270006BE7084B1878FFF799FC66E7EB10002036
:10228000E3100020EA100020E2100020F3100020EC
:10229000C45A0010F4100020FC12002010B5754B39
:1022A0001B78002B1DD0744B1B781433734A1370AA
:1022B000724B1B78822B02D9704B82221A70704BA2
:1022C000F4221A706F4BAB3A1A706F4B19782820B2
:1022D000FFF733FC6D4B18706D4B684A12781A701B
:1022E00010BD654B18786B4B18706B4B1B78002B2F
:1022F0000ED16A4A1288002A0AD1604B32321A7013
:10230000674B1A70674B00221A80674B1A80CFE721
:10231000002B6FD0614B1B88644A1288934219D2FC
:10232000634B04221A70634A1378591C1170042BF2
:10233000BED9524B1A785A4B1B789A4206D24F4B51
:1023400001321A705B4B00221A70B1E7544A013314
:102350001370F7E7544909888B4217D29B1A9B00E8
:10236000DBB2534A137053490A78501C08709342E9
:102370009ED2424B1B784A4A1278934202D23F4A7D
:10238000013313704B4B00221A7091E74A4A1288AE
:10239000934216D2D31A9B00DBB2454A13704549CB
:1023A0000A78501C0870934200D381E7334B1B78A6
:1023B000282B02D9314A013B13703E4B00221A7080
:1023C00076E73B4B04221A703A4A1378591C117075
:1023D000042B00D86CE7294B1B78282B06D9274AF9
:1023E000013B13702E4A1378013B1370314B0022CE
:1023F0001A705DE72E4B0A221A702E4A1378591C68
:1024000011700A2B00D853E72C4B1988002925D0CE
:102410002A2903D9194A1378013B1370214A1388DA
:102420005C1C1480092B15D91D4A13780A331370CC
:102430001A4B1B88584302F03FF880B21A4B1880A1
:102440000200143A194B1A8014301B4B1880124B9F
:1024500001221A70174B00221A7029E7104B1B78C3
:10246000772BF7D805490A7801320A700C4A0133F4
:102470001370EFE7DE1000209511002043060020C6
:10248000380600203606002030060020D410002038
:10249000EC1000209711002096110020C40F00209E
:1024A00042060020C2100020C0100020BE100020F4
:1024B0009311002094110020BC100020C6100020B1
:1024C00070B582B00500D74B43221A70987003286C
:1024D00000D144E143D8012800D1EFE202283CD1E9
:1024E000D14B00221A70D148C278D14B1A700279B0
:1024F000D04B1A70437901221C001440CE490C7055
:102500005C08144099081140CC4D2970DD08154035
:1025100019091140CA4E317059091140C94E317024
:1025200099090A40C8490A70DB09C84A13708379BF
:10253000DBB2C74A1370C74A1278934228D1BB4B0B
:10254000DA79C54B1A70002C4ED0C44B1B88452B32
:102550004AD8C34B07221A705EE003250EE0042818
:102560000BD1C04B1A78AF4BDA7000221A711532BA
:102570005A711E329A71072500E00325A94B5D7040
:10258000B94B012252421A80B84B00221A70A8E2BD
:10259000B04A1370B64A10786422504380B20009E2
:1025A000C6B2B4485843B44B198801F075FF01090D
:1025B000C9B23000FFF7C1FA0600B04B1870BB205B
:1025C000704380B28F2101F067FFFF231840AC4BAE
:1025D00018801B889BB2BB2B02D9A94BBB221A8047
:1025E0003236A84B1E70AAE7002D11D09B4B1B88DA
:1025F0005A2B0DD9954B1B78002B03D0A24A127889
:10260000002A01D1002B07D1954B06221A7003E056
:10261000864B1A7A924B1A70002C02D19B4B0022E7
:102620001A70824B597A9A4A1170997AC9B2994AAA
:102630001170DA7A984B1A70984B18881A78794B7F
:10264000DA700009302202401A71954A12785A71E4
:10265000824A108812789A71000A07220240DA71C1
:10266000904A1278012002401A728F4A1078400076
:102670001A7A0243D2B21A721A7A8C480478240168
:102680001020204002431A721A7A894804786401A3
:102690002020204002431A721A7A86480478A40146
:1026A0004020204002431A72834A12889208D2B214
:1026B0005A7201294AD0814B1A785A4B9A72804A31
:1026C0001388DBB2574CE37213889B083F22934375
:1026D000DBB2E2791343E3717A4A138812782273EA
:1026E0001B0A6373684B1B78A373774B18786423BA
:1026F0005843FE2101F0E0FEC0B2E073734A138834
:10270000127822741B0A6374714B1B78DBB2A374BA
:10271000544B1B78E3746F4B1B7823756E4A136818
:10272000DBB2637513681B0ADBB2A37513681B0C5D
:10273000DBB2E375694A1388127822761B0A637646
:10274000674B1B78DBB2A3761B2517E7654B188810
:10275000093101F0A1FEC0B2324B9872AFE701F02F
:102760005DFB614B00261E703E4A137801210B432E
:1027700013705E4B02221A702B4B013A1A702B4CCD
:1027800023791B02E2789B189BB2594A138064207C
:102790005843572101F080FE80B2564B18801B88A9
:1027A000643B554A1380A3791B0262799B18534AF4
:1027B0001380E2792E4B1A70264B1E70237A012269
:1027C000180010404E490870590811404D480170DA
:1027D000990811404C480170D90811404B480170CC
:1027E000190911404A4801705909114049480170BE
:1027F0009909DB09484803700A420FD1474B193247
:102800001A700A4A937A5B0045490B80D47AE4B285
:10281000444B1C70154B01221A709AE03F4B1A2250
:102820001A70EEE774110020F61000200411002049
:1028300001110020F1100020F4100020DD10002014
:10284000621100206D1100206E110020E91000209F
:10285000681100206911002095110020C610002089
:10286000001100203C060020C20F0020F2100020C2
:1028700032060020A0252600BC0F002030060020D4
:102880001806002031060020FD10002096110020BF
:1028900044060020FC1000206F110020A80F00202B
:1028A000E1100020FC12002009130020601100201C
:1028B0009111002092110020B61200206B1100200F
:1028C000B8120020B00F002006130020C40F002013
:1028D00007130020F9100020EC120020AE0F00209A
:1028E000F0120020C60F00203D060020F510002049
:1028F000BA0F002048060020B80F0020280600204C
:102900006511002063110020410600207011002095
:10291000DE100020DF1000203B0600200213002004
:10292000CC0F002064110020854A1378013B8549B3
:102930005B005B5A1B02107801384000405A60432C
:102940001B1A1B0A10784000435213780133DBB284
:1029500013707B4B1B78DBB2772BE5D97A4C227B4B
:102960007A4B1A70627B7A4B1A70A07BC0B2182324
:102970000093AA3364220021FFF7B7F8754B187053
:10298000E07BC0B209230093403364220021FFF7AB
:10299000ACF8714B18703223E25CD2B26F4B1A70F4
:1029A0003323E15C6E4B19703423E15C6D4B19707D
:1029B0003523E15CC9B26C4B19703623E35CDBB2A2
:1029C0006A4803705B005B1ADBB29B1A684A13709B
:1029D0003723E05CC0B2193B0093E133642200214D
:1029E000FFF783F8634B18703923E25C624B1A706F
:1029F0003823E35CDBB24F2B05D85E4BA5221A705F
:102A00005D4BA33A1A70504C4D23E35C1B024C22E1
:102A1000A25C9B189BB2594A138019003C39584A52
:102A20001180584A13804F23E15C0902013BE35CAB
:102A3000C91889B2544B1980FA20400101F03CFDBD
:102A4000524B18805023E25C51084F3B19405048CC
:102A50000170920813404F4A137006D0454B1B7803
:102A6000A42B02D8434BA5221A704B4B414A127833
:102A70001A70354B5122985C48490870995C484A55
:102A800011705222995C474A117053229A5C464B4E
:102A90001A70464B1B78002B0CD02B4B54229B5C9E
:102AA000DBB2434A1370642B00D867E5130064223D
:102AB0001A7063E53E4B00221A705FE53D4B1A78B1
:102AC0003D4BDA70042559E51D4C2378DBB23A4AB8
:102AD000D05CC0B23949FFF753F823780133DBB239
:102AE0002370174B1B78DBB2AB42EDD3334A13880C
:102AF0001178314A51556C1C1B0A1355304B00227A
:102B00001A70304A8A235B00D3581B0E7F221A406A
:102B10001E239B1A0235AB4204D22B4B00221A70A3
:102B200002B070BD00239C42F7DB234AD25CD2B2D4
:102B30002448C021490042500133DBB2F3E7C046CC
:102B4000F2100020CC0F002004110020FB10002008
:102B5000FA1000203906002037060020D710002088
:102B6000D9100020D5100020DB100020DC10002040
:102B7000D61000203F060020340600202206002048
:102B8000200600201E06002024060020B60F00208C
:102B9000F0100020E510002040060020E610002084
:102BA00002130020F31000203E060020DF1000205A
:102BB000E0100020F610002074110020C20F002049
:102BC000F710002000020048FF10002070B52F4BC6
:102BD0001B78002B3ED02E4B012252421A802D4BE7
:102BE0005D78EDB22C4B00221A700CE02A4C237851
:102BF000DBB2284AD05CC0B22549FEF7C1FF23787A
:102C00000133DBB22370244B1B78DBB2AB42EDD334
:102C10006A1C204B9A5C12025B5D9B181C4A12884E
:102C2000934207D0194B00221A701C4A13780133C3
:102C3000137013E0194B00221A70194B1B78002BEC
:102C400002D1174B01321A70124B9878C0B2FFF7BD
:102C500037FC03E0114A1378013313700F4B1B78D4
:102C6000142B04D80E4B1B78002B0BD070BD01F039
:102C7000D5F80C4B00221A700B4A137820210B4315
:102C80001370EFE70020FFF71BFCEFE7FF100020B9
:102C9000C00F002004110020F2100020E7100020D7
:102CA000F51000203D0600203C06002070B582B0E3
:102CB000204B1888C72807D91F4B18221A701F4BA2
:102CC0000F3A1A7002B070BD1D4E33788008C0B242
:102CD0001825009532220A21FEF707FF164C2070B6
:102CE0003378184A1078009546221421FEF7FDFE2D
:102CF0002378834201D9104B1870134E33780D4A54
:102D000010888008C0B20925009532220A21FEF7FA
:102D1000ECFE0A4C207033780A4A1078009546225F
:102D20001421FEF7E2FE23788342CBD9034B1870BF
:102D3000C8E7C046C610002038060020360600202E
:102D400039060020FD1000203706002010B5314B59
:102D50001C78314B1B78002B0ED0304B1B78002B8E
:102D60000AD12F4B1A882F4B197878235B1A9A4275
:102D700002DD2A4B01221A702B4B1B78002B3AD113
:102D8000264B1A78002A03D1284B1B78002B31D010
:102D9000234B1988264B1B784B43544363431B0A30
:102DA0005801C01A8000C018C000224B198801F0D9
:102DB00073FB84B22409FFF779FF1F4B1A78A242F4
:102DC0001CD21E4B1A701E4B1B78002B19D01B4BAC
:102DD0001B78164A1278934201D9144A1370174B84
:102DE000124A12781A70154B1B78002B0DD0154B18
:102DF000FE221A7010BDFEF7E7FEC1E70F4B1C70F4
:102E0000E1E70A4B00221A70EDE70E4B00221A7020
:102E1000F0E7C04601110020DF100020FD10002067
:102E2000AE0F0020E010002065110020611100208D
:102E30003E060020BC0F002030060020D4100020E9
:102E400062110020EC10002070B5304B1B78002B75
:102E50004DD12F4B1B78002B0ED02E4B1B78002B07
:102E60000AD12D4B1A882D4B197878235B1A9A4278
:102E700002DD284B01221A70294B1B78002B02D04F
:102E8000244B01221A70244B1888002803D0214BB0
:102E90001B78002B03D1234B1B78002B26D0224B11
:102EA0001B7858433C2101F007FB040085B2FFF773
:102EB000FDFE1E4B1A78AA421CD21D4B1A701D4BE8
:102EC0001B78002B19D01A4B1B78164A12789342A4
:102ED00001D9144A1370164B124A12781A70144B07
:102EE0001B78002B0DD0144BFE221A7070BDFEF71C
:102EF000A5FEAEE70E4B1C70E1E70A4B00221A70EC
:102F0000EDE70D4B00221A70F0E7C04641060020A5
:102F1000DF100020FD100020AE0F0020E010002088
:102F2000DE10002061110020011100203006002079
:102F3000D410002062110020EC10002010B5194BB5
:102F40001A78002A26D0184B1B789B189B10174A1A
:102F50001380174B1B78A42B02D8154BA5221A708F
:102F6000FEF76CFE124B134A12781A700F4B1C8836
:102F7000114A12881A80FFF799FE104B1A78A24264
:102F800009D20F4B1A700E4B1B78002B06D00D4B3D
:102F9000FE221A7010BD0A4B1C70F4E7094B002288
:102FA0001A70F7E7FD10002001110020AE0F00207D
:102FB0003F06002040060020B20F0020300600200F
:102FC000D4100020EC10002070B53C4B1B78002B77
:102FD0000ED03B4B1B78002B0AD13A4B1A883A4B48
:102FE000197878235B1A9A4202DD354B01221A7058
:102FF000364B1B78002B02D0314B01221A70314B1B
:103000001C88002C03D02E4B1B78002B03D1304B97
:103010001B78002B43D02F4B1B78142B07D8D801DB
:10302000C01A80B20A2101F037FA2A4B1870294BD6
:103030001B785B00FE214900C91A89B2264B1B7818
:10304000002B05D01E4B1B788B4229D8C91A89B298
:103050000A3189B26443081901F01EFA040085B2EE
:10306000FFF724FE1D4B1A78AA421BD21C4B1A7084
:103070001C4B1B78002B18D0194B1B78144A127864
:10308000934201D9124A1370154B114A12781A70E3
:10309000134B1B78002B0CD0134BFE221A7070BD03
:1030A0000021D5E70E4B1C70E2E7094B00221A7095
:1030B000EEE70D4B00221A70F1E7C046DF1000204A
:1030C000FD100020AE0F0020E0100020DE100020D8
:1030D00061110020011100203B0600203006002075
:1030E000D410002062110020EC10002070B53A4B83
:1030F0001B78002B61D1394B1B78002B0ED0384B3D
:103100001B78002B0AD1374B1A88374B1978782354
:103110005B1A9A4202DD324B01221A70334B1B7844
:10312000002B02D02E4B01221A702D4B1D78002D42
:1031300003D12F4B1B78002B3ED02A4B1C88002C30
:1031400006D02C4B187860433C2101F0B5F984B2CD
:10315000294B1B786B43294A128853431B0A580199
:10316000C01A8000C018C000254B198801F094F9DE
:1031700080B20009844200D20400FFF797FD214B82
:103180001A78A2421CD2204B1A70204B1B78002BBD
:1031900019D01D4B1B78164A1278934201D9144A54
:1031A0001370194B124A12781A70174B1B78002BA8
:1031B0000DD0174BFE221A7070BDFEF73FFD9AE747
:1031C000114B1C70E1E70A4B00221A70EDE7104B1F
:1031D00000221A70F0E7C04641060020DF100020F0
:1031E000FD100020AE0F0020E0100020DE100020B7
:1031F00061110020F110002001110020C80F0020F3
:10320000BC0F002030060020D410002062110020E6
:10321000EC100020F0B583B0454B1B885A2B05D825
:10322000462B79D9434A1278002A75D1414A12783F
:10323000002A10D03F4900220A703F490A803F49C6
:103240000A803F49FA20400008803E490A803E49F2
:103250000A803E4A13803D4A1088C01A82B200B2EA
:10326000354B188036490B88D3181BB20B80FA21D6
:1032700089008B4252DD324B1980304B1988521A2B
:1032800015B2304A1580188084002D4B0020185E3E
:1032900002F0C4FA2E4A2F4B01F0C8FF06000F00BF
:1032A000200002F0BBFA32003B0001F05FFC060098
:1032B0000F0068004019400002F0B0FA32003B00F5
:1032C00001F054FC02F074FA00B21F4B1880002881
:1032D0002ADB1D4B00229A5EFA239B009A4203DDF3
:1032E000194BFA2292001A801B4BF4221A701B4BC6
:1032F000AB3A1A701A4B1B4A12781A70124B002004
:10330000185E8010C0B2FE2300930023FA22002131
:10331000FEF7EBFB144B187003B0F0BD002BACDADA
:10332000074B00211980A8E700221A80D1E7C04688
:10333000C6100020350600206E0F0020720F0020FE
:10334000700F00206C0F00206A0F0020C4100020B6
:10335000333333333333E33F38060020360600205F
:10336000D410002030060020EC10002030B583B0CF
:103370003D4AC7239B00D3589B109B059B0D3B4A9E
:1033800013803B4B1B78002B01D103B030BD10885C
:103390008008C0B2FF2300930023B0222F21FEF744
:1033A000A4FB344B1870344B1B78002B14D0334AD9
:1033B0001370334B1B78002B06D0324B1B78002B3D
:1033C00002D12E4B00221A702C4B1878002810D1F5
:1033D0002A4B00221A70D8E72B4B1B78022B03D004
:1033E000264B00221A70E4E70028F9D0234B18700E
:1033F000DFE7264B1B7800930023FF220021FEF716
:1034000074FB04000500224B1B788342E0D2214B61
:103410001888FE280FD9204B30221A701F4B273AEC
:103420001A701A4B1B78AB421BD2194A13701C4BF3
:10343000FE221A70CCE7C0B230230093C433FF22BF
:103440002821FEF752FB144B1870124B18780923F1
:1034500000934033FF222821FEF747FB0F4B1870E3
:10346000DFE70B4B1C70E2E700080348B6120020B0
:103470006D1100206B1100206F110020DA10002068
:103480006E110020FD100020FC10002030060020EE
:10349000D4100020C6100020380600203606002078
:1034A000EC10002010B5C44BC2221A70C34B793AFD
:1034B0001A70C34B00221A70C24B1A70C24B1B7891
:1034C000002B21D0C14B1B88F52B1DD9C04A117888
:1034D000C9B2C04A1278D2B2914215D2BE4A12780D
:1034E000002A11D10B33DBB2BC4A13705B09BC4A12
:1034F00013701378DBB2052B02D9130005221A7062
:10350000B84B01221A7002E0B64B00221A70B64B7B
:103510001B78062B02D0B54A01211170B44A1278EB
:10352000002A1DD1082B3BD89B00B24AD3589F4696
:10353000FFF70CFC34E0FFF787FC31E0FFF7FEFCFF
:103540002EE0FFF741FD2BE0FFF7D0FD28E0FFF76D
:1035500061FE25E0FEF7A2FE22E0FEF7AFFB1FE0D2
:10356000A54B1A78642353431B11DBB2944A1370A2
:103570008F2B02D913008F221A70A04B1B78002BBF
:1035800002D08F4B00221A709D4B1B788D4A13700E
:10359000FD2B02D91300FE221A709A4B32221A70A8
:1035A000994B1B78012B00D197E0022B00D09EE0B5
:1035B000FFF7DCFEFEF718FD944B1B78022B00D1C1
:1035C0009DE0032B00D1A0E0914B1B889BB2914A58
:1035D0001288934204D28D4B1B78042B00D1A8E0B3
:1035E0008D4AC1239B00D3589BB29B08DBB28B4A08
:1035F00012789A4202D28A4B40221A70894B1B7869
:10360000002B10D0864A1278002A00D19AE0864812
:10361000017801310170844909788B4203D8774BD6
:1036200019780A431A706A4B1A789300D21853011A
:103630007E4A13607E4A11685B1813607D490A68F0
:10364000013A0A60002A07D19B097B4A1360402295
:103650000A60774B00221A60784B1B78002B12D13E
:10366000664B1B7878221A420DD1754A1278002ACF
:1036700009D0744A1278002A05D0002B66D0724B0C
:103680001B78002B62D1714BC2221A70704BB93A71
:103690001A70504B00221A706E4B1A70684B1B78D0
:1036A000002B00D1E4E0554A1278782111420ED166
:1036B000464A1288002A00D0DAE0414A1278002AED
:1036C00000D0D5E0644A1278002A00D0D0E05C4BEC
:1036D00000221A7000F0A2FB10BDFEF7B9FC5F4B90
:1036E0001B78002B00D165E7FFF740FE62E75B4BDC
:1036F0001B78002B00D15DE7FFF738FE5AE7584BE7
:1037000028221A70414B253A1A70554B1B78002B12
:1037100003D0534A013B137056E73C4B04221A7006
:10372000504B023A1A70354A137801218B431370BB
:103730004AE7324A137820210B4313704A4B012287
:103740001A704DE738490020087064E7474B1B7832
:103750008F2B02D9454B8F221A70194B1A78434B85
:103760001B789A4201D9164A1370164B1B78FF2B0F
:103770001ED0114B1B78172B02D80F4B18221A7032
:103780000E4B1B78082B02D80C4B09221A700A4BDF
:103790001A782E4B1A70094B1A782D4B1A70084B59
:1037A0001A780C4B1A70074B1A782A4B1A7075E767
:1037B000044BFE221A70DCE7380600203606002093
:1037C000D4100020EC100020F0100020C40F0020C6
:1037D000F0120020FD120020DA100020EF1000206F
:1037E00005130020011300200011002035060020E1
:1037F0006A110020E85A0010330600203C06002021
:103800003A06002001110020FC100020F5100020D5
:10381000C0120020B80F0020000403483106002029
:10382000ED10002034060020EE100020D010002003
:10383000C81000202C060020CC100020FC12002014
:103840003D060020DD100020DE1000205406002080
:1038500053060020FE120020061300206F110020E6
:10386000A40F0020F6100020921100203006002046
:10387000002B00D030E70D4B1B889F2B00D92BE786
:103880000B4B1B78002B00D126E70A4B1B78002B33
:1038900000D021E7084B01221A70084B1D321A7024
:1038A000074B00221A7000F0F3FA15E7C40F00204E
:1038B000D4100020FC1200203D060020061300203A
:1038C00004130020030043434B4343431B0C80225B
:1038D0005200521A5043C0188030000A704770B529
:1038E000040000290CD000280BDB80235B009842E9
:1038F00000DD1800002906DBFFF7E4FF002C0ADBDF
:1039000070BD4042F1E7494280256D00281AFFF75B
:10391000D9FF281AF2E74042F2E7000010B5604BE9
:103920001B78772B27D95F4B5F4A12881A805F4B31
:1039300000229B5E192B07DD5D4B00221A805D4B38
:103940001A805D4B01321A705C4B1A885C4B1A80EE
:103950005B4B1B88534A1288934237D99B1A9800B5
:10396000C0184001574B198800F0A6FD80B2A0286E
:103970002DD9A0202BE0514B188880B2524C2188C1
:103980000422FEF7E0F82080454A13780133DBB2C9
:103990001370782B06D04A4B1880424B424A12884B
:1039A0001A80D5E7494B1B78002BF4D0484B1B8875
:1039B000984207D9474B1B88984203D2464B0022B6
:1039C0001A70E8E7444B01221A70E4E70020434BE9
:1039D0001B78002B06D1424B00221A80414B1A70F3
:1039E000414B1A70414B1B8883420BD2C31A9BB2C6
:1039F0003B2B0AD94F2B0AD9632B0AD9812B0AD921
:103A0000102214E01B1A9BB2F2E701220FE00222FF
:103A10000DE004220BE0082209E03549324C2478FD
:103A20000C5D2F491B1B0B800FE0013AD2B2002A1C
:103A300018D02B490B88C3189BB20B8029490978F1
:103A40002729EAD8274B0131197027490B78284CD0
:103A5000E0540133DBB20B70272BE6D90B000021B9
:103A60001970E2E71E4B18881E4B197800F024FDF0
:103A700080B21E4B18801F4B1B78143B5900C9188D
:103A80008900FFF72CFF80B21B4B18801B4B18805E
:103A90001B4B18801B4B1B7843431B4A138010BDE4
:103AA000A50F00201A06002022060020740F002017
:103AB000BA120020BE120020F1120020BC12002019
:103AC000AC0F0020240600201C06002070110020EE
:103AD000200600201E060020D8100020FD10002027
:103AE000A20F0020A00F0020A10F0020B40F002083
:103AF000780F0020D9100020AE0F0020B20F002058
:103B0000B00F00203E060020C80F002010B52E4B3D
:103B10001B889BB22D4A934204D82B4B1B889BB227
:103B2000092B2AD82A4B00221A80FEF7E5F8FEF767
:103B300011FAFEF709F9274B18780001142100F05B
:103B4000BBFC254B1870254B18880001142100F090
:103B5000B3FC234B1870FFF7E1FE224B1A78511C7F
:103B6000197003231340022B2AD00FD8002B12D038
:103B7000012B12D1FEF7A6FA0FE0134B198889B278
:103B8000194800F089FC124B1880CEE7032B04D1B2
:103B9000FEF7F6F801E0FFF719F8FFF783FC134B87
:103BA0009978134A1180D978124A11801979124AEA
:103BB00011805979114A11809A79114B1A8010BDE0
:103BC000FFF704F8E9E7C04650060020FFEF0000C9
:103BD000C40F0020F0120020E1100020B4120020D9
:103BE000F9100020E810002090D00300F41200200B
:103BF000600F0020620F0020640F0020660F00207D
:103C0000680F00200AE0254A1370254B01221A7024
:103C100004E0562B20D9224B00221A70214A8A2315
:103C20005B00D3581B0738D41F4B1B78002B34D1B3
:103C30001C4A8E235B00D358DBB2194A1178CAB2F2
:103C40000129E6D0022A0FD0002AE7D1592BDAD079
:103C5000134B00221A70E1E7104A5370134A137095
:103C60000F4B02221A70D9E7114A117802310B4822
:103C7000435413780133DBB213701278D2B20B4B7A
:103C80001B78DBB29A42C9D3094B00221A70044B4D
:103C90001A70054B01321A70C0E7704704110020FA
:103CA0006711002000020048FF1000205D11002075
:103CB0005C11002010B5454B00E0013B002BFCD10E
:103CC000FDF7E4FE002800D001BEA021C9050B6865
:103CD0003F4803408022920013430B603D490B682C
:103CE00003401A430A60FDF791FA00F0D5F93A4B08
:103CF00042221A70394B00241C7000F0ADF8384B8A
:103D00001C70384B01229A60374B00E0013B002BBE
:103D1000FCD1364BC6229200985835490840802184
:103D2000C90101439950802189041960985831498B
:103D300008408021C903014399508022D2041A60AF
:103D4000A023DB050F22DA602B4A116B80235B0076
:103D50000B431363244B00E0013B002BFCD1274BAA
:103D60005A6801210A435A60254A9A60254B1B6F05
:103D70009BB2254A1380254A13800FE0FFF742FFCC
:103D800013E023490B6801330B60204B1A801E4B54
:103D90001B88D31A9BB21F498B4211D8174B184A64
:103DA0009A601D4B1B78002BE8D0144B144A9A6084
:103DB000144B1A6F92B2154B1B889342E7D9E0E778
:103DC000114B1A80FFF7A2FEE8E7C046804F1200B1
:103DD000FFFCFFFF00000448B012002098110020F3
:103DE0004506002000000150C0D4010000E100E0C1
:103DF000FF00FFFFFFFF00FF000001400000024046
:103E0000FECAADAB000204489A1100209C110020AC
:103E1000A01100206A180000FF1000200323034AAD
:103E20001361034A1361034A136170470001005094
:103E3000000200500003005010B5054A13784021DD
:103E40000B431370034B00221A70FFF7E7FF10BDFE
:103E50003C0600203D06002070B500F046F80A49F7
:103E60004A6A920801231340084A13704D6A0224DB
:103E70002C40234313704C6AA400042121400B43BF
:103E8000137000F036F870BD00010440AC12002041
:103E900010B5FFF7E1FF0D4B196B802252000A436A
:103EA0001A631A6B0A490A401A6309E0074B196B37
:103EB000802252000A431A631A6B05490A401A63AA
:103EC000044B9B68DB07F1D510BDC04600000140E4
:103ED000FFFEFFFF000100500230800803D00138D0
:103EE000FDD1C046C046C0467047EFF3108072B6A1
:103EF000704780F310887047064B1A89802149016A
:103F00000A431A8148215A5A8020000102435A521A
:103F10007047C0460000054010B50D4A13681B0AE3
:103F2000FF210B400B480360126811400A4A1160E0
:103F3000002B08D01B02C918084800F0ADFA400059
:103F4000074B186010BD064B064A1A60FAE7C046D8
:103F5000000301401413002010130020000024F47B
:103F6000FC3F00200048E80110B5FFF7C5FFFDF752
:103F70007FFD10BD70470000F0B5C64600B58B0848
:103F8000984604339B001E5803250D40ED00F8278A
:103F9000AF40BE431E50436F4F000326BE40B343A5
:103FA0004367CB0810339B001F5807260E40B6000E
:103FB0000424B440A7431F501F585478B44026002F
:103FC0003E431E500D4B98420ED00023D356002B7B
:103FD00010DB434604339B0019581278AA400A4369
:103FE0001A5080BCB846F0BD036E01268E40B34324
:103FF0000366EAE753688B404360EAE70002044047
:1040000010B50C000DE0800808490B68084A134001
:1040100002021343074A13430B60044B1B685B0007
:10402000FBD4A3008342EED310BDC0460003014081
:10403000FF000FC00000F03F30B50C000EE0012281
:1040400090000A490B680A4D2B4092021343094A1B
:1040500013430B60054B1B685B00FBD48300A3423A
:1040600003D20028EBD00200EAE730BD0003014094
:10407000FF000FC00000F03F014BC3225A6270479F
:1040800000000140034BC0225A62024B5B6A5B078F
:10409000FBD4704700000140034A938C01210B437D
:1040A0009BB293847047C0460010014010B50400D5
:1040B000FFF7E8FF054B186920431861034B1B68A5
:1040C0005B00FBD4FFF7D8FF10BDC04600030140E2
:1040D000034B9B6803405A1E9341D8B27047C046B9
:1040E0000003014070B504000D00FFF7CBFF154B36
:1040F0001A68120AFF2010401968134A1140294318
:10410000124A0A431A600F4B1B685B00FBD4A042A3
:1041100014D82100FFF790FF0A4A13680C490B409E
:1041200024021C43094B23431360064B1B685B00AE
:10413000FBD4FFF7A1FFFFF7EFFE70BD2100FFF7F3
:104140005FFFE9E70003014000FF0FC00000F03F00
:10415000FF000FC010B50400FFF794FF074A136873
:1041600007490B40A1680B4361680B431360FFF7DD
:1041700083FF60782178FFF7B5FF10BD0003014091
:10418000FFFFF0FF014B18687047C046FC3F00205E
:1041900010B5044B984200D010BD0420FFF786FFF5
:1041A000FAE7C0460000044870B505000C00FFF7B0
:1041B000EFFF80235B00EB602B68034A1340A403EE
:1041C0001C432C6070BDC046FF3FFFFF03680A0C14
:1041D00093430904090C1943016070470B6843615C
:1041E0004B799B06DB0F1B0543600B791B071B0FED
:1041F00043624B791B071B0F03624B79DB06DB0F16
:1042000083610B791B09C36270470B6843614B796B
:10421000DB07DB0A43600B791B071B0F43620B793B
:104220001B09C3627047000010B543680324A34311
:10423000194341604369012A03D0044A1340436192
:1042400010BD8022D2001343F9E7C046FFFBFFFFF9
:104250004368302293430901194341607047F0B528
:10426000C64600B54C1EE4B206686500EDB22F00EC
:104270001037FFB203239846BB409C463300664686
:10428000B3439C465378BB40664633431531CFB2A7
:104290000121B9408B439178B94019431935EDB2EA
:1042A0004646AE40B143D378AB400B43A100C9B200
:1042B0000F248C40A34312788A401343036080BCD0
:1042C000B846F0BD1C3189004018406870470000B6
:1042D00030B50B291AD889000D4B5B589F46032532
:1042E00000240DE0C0252D010A2409E0C025AD0001
:1042F000082405E00C25022402E0C025AD010C24B1
:10430000A8214358AB43A2401A43425030BDC04697
:10431000185D001010B5A023DB05984200D010BD39
:104320000220FFF7C3FEFAE770B505000C00FFF7A7
:10433000F1FF80235B00EB602B68034A1340A4036A
:104340001C432C6070BDC046FF3FFFFF012303618B
:104350000B6843614B7BDB06DB0F1B0543600B7B6C
:104360001B071B0F43620B7B1B09C3624B7B1B07A5
:104370001B0F03624B6883618B6814225340836474
:10438000704703680A0C93430904090C1943016040
:104390007047000010B543680324A34319434160EC
:1043A0004369012A03D0044A1340436110BD8022AF
:1043B000D2001343F9E7C046FFFBFFFFF0B5C64646
:1043C00000B54C1EE4B206686500EDB22F00103750
:1043D000FFB203239846BB409C4633006646B34376
:1043E0009C465378BB40664633431531CFB201211A
:1043F000B9408B439178B94019431935EDB246461F
:10440000AE40B143D378AB400B43A100C9B20F24F7
:104410008C40A34312788A401343036080BCB846A3
:10442000F0BD41637047000030B50B291DD88900ED
:104430000E4B5B589F460024032510E00A24C0253C
:104440002D010CE00824C025AD0008E0042430252F
:1044500005E002240C2502E00C24C025AD01A821B2
:104460004358AB43A2401A43425030BD485D001050
:104470004B6803658B6843650B68C364704710B570
:10448000436F490003248C40A3434367436F8A4032
:104490001343436710BD000010B5EFF3108272B6EE
:1044A000044B04245C6318625962986A82F3108892
:1044B00010BDC0460000034010B5EFF3108272B685
:1044C000044B00245C6318625962986A82F3108876
:1044D00010BDC0460000034010B5044B984200D008
:1044E00010BD8020FFF7E2FDFAE7C0460000015052
:1044F00070B504000D00FFF7EFFF0323E3602B68A6
:10450000236070BD03689B0705D103680A681343E5
:104510000360002070470120FCE710B5436F1031A5
:1045200001248C40A3438A401A43426710BD000017
:10453000F8B504000E00170000F052F9357A002D8E
:1045400000D11035002F07D03379002B26D03168E9
:104550002A00200000F088F8F379013B5B006D0829
:1045600001352D022B43144A1343E3637379013B56
:104570001B068122520013436363B379002B13D0CF
:10458000626B013B1B0413436363A023DB00A36343
:1045900001235B42E36473892364F8BD31682A0018
:1045A000200000F00BF8D7E7626B7379013B1B0426
:1045B00013436363E9E7C04601000300F0B5DE463C
:1045C0004F4680B583B083460C001500632941D95E
:1045D000002A01D101203EE0FFF7D4FD6421FFF75E
:1045E0005BFF814664212000FFF756FF07001C4E49
:1045F000012301938023DB0000931C0000E0013CB9
:10460000002C12D03900694348466043FFF744FF4D
:10461000830A8005800D8022D2009342EFD8864223
:10462000EDD9060001930094E9E7009F013F802344
:104630001B023B435A46136153690A4A1340013D2A
:10464000AD022B43019E013E360433435A4653616B
:10465000002000E0012003B0C0BCBB46B146F0BD65
:10466000FF030000EF8000FCF0B5DE4657464E46E3
:104670004546E0B583B08046894617000192FFF7B2
:1046800081FD06004B465F43B8424ADD3900FFF723
:1046900013FF0400012506E00135290079433000AD
:1046A000FFF70AFF0400204B9C42F5D8019F390018
:1046B000614369433000FFF7EFFE8346631C9A466F
:1046C0003900594369433000FFF7E6FE4B46181A9C
:1046D000C317C01858404B465A469B1ADA179B1806
:1046E0005340984200DBA2468022D2005346D21AA1
:1046F0008023DB0113434246136153690B4A134085
:10470000019F013FBF023B43013D2D042B43424625
:104710005361002003B0F0BCBB46B246A946A04698
:10472000F0BD0120F6E7C046FE030000EF8000FC6C
:1047300070B504AC24784569094E3540002A0DD087
:10474000102211431B0419430C43059B1B021C43FD
:10475000069B9B021C432C43446170BD0022F0E782
:104760002C8000FC70B584256D004459064E344001
:1047700044514459054E34401B020B431206134367
:104780001C43445170BDC046FFFFFFF8C0C0FFF896
:1047900070B586256D004459074E34404451445944
:1047A000064E34401B020B43120613431C43802366
:1047B0005B052343435170BDFFFFFFF8C0C0FFEF0F
:1047C00010B5064B984200D010BD0820FFF76EFCD4
:1047D0000820FFF77DFC0028FAD1F5E70800004823
:1047E00010B504009023DB0598420CD0084B98428A
:1047F00009D00323E360E368DB07FCD5236C0F22B9
:104800009343236410BD0348FFF7DAFFF1E7C04686
:10481000000200480800004810B5034BFF221A6050
:104820000120FFF743FC10BD0005014070B50400F6
:104830000D00FFF7F1FF6B6923606A6880231B029C
:1048400013438022A350AA68A023E250EA680433ED
:10485000E2502A69DD33FF33E2502A68C93BFF3B4F
:10486000E25070BDF0B5C64600B5002A19D1CA069F
:10487000D20E90464905490F1F26E022D2009446E9
:104880000025082728339B001C5862469443B940F2
:104890002143B1434246AA400A431A5080BCB8465D
:1048A000F0BDCA02D20E90464901490FF8267603A0
:1048B000E022D204944610251827E3E770B50400DF
:1048C0000D00496800230022FFF7CCFF6968002330
:1048D00001222000FFF7C6FFA96801230022200063
:1048E000FFF7C0FFA968012301222000FFF7BAFFEC
:1048F0002A698023E250EA683833E2502A68530775
:104900005B0F9101890D09040B43F82149006350A5
:10491000D300DB0F1B071001800F800603439000BC
:10492000C00F400703435200D20F9207134362584F
:104930001343802212061343635070BD10B58022CA
:1049400083580324A3431943815010BD10B58A42F4
:1049500000D90131C02283580324A3431943815055
:1049600010BDC022835803218B4383507047000041
:1049700030B50025002300E00133012B06D8094A99
:104980009C00A2588242F7D11D00F5E78D4200D964
:104990000131C0240359033101228A4013430351DA
:1049A00030BDC046785D0010F0B5002309E0284A0C
:1049B0009C00A55884242A59264E32402A5101339E
:1049C000DBB2012BF3D90B789B0702D10027002221
:1049D00012E080273F01FAE71D4B9400E65884253A
:1049E00074591D4B1C400B781B079B0F1B02234364
:1049F0003B4373510132D2B2012AEDD94A68174BB9
:104A000013438022920083508B680122134381223A
:104A1000920083500A7803231340022B01D0002315
:104A200012E081229200815880235B020B43835065
:104A3000F5E7074A99008858842144588022D20417
:104A4000224342500133DBB2012BF2D9F0BDC04604
:104A5000785D0010FFFFFFFBFFFCFFFF0080800080
:104A600010B58423C258184C2240C250C458813B10
:104A70009C430A7813079B0F2343920701D0082217
:104A80001343842283504A68104B13438022520000
:104A900083508B68FF3A13430432FF3283500A7805
:104AA00003231340022B06D08422815880235B0409
:104AB0000B43835010BD82225200815880235B0239
:104AC0000B438350F0E7C046FFFFFFFE008080806D
:104AD00070B5137B8826845901258D40AC438B40EB
:104AE000234383510D23D356002B17DB012908D014
:104AF000002922D1B02403591F25AB4303510E00D6
:104B000005E0B02403590E4D2B400351803EB025E3
:104B100043590D241457B44023434351C824035927
:104B200055682B4303510834035995682B430351AF
:104B30001368803189000B5070BD0026E7E7C0463E
:104B4000FFE0FFFF10B580208000FFF7AFFA10BD37
:104B500010B50400FFF7F6FFA268034B5A606268C5
:104B60001A6122685A6110BD00000240F0B54F463C
:104B70004646D6460400C0B51F000B0310004E0089
:104B80005B0ACD0F610F7A001943E3003C03FF0F6E
:104B9000BC46640A470F2743760D520DC000B94644
:104BA0008046B71A654500D19BE0002F00DC84E009
:104BB000002A00D1BEE0C84A964200D124E18022FA
:104BC0004C4612041443A146382F00DD67E11F2F25
:104BD00000DDD6E120224C46D21B9440A24644463A
:104BE000FC4020005446044340469040421E904101
:104BF0004A46FA400443891A1C1BA342924152427E
:104C00008B1A9A4653461B0200D4D4E053465A02EC
:104C1000530A9A465346002B00D104E1504600F057
:104C20002DFE0300083B20222000D21A5146D0401E
:104C3000994002009C400A43B34200DA02E19B1B08
:104C4000591C1F2900DDA7E02023100026005B1A55
:104C50009C409840CE40CA40631E9C4130439246DF
:104C600000260443630709D00F232340042B05D0FB
:104C7000231DA342A4416442A2441C0053461B02CC
:104C800000D49BE0944B01369E4200D1B8E05346DD
:104C90009249E4080B4019005B07234372054C025C
:104CA000240B520D1205ED0722432A431800110070
:104CB000E0BCBA46B146A846F0BD002F48D0971BCD
:104CC000002E00D00EE10C001C4300D1B7E17C1E89
:104CD000012F00D126E2804DAF4200D1D5E127005F
:104CE00007E1002F00DCB2E0002A47D07A4A964262
:104CF00000D189E080224C4612041443A146382F8B
:104D00006BDC1F2F00DC6EE13A004846203AD040B1
:104D10008446202F07D040224846D21B90400200F4
:104D20004046104380464046421E90416246040081
:104D3000144357E04A46024300D103E17A1E012F93
:104D400000D193E1644CA74200D18AE117003BE710
:104D5000634C721C224200D0E0E00A001A43002E8D
:104D600000D074E1002A00D1D0E14A46024300D0CD
:104D7000E3E14A07DB081343C90829E04A46024336
:104D800000D17DE17A1E012F00D1E0E0524CA74214
:104D900000D166E11700B2E710001F3BD840202980
:104DA00003D040235B1A9A401443631E9C410023A6
:104DB00000269A460443630700D055E75246E308AD
:104DC0005207134352463700D108434A97421FD037
:104DD00009037A050C0B520D64E742464C46144316
:104DE000621E9441E4189C429241524292468A4487
:104DF00053461B02DFD5384B01369E4200D0B3E04C
:104E00003200002400234DE74A07DB081343C9089A
:104E10001A000A4300D100E2802424030C43240337
:104E20002D4A240B3EE7200000F028FD0300183334
:104E30001F2B00DCF7E62200083882400024B34232
:104E400000DBFCE6F61A254B1A4092460AE7002FD3
:104E50002BD0971B002E00D1B8E01F4CA24200D1EE
:104E60001CE1802424042143382F00DD1EE11F2F84
:104E700000DD9EE120260C00F61B1800B340B44074
:104E8000F8405E1EB341F94004431C438944444446
:104E900044459B415B424B449A461600A8E7424674
:104EA0004C461443621E9441A6E60D4C721C2242ED
:104EB00000D0A8E00A001A43002E00D00AE1002A20
:104EC00000D15EE14A46024300D061E14A07DB08B7
:104ED0001343C9087CE7C046FF070000FFFF7FFFC0
:104EE000FE070000CF4CA24200D1CEE08024240473
:104EF0002143382F5BDC1F2F00DDDCE020250C0078
:104F0000ED1B1E00AB40AC40FE405D1EAB41344388
:104F1000F9401C434B465B1A99464CE04A461C1A22
:104F2000881AA34292415242924602005046121AF7
:104F30009246120278D45346234300D06AE60021F9
:104F4000002545E74A07DB081343C9083DE71C185D
:104F50009C429B4149448A465B429A4453460126FF
:104F60001B0200D427E702265246AF4B01211A400C
:104F70001300214062080A43DC075B089A46144389
:104F800070E63A004C46203AD440A446202F07D081
:104F900040224846D21B90400200404610438046C3
:104FA0004046421E904162460400144324E61943E1
:104FB0000C00631E9C4143461C1BA0459B41494677
:104FC0005B42CB1A9A46654616001BE60C001C4352
:104FD00000D1C7E07C1E012F00D1F9E0914EB7420D
:104FE0005CD0270040E720224C464046D21B94402C
:104FF000F840044340469040421E90414A46FA40E1
:1050000004438918EEE6874CA24200D1F9E618184D
:1050100098429B4149445B42CB18DC0740085B083F
:105020009A4616000443C6E64246D41AA04580417B
:105030004B464042591A0B1A9A466546EAE54B46DA
:105040004A46C0085B0765460343D108BDE6002A0F
:1050500000D08EE04B46034317D180210025090381
:10506000DAE64A07DB081343C908D1E61C1A4A46A8
:10507000A3429B41891A5B42CB1A9A460126C1E59D
:105080004A07DB081343C9089FE64346D8084B4646
:105090004A465B0765460343D108B9E64346D8084C
:1050A0004B464A465B070343D108B1E619430C005F
:1050B000631E9C41EBE63C000D00203CE540202FA8
:1050C00003D04024E41BA1400B431C00631E9C4101
:1050D0002C4370E7002AE1D04A460243C1D04A0778
:1050E000DB0813438022C9081203114208D0484646
:1050F000C408144204D143462100DB08420713438D
:105100005A0FDB005207DB08134381E64B4603438B
:1051100000D114E74B464A46C0085B076546034387
:10512000D10855E6C41AA04580414B464042591A61
:105130000B1A9A466546012664E51C1A4A46A342A4
:1051400080418A1A4042121A9246120249D54246BA
:10515000D41AA04580414B464042591A0B1A9A4630
:1051600065467FE54B464A46C0085B070343D108C6
:105170002BE64A46DB08024338D14A071343C908E5
:1051800046E64B464A46C0085B070343D1081FE684
:105190001C189C429B4149448A465B429A445346B0
:1051A0001B0200D407E652461F4B01261A409246C6
:1051B00001E63C000E00203CE640202F03D04024B6
:1051C000E41BA1400B431C00631E9C4134435EE67C
:1051D00043448342804149448A4640421C00824401
:1051E000BCE65346234300D1A9E6E4E54A0713434E
:1051F0008022C9081203114209D04846C40814424B
:1052000005D1434665462100DB08420713435A0F88
:10521000DB00DB0852071343FAE50023014A1C00B8
:1052200040E5C046FF070000FFFF7FFFF0B54546A1
:10523000DE4657464E46E0B51F000B031B0B9B4650
:105240004D00CB0F04009146984687B06D0D00D1FC
:10525000CDE1CE4B9D4200D1E9E15A46430FD20049
:105260001343802212041A43C3009A46C84B934644
:105270009C4600230026654400933C037B0048467F
:10528000240B5B0DFF0F002B00D189E1BF4A934235
:1052900019D0420FE4002243802424041443BC4A62
:1052A00000219446424663445B190193019B7A4076
:1052B0000133C000D2B202930A2E1CDD3A000B2E3D
:1052C0005ED0474656E04946B04B2143EB18019368
:1052D00000292AD18020022200012B008446164397
:1052E000424663447A40D2B202930A2E00DD31E294
:1052F000002000240221022E26DC013E012E52D87D
:1053000002294CD0012900D018E1002300240025F7
:105310001B052343D20713432800190007B0F0BC34
:10532000BB46B246A946A046F0BD80210322090132
:105330002B008C461643424663447A40D2B2029315
:105340000A2E00DD28E203210125B540AC46A62641
:105350006346F600354033420BD19026B600334207
:1053600018D1B93EFF3E1E421DD0A3468246009191
:1053700000E0170000993A00022910D05C46504620
:105380000329BFD180231B031C43240305007F4B4B
:10539000240BBDE7802400227C4B2403B8E70024C3
:1053A00000257A4BB4E753461E04360C1F0C33001D
:1053B000010C0004000C4343984603007B439946CC
:1053C00033004B439C4643460D001B0C9A467D43DD
:1053D000CC44D4440095E14504D980235B0299462E
:1053E0004D44009563461B0C1D0063461B049C4600
:1053F00043461B041B0C9846634643440393230C0B
:10540000984633002404240C63439C4623007B43CA
:10541000994643465E435F434E446346B2461E0C84
:105420005644B14503D980235B0299464F44330C5F
:1054300099463B004B4405936346AC461F043F0C22
:105440003604F619B444634604935B461B0C9C4631
:105450005B461F043F0C3B0043439946634643436E
:105460009A464B4660461B0C9B4648437943514441
:1054700059448A4503D980235B029A4650440B0C59
:105480009A464B461B041B0C99463B006343090498
:1054900045464944994663465C436B439C464B46AC
:1054A0001B0C98466F433F1947445044BC4203D9F4
:1054B00080235B029846C444049B009D9846454463
:1054C000B542B641734298464B461E04059B3C04C8
:1054D0009946360CA4194C44A14683466E18C14423
:1054E0008E428941CB445D4649426D189C42A4419D
:1054F000C1459B41834580418D4289415B42644265
:105500001C434042039B4942014370023F0C184335
:10551000E419471EB84164186444F60D6102304333
:10552000EC0D6E020C433043C90100D4F1E00121BF
:10553000430801400B43E007184364081549029BE8
:105540008C466344002B00DC97E0410709D00F2113
:105550000140042905D0011D8142804140422418A8
:105560000800E10106D58021C9008C460A4B1C4089
:10557000029B634409498B4200DD10E76107C508BF
:1055800064025B050D43240B5B0DC1E6FF070000C1
:1055900001FCFFFFFF030000FFFFFFFEFE0700000E
:1055A0004B46234359D0002C00D1A3E0200000F04B
:1055B00065F9010003000B391D22521A49461800F3
:1055C000D1404A4608388240844010000C43744A57
:1055D000EB1A9446424663440193019B7A4001339F
:1055E0000021D2B202930A2E00DD67E683E65B4615
:1055F00003439A462AD05B46002B6DD0584600F0F4
:105600003DF9010003000B391D22521A2100180038
:105610005D46D140083885400A0084402A439346BD
:10562000A2465F4D0026ED1A0023009325E65B4657
:1056300003439A4605D100239B4602330826009374
:105640001BE6032382460C26009316E600239B46A6
:1056500001330426002500930FE6424601330195ED
:105660001E43019B7A400133002400200121D2B265
:1056700002930A2E00DD21E63DE60121C91A3829F0
:1056800000DD42E61F2947DD1F2625007642F31A7A
:10569000DD402B00202905D04249029D8C466544FF
:1056A000AC402043411E8841184307231D000024BD
:1056B000054003424AD00F2300240340042B42D06C
:1056C000031D8342804140422418180023023AD52A
:1056D0000123002400251BE600F0D0F801000300A0
:1056E000153120331C298FDD083800228440924672
:1056F000A34696E700F0C2F80100030015312033FD
:105700001C2900DC58E702004C46083A002094406F
:105710005DE7019B029311E7234B26009C460300A3
:10572000029DCB406544AE401E430300AB40581E73
:10573000834130001843CC404307C7D00F230340B8
:10574000042BBDD1C2E765076402240BC008002307
:105750000543DDE5002502230F2E0CD180245B4696
:10576000240323420ED021420CD10C4324033A00DF
:105770000E4B240BCCE50B2E00D0A2E58B46AA469F
:105780000093F7E580245B4624031C432403424630
:105790005546064B240BBBE54D4621000323DBE7B2
:1057A0000DFCFFFF3E0400001E040000FF07000088
:1057B0000A0030B5134C530009030500090B002003
:1057C0005B0DD20FA34204DD0F48834202DD0F4B75
:1057D000D01830BD8020400301430D48C01A1F2857
:1057E00008DD0C48C31AD9400B005842002AF0D1FA
:1057F0001800EEE7084CC540A446634499400B00EE
:105800002B43F2E7FE0300001D040000FFFFFF7FB3
:105810003304000013040000EDFBFFFF70B5002807
:1058200016D0C317C5185D40C40F280000F026F835
:10583000114B1B1A0A2816DC02002E001532964066
:105840000B22121AD5405B052D032D0B5B0D03E0D7
:1058500000240023002500261B052B43E4072343D7
:105860003000190070BD0B3885405B052D03002604
:105870002D0B5B0DF0E7C0461E0400001C21012328
:105880001B04984201D3000C10391B0A984201D323
:10589000000A08391B09984201D30009043902A201
:1058A000105C40187047C046040302020101010168
:1058B000000000000000000070B500260C4C0D4DEB
:1058C000641BA410A64209D10026FEF753FB0A4C24
:1058D0000A4D641BA410A64205D170BDB300EB585D
:1058E00098470136EEE7B300EB5898470136F2E7E8
:1058F0006406002064060020640600206406002080
:10590000004B000000080801100000000600000025
:10591000F000000004010000000100000000000091
:10592000100000000000007000100000F8000000EF
:105930000D01000000010000000000000500000053
:105940000000000002000000F00000000D00000058
:10595000787800000000000007010000000000004F
:105960000000000005000000000000000200000030
:10597000F00000000D00000078780000000000003A
:10598000070100000000000000000000050000000A
:105990000000000002000000F00000000D00000008
:1059A00078780000000000000701000000000000FF
:1059B00000000000010000400000000000000000A6
:1059C000F0000000070100000000000000000000DF
:1059D00000000000F01000000000000000000000C7
:1059E00000000000F40100000000000000010000C1
:1059F00000000000000000000000000000000000A7
:105A00000000000000000000000000000000000096
:105A10000000000000000000100000000000000076
:105A2000B8000000000001001000000000000000AD
:105A30000800000000000000080000000000000056
:105A4000080000000000000010000000000000003E
:105A5000100000000000000008000000000000002E
:105A60008000000000000100A8000000000001000C
:105A7000A800000000000100B800000000000100C4
:105A8000B800000000000100A800000000000100B4
:105A9000A8000000000001009000000000000100CC
:105AA00000000000000000000000000000000000F6
:105AB0008000000000000100000100000000010063
:105AC00000000000422100104C2100106421001051
:105AD00084210010B4210010E221001000220010E7
:105AE0001C22001048220010A03500103035001094
:105AF000363500103C350010423500104835001096
:105B00004E350010543500105A35001003030602BC
:105B1000050104011E06280632063B0644064C0613
:105B200054065B06620668066E06730678067D06F6
:105B30008106840687068A068C068D068E068E06EA
:105B40008E068E068D068B068906860683068006DF
:105B50007B06770672066C066606600659065106D5
:105B60004906410638062F0625061406F405D50514
:105B7000B50594057405530531050F05ED04CB04F7
:105B8000A9048604630440041D04FA03D603B30386
:105B90008F036C03480324030103DD02BA0296025B
:105BA000730250022D020A02E701C501A30181011F
:105BB0005F013D011C01FC00DB00BB009C007C0080
:105BC0006B00610058004F0047003F003700300075
:105BD0002A0024001E001900150010000D000A0004
:105BE000070005000300020002000200020003009B
:105BF0000400060009000C000F00130018001D002F
:105C0000220028002E0035003C0044004C005500C6
:105C10005E006800720068005E0055004C004400A1
:105C20003C0035002E00280022001D001800130043
:105C30000F000C000900060004000300020002002F
:105C4000020002000300050007000A000D0010001A
:105C5000150019001E0024002A00300037003F0004
:105C600047004F00580061006B007C009C00BB00A7
:105C7000DB00FC001C013D015F018101A301C501A6
:105C8000E7010A022D02500273029602BA02DD02F7
:105C90000103240348036C038F03B303D603FA0301
:105CA0001D04400463048604A904CB04ED040F051D
:105CB0003105530574059405B505D505F40514069D
:105CC00025062F0638064106490651065906600684
:105CD00066066C06720677067B06800683068606D5
:105CE00089068B068D068E068E068E068E068D061E
:105CF0008C068A068706840681067D06780673066A
:105D00006E06680662065B0654064C0644063B06B1
:105D10003206280601030002DE420010DE420010B7
:105D2000F4420010F44200100C4300100C43001029
:105D30000C4300100C430010EC420010E442001031
:105D4000FA420010FA4200103644001036440010A7
:105D500052440010524400104C4400104C440010B7
:105D60006A4400106A440010444400103C4400108F
:105D70005844001058440010000403480008034829
:105D80002C488746000000000000000000000000D2
:105D90000000000000000000000000000000000003
:105DA0002548874600000000000000002348874681
:105DB0002348874623488746234887462348874603
:105DC00023488746234887462348874623488746F3
:105DD000234887460000000022488746224887461D
:105DE00022488746224887462248874622488746D7
:105DF00022488746224887462248874622488746C7
:105E000022488746224887462248874622488746B6
:105E100022488746224887462248874622488746A6
:105E20002248874622488746000000000000000004
:105E300020488746A3100010A3100010A3100010E4
:105E4000A3100010A3100010A3100010A310001046
:105E5000A3100010A3100010A3100010A310001036
:105E6000A3100010A3100010A3100010A310001026
:105E7000A3100010A3100010A3100010A310001016
:105E8000A3100010393E0010A3100010A310001042
:105E9000A3100010A3100010A3100010A3100010F6
:105EA000A310001069060020B1090020A310001003
:085EB000A3100010A310001064
:105EB80000000700000000000000000000FF0000D4
:105EC80000000700000000000000000000FF0000C4
:105ED80040020600000000000100000000FF000072
:105EE80000000000000000000000000000000000AA
:105EF8000000000008000000000000000000000092
:105F08000000000000030000000001000000000085
:105F18000000000000010000000000000100010076
:105F28000000000000000000000000000004000065
:105F38000000000000000000000300000004010051
:105F48000000000000000000000400000000000045
:105F58000100010000000000000000000000000037
:105F6800A0000000210000000D000000004F040008
:105F78000400000000000000000F040030000000D2
:105F8800BB00AA00AA00AA006E00AA00A000AE10DA
:105F980002080000400000008FC10A0202014949BE
:105FA800C2C29601010143A5A50128281907480383
:105FB800580148034803AE10FFFF0549C20E000010
:0C5FC80000186B42C3EB980004000000BE
:105FD400F0B5D6464F464646C0B5A748056FADB2A4
:105FE400012100F069FC86B2A44A80235B00D258E8
:105FF4005211F93B1340A2490B70A24A1370AD1B16
:10600400ABB29A46A04AC1239B00D358DB009F4AF7
:1060140013409F4A13609F480268D21802609E484A
:106024000268013202609D48026894469C4A6446B4
:10603400A400A046A458A1469A4F3C684D46641B50
:106044003C604546AB50E4183C60634601333F2254
:10605400134003602034A411934B1C600F78934BBE
:106064001B789F4200D1C9E0914AD35C9F4200D182
:106074008EE0904A002313708F4A13708F4A136086
:106084008F4A138801331380884B1F708D4BDA5D60
:106094008D4B1A706409E4B28C4B1C70854B1B78D1
:1060A400002B0ED08A4B1B7853448A4A1278D2189C
:1060B400824B1B68534380221202944663441B0C98
:1060C400DBB2814A12789B18DBB2834A1278D31868
:1060D400DBB2824A12789B18DBB21A00553AD2B26C
:1060E4007F495200525A7F490A80D22189008A424C
:1060F40000D89DE07C498C4662447C4909784A4337
:106104001212D22189008C46624492B278490A80E4
:10611400734A59008A5A73490A80D22189008A42F3
:1061240000D891E070498C466244704909784A432A
:106134001212D22189008C46624492B26D490A80BF
:106144005533DBB2664A5B009B5A664A1380D222FF
:106154009200934200D883E0634A94466344634ABE
:10616400127853431B12D2229200944663449BB28A
:10617400614A1380614AC6239B00D3589B109B0538
:106184009B0D5F4A1380E0BCBA46B146A846F0BDF9
:10619400012F18D0032F00D076E75A4B01221A7032
:1061A400444B1B78802B00D06EE73A4E3A4B98460E
:1061B4001968306800F078FB534B18600023336093
:1061C4004246136060E73C4B1B78002B10D04F4BCA
:1061D4001B88F31A9BB24E4A1380118889B280201F
:1061E400400400F061FB354B1860324B80221A707A
:1061F400314B01221A70454B1E8045E7454B9A45A9
:1062040000D847E72B4A00231370334A13702A4AF5
:1062140013702A4A13603E4A0121494211801C4AE4
:106224001168394A11601B4A13601B4A136031E735
:10623400D22189008A1A2D48007842431212891A01
:1062440089B22B4A118063E7D22189008A1A274830
:10625400007842431212891A89B2264A11806FE7E4
:10626400D2229200D31A214909784B431B12D21A25
:1062740092B2214B1A807DE70002044800000150CD
:10628400AC1200200913002000040348F8FF0700A3
:10629400D4120020D8120020DC120020A412002006
:1062A400A4110020A8120020E012002045060020BE
:1062B4000C5B00100A13002008130020E8120020D1
:1062C400AE120020580600200B130020F01200200C
:1062D400041300205506002007130020B0120020EC
:1062E400145B0010CC120020B8FCFFFF0613002042
:1062F400460600204A0600204C06002000080348F9
:10630400C012002003130020E4120020B212002067
:10631400500600208D20000010B5D04B1B889BB286
:10632400CF4AD363CF4B1B889BB2CF4AD363CF4BA7
:106334001B889BB2CE4AD363A023DB051222FF3213
:106344001A61CC4B1B78002B2FD0CA4B1B78DBB2C5
:106354000A2B25D9C84B18780002C64B1978C9B244
:1063640000F09AFA80B2C54B1880C54B1B78002BFD
:1063740020D0C14B1A78C14A12881B78C14A1278BE
:10638400534380331B12DBB2BD4A13700D2B02D969
:1063940013000D221A70BA4B1A78BB4B1A7009E01D
:1063A400B54B1B78B54A1380DFE7B44B00221A8043
:1063B400B54B1A70B24B00221A70B44B5A6A920A47
:1063C400012313405A425341DBB2B14A1370B14B1B
:1063D4001A78D2B2A74B1B78DBB29A421CD3AE4BCD
:1063E4001A78D2B2A44B1B78DBB29A4214D3A34BD3
:1063F4001A8892B2A94B1B889BB29A420CD8A84B1C
:106404001A8892B2A74B1B889BB29A4204D3A04B22
:106414001B78002B00D1E0E0A34B00221A70A34AA2
:1064240013780133DBB21370A14A1278D2B29342CB
:106434000CD99E4B00221A709E4B1B78002B00D166
:10644400BCE09C4A1378013BDBB213708F4B5A6A51
:10645400120901231340984A128892B2002A00D1EB
:106464007AE1954A1288D20894490A80944A1278AB
:10647400002A06D0934908889049098889B288423D
:106484000DD991490978994209D08F490B70002B95
:1064940005D0002A00D063E1894B01321A70884B81
:1064A4001B78002B08D0874B1B88884A934200D95D
:1064B4006CE1844A01331380854AC7239B00D35877
:1064C4009B109B059B0D834A13801188824A138875
:1064D4005B00C91813885B189B109BB2128892B298
:1064E4009A4200D15AE17C4A138068494B6A5B099D
:1064F40001221340496A490B0A4052001343774A68
:1065040012789A4212D07649C95C8A4200D156E187
:10651400744A00211180744A05311170734A7B3129
:106524001170734A002111806C4A1370704A1388E9
:1065340001339BB213806F4A1288934200D86CE1F6
:10654400684B00221A806A4B1A80674B05321A7016
:10655400664B7B321A70684B00221A70674B1B78AB
:10656400002B09D0654A00231370654A1380654ADD
:106574001380614B00221A705A4B1B889BB2002B6C
:1065840000D154E15E4B1A8892B2534B1B889BB2E4
:106594009A4204D2504B1B889BB2594A1380564BE3
:1065A4001B78132B00D849E1534B00211970544A2E
:1065B40013889BB25348038011803FE12D4B1B7815
:1065C400002B00D142E72B4A1378013BDBB2137056
:1065D4004D4A13880133138038E72E4B1A78D2B210
:1065E400244B1B78DBB29A4228D92B4B1A78D2B2AF
:1065F400214B1B78DBB29A4220D92C4B00221A7013
:10660400294A13780133DBB21370404A1278D2B2AC
:10661400934200D81AE7244B00221A70154B1B78BA
:10662400DBB2FD2B00D911E7124A13780133DBB238
:106634001370374A13880133138007E7354B1B78EF
:10664400002B04D00B4B1B78DBB2FE2B64D0164B13
:1066540000221A70154B1A70F8E6C0464606002050
:10666400000100504A060020000200504C060020A1
:106674000003005006130020F0120020B412002082
:10668400031300200213002007130020000004401D
:10669400FC120020FE120020FD120020180600202B
:1066A400C01200204806002000130020FF12002022
:1066B4005306002004130020CE120020D212002022
:1066C4000F130020D01200200E130020F99B0000AD
:1066D40000040348B8120020BC1200206006002009
:1066E400145D0010C4120020520600200D13002077
:1066F400C61200204E0600200C130020F1120020C8
:10670400BA120020BE120020C81200205406002035
:10671400CA12002001130020494B00221A70494A72
:1067240013780133DBB21370474A1278D2B2934222
:1067340000D88BE6434B00221A70444B1A78D2B22D
:10674400434B1B78DBB29A4200D37FE63F4A13786F
:106754000133DBB2137079E63E4A3F49118085E686
:106764003E4B1B88A32B07D83D4B00221A803B4B82
:106774001A803C4B1A7092E6394A1380374B002238
:106784001A80394A13680133136088E6344B0022B7
:106794001A80324B1A80334B1A708DE6334A1288B2
:1067A40092B29A4202D901339BB29CE62F4A1288D4
:1067B40092B29A4200D396E6013B9BB293E62C4AEE
:1067C40012882C490A802C49097899420BD0052952
:1067D4001BD02A4A128892B2002A00D0A1E6274A86
:1067E400274911809DE627490120087026490C8815
:1067F40022480480002008801E49AC32FF320A80FF
:1068040022490A7801320A708BE61B4A13701E4A29
:10681400002111801D4A117083E6174B1B78052B4C
:1068240000D19BE6184A13880133138096E6174A71
:1068340000231370164A1380164A138010BDC046F5
:10684400FF1200200013002054060020041300202F
:1068540005130020D21200207F130000D012002064
:10686400CE1200200F130020EC120020B8120020DA
:10687400260600204E06002052060020C4120020E6
:10688400C21D00000D130020C21200200C130020B2
:10689400BE120020BA12002001B40248844601BC92
:1068A400604700BFB944001001B40248844601BCEB
:1068B400604700BF9944001001B40248844601BCFB
:0868C400604700BFC54200104F
:0400000510001019BE
:00000001FF
