:020000041000EA
:10100000480500201910001000000000A310001077
:1010100000040100000100001249134A134B00F0C4
:101020001AF8134880471349134A144B00F013F879
:101030001349144A144B00F00EF81449144A0020C6
:10104000521A02DD043A8850FCDC124880471248EC
:101050008047124880479B1A03DD043BC858D05094
:10106000FBDC7047205D00100C00002044010020D4
:10107000093F0010585E001048050020600600205F
:10108000705F001060060020300E0020300E00203F
:10109000C0110020A110001059580010553C00103C
:1010A0007047FEE710B582B06B46354ADA80354BA3
:1010B000354A1A60354B0121C022520099508020D8
:1010C0001A58334C22401A508022120231480260D2
:1010D00031480260812292009950304A8423802155
:1010E000C904D1501DE029498122920088588023EB
:1010F0009B0003438B50294AFC235B00D358002BF1
:10110000F9D0C0239B00D358009380231B02214AAF
:101110001360214A13606B469A1DDB88013B9BB22A
:1011200013806B4606331B889BB2002BDBD1009BE0
:101130000023009305E080231B02164A1360164A21
:101140001360174B1B6C1B0FF5D1104B80215858A7
:10115000C022920202435A5000228531FF315A5078
:1011600084395A500D4B9532FF328039FF399950EE
:1011700083315A580B4802405A5002B010BDC04645
:1011800050460000BC4003480004103F00000348E4
:10119000FFFFFC7FE0400348E440034800040348AD
:1011A00000400348FFFFFFFB00B583B00023124A55
:1011B0001360124A13600321114803F08FFB114999
:1011C00080228858104B03438B501423019308E06E
:1011D000019B013B019380231B02074A1360074ACE
:1011E0001360019B002BF3D1FFF75CFF0021044843
:1011F00003F074FB03B000BDE0400348E440034843
:10120000000403480000034800000180F8B552497B
:10121000524D280003F0DAFA5149524E300003F0E3
:101220001DFB5149514C200003F018FB03213000F5
:1012300003F054FB0321200003F050FBFFF7B4FF41
:101240004B49280003F080FB4A49200003F0D8FBFB
:1012500082225200A1588023DB000B43A350434A53
:1012600084235B00D3589B06F9D5140082235B00CE
:10127000D25803208243E250E25801210A43E2504F
:10128000384DEA588243EA50EA580A43EA503A4B4A
:101290001A6888235B00E250384A1268E250384AE4
:1012A0000021200003F0E4FB364A0121200003F076
:1012B000DFFB354A0021280003F0DAFB334A012125
:1012C000280003F0D5FB0021280003F007FB0021D4
:1012D000200003F003FB00220121280003F006FB9D
:1012E0000021280003F014FB200003F00AFB032177
:1012F000200003F0F3FA0321280003F0EFFAB023F3
:10130000234AE2500422FF32EA50224A06212000FA
:1013100003F0AEFB114EC2277F00F3594022134366
:10132000F3511D4A0721200003F0A2FBF35980244A
:101330002343F351194A0721280003F099FBC022E7
:101340005200B3582343B3508432B15880239B00DA
:101350000B43B350F8BDC046780500200000034899
:10136000B005002000040348E405002000080348FD
:101370000C06002000060020F8050020FC050020D7
:10138000C4050020D405002090050020A005002001
:1013900003040000680500204805002058050020CF
:1013A00010B500F007F800F02BFA10BD10B5FFF7EC
:1013B000F7FF10BDF0B5DE4657464E464546E0B550
:1013C00085B0DE4E0021300002F0BEFE80235B00BF
:1013D0009846F360DA49DB4F380002F0CFFE022373
:1013E0009A46FB6304247C638021C904300002F028
:1013F000BDFE07233361D44A0121380002F0FFFE0D
:10140000D24A0221380002F0FAFED14A0321380004
:1014100002F0F5FE01220121380002F0D5FE012282
:101420000221380002F024FFA4257B5923437B517D
:1014300001218B46F16000243C67F960C549C64F25
:10144000380002F0B2FEC54B7B63802109053000F5
:1014500002F08CFE70213161C14A6F39380002F010
:10146000CEFEC04A0221380002F0C9FEBE4A032166
:10147000380002F0C4FE0121380002F0B9FE5046E7
:10148000F0603C675846F860B849B94F380002F040
:1014900075FEA023FB63B74B7B6380218905300079
:1014A00002F064FEE020C0013061B34A012138003F
:1014B00002F0A5FEB14A0221380002F0A0FEB04AB7
:1014C0000321380002F09BFE0822F2603C675E4672
:1014D000FE60A026F6050021300002F0F5FE47462A
:1014E000F760A849A84F380002F000FFD2239B0004
:1014F0009846FB637C64D223DB00994619003800D0
:1015000002F05FFF8021C904300002F00AFF0723C8
:1015100033619E4A0121380002F020FF9C4A0221DB
:10152000380002F01BFF9B4A0321380002F016FF2F
:1015300001220121380002F0FDFE9749380002F037
:1015400067FF3C679549964F380002F0CFFE43464F
:10155000FB637C644946380002F033FF80210905B3
:10156000300002F0DEFE702131618E4A6F393800A2
:1015700002F0F4FE8C4A0221380002F0EFFE8B4AA2
:101580000321380002F0EAFE01220121380002F0B6
:10159000D1FE8749380002F03BFF3C678549864F02
:1015A000380002F0A3FE4146F9637C6449463800E6
:1015B00002F007FF80214905300002F0B2FEE0236F
:1015C000DB0033617D4A0121380002F0C7FE7C4A0E
:1015D0000221380002F0C2FE7A4A0321380002F0EC
:1015E000BDFE01220121380002F0A4FE7649380038
:1015F00002F00EFF3C677549754F380002F076FE29
:101600004146F96379644946380002F0DAFE8021E8
:101610008905300002F085FEE020C00130616D4A8E
:101620000121380002F09AFE6B4A0221380002F0D4
:1016300095FE6A4A0321380002F090FE0122012142
:10164000380002F077FE03220021380002F0BCFED1
:1016500002220121380002F0B7FE002204213800E6
:1016600002F0B2FE01220321380002F0ADFE7B59E8
:10167000584603437B517B59504603437B517B596A
:10168000102213437B517B5908210B437B513C674C
:10169000534D280002F0F0FE2B680326B3432B6065
:1016A0005049280002F0F4FE4F49280002F0FAFEEB
:1016B00000220221280002F000FF6B6F0422134376
:1016C0006B674A494A4D0022280002F001FFEB698E
:1016D00050229343EB61EB69493A93433343EB6107
:1016E000EA6B444B1A4080231B011343EB63424BCC
:1016F0002B610C360296019400943A2300220021BB
:10170000280002F0E5FF1F2305220021280003F036
:101710000FF81F2305222021280002F0F3FF2B6C75
:10172000B343524613432B64344803F0E1F905B048
:10173000F0BCBB46B246A946A046F0BD0000044836
:10174000AC58001000010448B4580010B8580010FC
:10175000BC580010C858001000020448FFFF0000E9
:10176000D0580010D4580010D858001070590010EC
:1017700000040448FF040000785900107C59001050
:1017800080590010DC58001000010050F85800107B
:10179000FC58001000590010EC58001004590010BB
:1017A0000002005020590010245900102859001040
:1017B000145900102C590010000300504859001013
:1017C0004C590010505900103C5900105459001049
:1017D0000004005064590010685900106C59001042
:1017E00000000150C4580010C0580010A05800104C
:1017F00000020048FFE0FFFF438200008459001010
:1018000010B57F4A7F4C0021200002F085FB0022AA
:101810000021200002F003FE7B4A0A21200002F092
:101820007BFB00220A21200002F0F9FD774A0D21FE
:10183000200002F071FB00220D21200002F0EFFDDC
:10184000734A0121200002F067FB002201212000E1
:1018500002F0E5FD6F4A0221200002F05DFB00224C
:101860000221200002F0DBFD6B4A0321200002F080
:1018700053FB00220321200002F0D1FD674A04211E
:10188000200002F049FB00220421200002F0C7FDE5
:10189000634A0521200002F03FFB002205212000C1
:1018A00002F0BDFD5F4A0621200002F035FB002258
:1018B0000621200002F0B3FD5B4A0721200002F060
:1018C0002BFB00220721200002F0A9FD574A082126
:1018D000200002F021FB00220821200002F09FFDE1
:1018E000534A0921200002F017FB002209212000A1
:1018F00002F095FD4F4A504C0021200002F00CFBF5
:1019000000220021200002F08AFD4C4A0121200023
:1019100002F002FB00220121200002F080FD484A73
:101920000221200002F0F8FA00220221200002F039
:1019300076FD444A0321200002F0EEFA0022032142
:10194000200002F06CFD404A0521200002F0E4FA7C
:1019500000220521200002F062FD3C4A3C4C0A2195
:10196000200002F0D9FA00220A21200002F057FDDF
:10197000384A0B21200002F0CFFA00220B21200070
:1019800002F04DFD344A0221200002F0C5FA002287
:101990000221200002F043FD304A0421200002F021
:1019A000BBFA00220421200002F039FD2C4A052157
:1019B000200002F0B1FA00220521200002F02FFDE4
:1019C000284A0621200002F0A7FA00220621200062
:1019D00002F025FD244A0821200002F09DFA002291
:1019E0000821200002F01BFD204A0921200002F0FE
:1019F00093FA00220921200002F011FD10BDC0461B
:101A0000085A001000000440C8590010F059001096
:101A1000105A0010185A0010205A0010F8590010DF
:101A2000E8590010C0590010B8590010285A001089
:101A3000305A0010E059001000010440D85900103D
:101A4000D0590010385A0010005A0010A859001040
:101A500000020440B0590010485A0010905900107C
:101A6000405A0010505A001098590010A059001008
:101A700030B585B001A8044B020032CB32C202F06F
:101A800039FB05B030BDC046585A001010B5FFF7FD
:101A90008DFC002010BD70B505000E001C0004ABCD
:101AA00018888D421FD395421ED2521A91B2A0427D
:101AB0000CD2AE1BB6B2201A80B270434B08C018CD
:101AC00002F0BAFC80B2201A80B20DE0AD1BADB2BC
:101AD000001B80B268434B08C01802F0ADFC80B216
:101AE000001980B200E0200070BD70B51D0004AB8D
:101AF0001B7888421DD990421DD2AB420CD2441AA9
:101B0000E4B2E81AC0B26043511AC9B202F0A4FCB0
:101B1000C0B2281AC0B20DE0441AE4B2581BC0B2D9
:101B20006043511AC9B202F097FCC0B24019C0B26A
:101B300000E0280070BD1800FCE7030008008B429D
:101B400000D21800704770B505000C000A2A15D89D
:101B50000A20801A68434A43801805300A2102F09F
:101B60006BFC80B284420AD1854202D9013080B236
:101B700005E0854203D2013880B200E0002070BD4C
:101B80000B8843400B80082202E05B080B80013A7F
:101B9000002A07D00B88D807F7D55B0802484340D6
:101BA0000B80F4E77047C04601A0FFFF002803D078
:101BB000044B20225A607047024B802292035A60E5
:101BC000F9E7C0460001044070B5164B1B78002BA6
:101BD00014D0012B16D0144B1B78002B0DD0134DB5
:101BE0002C88134B134A12785200D05A6043642158
:101BF00002F022FC80B224182C8070BD0A4B012216
:101C00001A70E8E70C4B1B88002B03D1064B01220E
:101C10001A70E0E7074B1B782D2BDCD9024B002212
:101C20001A70D8E7071000200A100020500E00207C
:101C3000700E0020A10F00206A0F002010B5194B74
:101C40001B78002B0BD1184B1B88002B07D1174B8F
:101C500001221A70164B174A12781A701DE0134BA6
:101C60001B78002B19D0124B1B78002B16D0104A72
:101C7000013B13700E4B1B78642058430D4B1978B1
:101C800002F0EAFB83B26420C01A80B20A4C2388B7
:101C90005843642102F0E0FB208010BD034B00227A
:101CA0001A70E7E7A10F00206A0E00200310002041
:101CB000021000203B060020500E0020084B1A782E
:101CC000FD2A00D9FD22074B18211970064B0F3948
:101CD0001970064B064909781970064B1A7070473F
:101CE000A40F00203406002032060020780F0020C8
:101CF0002C060020900F002010B50F4B1B889BB2C4
:101D0000002B15D00C4B198889B20C4B1B88AB20CB
:101D10008000584302F090FB094B1880094B1B7858
:101D2000002B04D0064A99005B185B00138010BD9D
:101D3000034B00221A80F1E77411002026060020D0
:101D40006A0F00203C10002009490A889308D21A23
:101D500092B20A80074B1B889B189BB20B809B0892
:101D6000054A1380054A57214B4313807047C046EC
:101D7000460E002066110020480E0020620E002052
:101D80004E4B1A8892B24E4B1B889BB29A4226D277
:101D90004C4B01221A704C4B1A78531EDBB2012BAC
:101DA00021D9052A1FD0042A1DD0484B00211970C3
:101DB000464B1978464B1B88642B1CD9454B1B7826
:101DC000002B18D1002916D0434B1B78013BDBB206
:101DD000812B10D941490B7801330B700EE0394B40
:101DE00000221A70D7E73E4B1B78002BDDD1374B12
:101DF00001211970DCE7394B00211970374B1B7832
:101E0000FA2B04D937490B78042003430B70364B67
:101E10001B78002B20D1354B1B885A2B08D9072A59
:101E200006D0062A04D0324A13880133138002E018
:101E30002F4B00221A802F4B1B88002B02D02C4BDB
:101E400000221A802A4B1B887D2B05D9254A117840
:101E500080235B420B431370274B1B780F2B10D949
:101E6000224B1B88092B0CD8244A13780133DBB290
:101E700013700A2B08D91B4A137808210B431370DF
:101E800002E01E4B00221A701D4B1B78002B03D062
:101E90001C4B1B78022B00D070471B4B1B78132B5D
:101EA000FAD8194A01331370184B1B88D32BF3D976
:101EB0000C4A137810210B431370EDE766110020D4
:101EC0004406002035100020A30F0020A50F00209D
:101ED000520E002006100020A10F0020880F0020C5
:101EE0007E0F0020380600200E1000206A0E002011
:101EF000640E00206A0F0020850F00209C0F002038
:101F000011100020A00F00201010002062110020EE
:101F100010B582B0114B1C88A4B2C822104B18888F
:101F20005623FF3300930F4B52002821FFF7B3FDD8
:101F30000D4B1880002C0BD021000C4802F07CFACD
:101F4000C0B20B4B1870782805D978221A7002E0BD
:101F5000074B00221A7002B010BDC0466A11002063
:101F60006A0F0020AE1000002406002035DF0000BC
:101F7000A10F002030B583B0134B1B78002B21D06C
:101F80009A1ED2B29100511849000233DAB293007E
:101F9000D21852000D4B002018700D4B188890423B
:101FA00009D90C4B1B78002B02D0084B01241C7064
:101FB000094B00241C70074C237800250095FFF77F
:101FC0006AFD207003B030BD4006002004100020E0
:101FD0006A0F0020780F0020900F002070B5644A2F
:101FE000C7239B00D3589B109B059B0D614A138010
:101FF000614B1B78772B1FD9604B1A88604B1A8076
:10200000604B1B78002B09D05F4B1B78D31A9BB217
:102010005B490B805D4800781B180B805C4B1B787C
:10202000002B34D05B4B1B78554909888B422ED24C
:10203000D21A594B1A802DE0108880B2574C218853
:102040000222FFF780FD20804B4A13780133DBB278
:102050001370782B07D0524B1880524B1B78C01846
:10206000464B18801AE0504B1B78002BF3D04F4B97
:102070001B88984207D94E4B1B88984203D24D4B80
:1020800000221A70E7E74B4B01221A70E3E7424B3C
:1020900000221A80374B1A88414B1A80404B1B880C
:1020A000374A128893425FD93F490978002944D0C2
:1020B0003A490888181A80B29B1A9CB23E4B1B788A
:1020C0005843A021494202F0C7F9201880B23B4D85
:1020D00028803B4B1B8858430A2102F0BDF90400BD
:1020E00080B20B2102F0A8F980B26E300B2102F011
:1020F000B3F92404240C6043322102F0ADF9314BD2
:102100001B7864335843C82102F0A6F980B22880B6
:102110002D4B1C88A04213D225004543201A830072
:1021200018184000294B197802F096F9211A280056
:1021300002F092F9214B188002E09B1A1F4A13808B
:10214000234B19881D4C20880822FFF7FCFC2080B7
:102150001A4B1A881E4B1A801E4B1A801E4B1B7876
:1021600053431E4A138070BD144B00221A80EFE7C0
:102170000004034864110020450E00201C060020C6
:102180001A060020A10F0020800F00207B0F0020E6
:10219000890F00208A0F00204A0E00201E06002012
:1021A0004E0E00207F0F0020141000202206002079
:1021B000200600207C0F00207A0F0020500E002007
:1021C0005A0E00207D0F00205C0E0020790F0020A9
:1021D000540E0020520E00203A0600206E0E002001
:1021E00030B583B0144B188880B2144C2188082273
:1021F000FFF7A9FC0300208011485843C00A80B2B1
:10220000104B1880104B1978104B1A78914204D358
:102210000F4B00221A7003B030BD0D4C237895008F
:10222000521952008D004919490000250095FFF709
:1022300032FC2070EFE7C046621100204C0E0020F7
:10224000102700006C0E00209F0F00209E0F002022
:10225000780F002010B56D4A13780133DBB213708C
:102260006B490A780132D2B20A706A4909780029AA
:102270001AD0032B18D9654B00211970654B1970C2
:10228000654B1B78002B19D0012A17D9604B00220F
:102290001A70614B1A70614B1A78082A00D9B0E0A5
:1022A00093005F4AD3589F460029E9D1022BE7D912
:1022B000564B1970574B01311970E1E7002BEAD1E9
:1022C000012AE8D9524B00221A70534B01321A707E
:1022D000E1E7544B1878FFF769FC10BD514B1878B3
:1022E000002804D04B4B1878FFF760FCF5E7FFF7A8
:1022F0005DFCF2E74B4B1878002803D04A4B1B7863
:10230000002B02D1FFF752FCE7E7434B1878FFF7A9
:102310004DFCE2E7434B1878002803D0424B1B7872
:10232000002B06D100280AD03A4B1878FFF73EFC64
:10233000D3E73D4B1878C0B2FFF738FCCDE7FFF785
:1023400035FCCAE7374B1878002803D0364B1B788A
:10235000002B06D1002809D02E4B1878FFF726FC59
:10236000BBE72D4B1878FFF721FCB6E7FFF71EFC03
:10237000B3E72D4B1B78002B05D02B4B1878C0B240
:10238000FFF714FCA9E7274B1878FFF70FFCA4E729
:10239000254B1B78002B04D01F4B1878FFF706FC49
:1023A0009BE7204B1878FFF701FC96E71E4B1B7844
:1023B000002B08D11B4B187800280AD0154B187831
:1023C000FFF7F4FB89E7184B1878C0B2FFF7EEFB74
:1023D00083E7FFF7EBFB80E7134B1B78002B08D15B
:1023E000104B1878002809D00A4B1878FFF7DEFB4D
:1023F00073E7094B1878FFF7D9FB6EE7FFF7D6FBB9
:102400006BE7084B1878FFF7D1FB66E78F0F0020CA
:10241000870F00208E0F0020860F0020970F0020CE
:10242000645A0010980F0020A411002010B5754BBD
:102430001B78002B1DD0744B1B781433734A137018
:10244000724B1B78822B02D9704B82221A70704B10
:10245000F4221A706F4BAB3A1A706F4B1978282020
:10246000FFF76BFB6D4B18706D4B684A12781A7052
:1024700010BD654B18786B4B18706B4B1B78002B9D
:102480000ED16A4A1288002A0AD1604B32321A7081
:10249000674B1A70674B00221A80674B1A80CFE790
:1024A000002B6FD0614B1B88644A1288934219D26B
:1024B000634B04221A70634A1378591C1170042B61
:1024C000BED9524B1A785A4B1B789A4206D24F4BC0
:1024D00001321A705B4B00221A70B1E7544A013383
:1024E0001370F7E7544909888B4217D29B1A9B0057
:1024F000DBB2534A137053490A78501C0870934258
:102500009ED2424B1B784A4A1278934202D23F4AEB
:10251000013313704B4B00221A7091E74A4A12881C
:10252000934216D2D31A9B00DBB2454A1370454939
:102530000A78501C0870934200D381E7334B1B7814
:10254000282B02D9314A013B13703E4B00221A70EE
:1025500076E73B4B04221A703A4A1378591C1170E3
:10256000042B00D86CE7294B1B78282B06D9274A67
:10257000013B13702E4A1378013B1370314B00223C
:102580001A705DE72E4B0A221A702E4A1378591CD6
:1025900011700A2B00D853E72C4B1988002925D03D
:1025A0002A2903D9194A1378013B1370214A138849
:1025B0005C1C1480092B15D91D4A13780A3313703B
:1025C0001A4B1B88584301F047FF80B21A4B188002
:1025D0000200143A194B1A8014301B4B1880124B0E
:1025E00001221A70174B00221A7029E7104B1B7832
:1025F000772BF7D805490A7801320A700C4A013363
:102600001370EFE7820F0020391000203F060020F2
:1026100034060020320600202C060020780F00200F
:10262000900F00203B1000203A1000206A0E00207E
:102630003E060020660F0020640F0020620F00207D
:102640003710002038100020600F00206A0F002093
:1026500070B582B00500D74B43221A7098700328DA
:1026600000D144E143D8012800D1FBE202283CD14B
:10267000D14B00221A70D148C278D14B1A7002791E
:10268000D04B1A70437901221C001440CE490C70C3
:102690005C08144099081140CC4D2970DD081540A4
:1026A00019091140CA4E317059091140C94E317093
:1026B00099090A40C8490A70DB09C84A137083792E
:1026C000DBB2C74A1370C74A1278934228D1BB4B7A
:1026D000DA79C54B1A70002C4ED0C44B1B88452BA1
:1026E0004AD8C34B07221A705EE003250EE0042887
:1026F0000BD1C04B1A78AF4BDA7000221A71153229
:102700005A711E329A71072500E00325A94B5D70AE
:10271000B94B012252421A80B84B00221A70B4E21F
:10272000B04A1370B64A10786422504380B2000950
:10273000C6B2B4485843B44B198801F07DFE010974
:10274000C9B23000FFF7F9F90600B04B1870BB2092
:10275000704380B28F2101F06FFEFF231840AC4B15
:1027600018801B889BB2BB2B02D9A94BBB221A80B5
:102770003236A84B1E70AAE7002D11D09B4B1B8848
:102780005A2B0DD9954B1B78002B03D0A24A1278F7
:10279000002A01D1002B07D1954B06221A7003E0C5
:1027A000864B1A7A924B1A70002C02D19B4B002256
:1027B0001A70824B597A9A4A1170997AC9B2994A19
:1027C0001170DA7A984B1A70984B18881A78794BEE
:1027D000DA700009302202401A71954A12785A7153
:1027E000824A108812789A71000A07220240DA7130
:1027F000904A1278012002401A728F4A10784000E5
:102800001A7A0243D2B21A721A7A8C4804782401D6
:102810001020204002431A721A7A89480478640111
:102820002020204002431A721A7A86480478A401B4
:102830004020204002431A72834A12889208D2B282
:102840005A7201294AD0814B1A785A4B9A72804A9F
:102850001388DBB2574CE37213889B083F229343E3
:10286000DBB2E2791343E3717A4A13881278227358
:102870001B0A6373684B1B78A373774B1878642328
:102880005843FE2101F0E8FDC0B2E073734A13889B
:10289000127822741B0A6374714B1B78DBB2A37429
:1028A000544B1B78E3746F4B1B7823756E4A136887
:1028B000DBB2637513681B0ADBB2A37513681B0CCC
:1028C000DBB2E375694A1388127822761B0A6376B5
:1028D000674B1B78DBB2A3761B2517E7654B18887F
:1028E000093101F0A9FDC0B2324B9872AFE701F097
:1028F00065FA614B00261E703E4A137801210B4396
:1029000013705E4B02221A702B4B013A1A702B4C3B
:1029100023791B02E2789B189BB2594A13806420EA
:102920005843572101F088FD80B2564B18801B8810
:10293000643B554A1380A3791B0262799B18534A62
:102940001380E2792E4B1A70264B1E70237A0122D7
:10295000180010404E490870590811404D48017048
:10296000990811404C480170D90811404B4801703A
:10297000190911404A48017059091140494801702C
:102980009909DB09484803700A420FD1474B1D32B1
:102990001A700A4A937A5B0045490B80D47AE4B2F4
:1029A000444B1C70154B01221A7099E03F4B1E22BC
:1029B0001A70EEE7181000209A0F0020A80F0020D0
:1029C000A40F0020950F0020980F0020810F0020F9
:1029D0000610002011100020121000208D0F002082
:1029E0000C1000200D100020391000206A0F00206C
:1029F000A30F002038060020680E0020960F00204C
:102A00002E060020A0252600620E00202C060020A5
:102A1000180600202D060020A10F00203A100020EB
:102A200040060020A00F002013100020480E0020B8
:102A3000850F0020A4110020B111002004100020F7
:102A40003510002036100020621100200F100020E9
:102A500064110020520E0020AE1100206A0E0020EA
:102A6000AF1100209D0F002094110020500E002077
:102A7000981100206C0E002039060020990F0020CC
:102A8000600E0020440600205E0E00202606002076
:102A900009100020071000203D060020141000201F
:102AA000820F0020830F002037060020AA1100208B
:102AB000700E0020081000208B4B197801398B4ACA
:102AC0004900895A6143090A187801384000865A3A
:102AD0001878761A400016521A780132D2B21A705B
:102AE000814B1B78DBB2772BE6D9814C227B814B63
:102AF0001A70627B804B1A70A07BC0B218230093BF
:102B0000AA3364220021FEF7F0FF7C4B1870E07BB3
:102B1000C0B209230093403364220021FEF7E5FF91
:102B2000774B18703223E25CD2B2764B1A703323A3
:102B3000E15C754B19703423E15C744B19703523DB
:102B4000E15CC9B2724B19703623E35CDBB27148A9
:102B500003705B005B1ADBB29B1A6F4A137037235A
:102B6000E05CC0B2193B0093E13364220021FEF720
:102B7000BCFF6A4B18703923E25C694B1A7038232A
:102B8000E35CDBB24F2B05D8644BA5221A70644B73
:102B9000A33A1A70564C4D23E35C1B024C22A25CF4
:102BA0009B189BB25F4A138019001E395E4A118040
:102BB0001E335E4A13804F23E15C0902013BE35C54
:102BC000C91889B25A4B1980FA20400101F044FC1F
:102BD000584B18804C4B1B7864335801C018800048
:102BE000C018642101F038FC534B18805023E25C7C
:102BF00051084F3B19405148017092081340504A08
:102C0000137006D0454B1B78A42B02D8434BA5224A
:102C10001A704C4B414A12781A70354B5122985C0D
:102C200049490870995C494A11705222995C484A96
:102C3000117053229A5C474B1A70474B1B78002B3C
:102C40000CD02B4B54229B5CDBB2444A1370642B98
:102C500000D85BE5130064221A7057E53F4B002251
:102C60001A7053E53E4B1A783E4BDA7004254DE559
:102C70001D4C2378DBB23B4AD05CC0B23A49FEF728
:102C80007FFF23780133DBB22370174B1B78DBB255
:102C9000AB42EDD3344A13881178324A51556C1C3B
:102CA0001B0A1355314B00221A70314A8A235B00EC
:102CB000D3581B0E7F221A401E239B1A0235AB42AB
:102CC00004D22C4B00221A7002B070BD00239C422B
:102CD000F7DB244AD25CD2B22548C02149004250D9
:102CE0000133DBB2F3E7C046960F0020700E0020E0
:102CF000A80F00209F0F00209E0F00203506002007
:102D0000330600207B0F00207D0F0020790F00206C
:102D10007F0F0020800F00207A0F00203B0600204C
:102D200030060020560E002022060020200600203B
:102D3000580E00205A0E00205C0E0020940F002038
:102D4000890F00203C0600208A0F0020AA110020D5
:102D5000970F00203A060020830F0020840F0020E8
:102D60009A0F002018100020680E00209B0F0020F2
:102D700000020048A20F002070B52F4B1B78002BDB
:102D80003ED02E4B012252421A802D4B5D78EDB27F
:102D90002C4B00221A700CE02A4C2378DBB2284A14
:102DA000D05CC0B22549FEF7EBFE23780133DBB2DD
:102DB0002370244B1B78DBB2AB42EDD36A1C204B53
:102DC0009A5C12025B5D9B181C4A1288934207D0E2
:102DD000194B00221A701C4A13780133137013E048
:102DE000194B00221A70194B1B78002B02D1174B7C
:102DF00001321A70124B9878C0B2FFF729FC03E039
:102E0000114A1378013313700F4B1B78142B04D81D
:102E10000E4B1B78002B0BD070BD00F0CFFF0C4B7E
:102E200000221A700B4A137820210B431370EFE72E
:102E30000020FFF70DFCEFE7A20F0020660E002038
:102E4000A80F0020960F00208B0F0020990F002064
:102E5000390600203806002070B582B0204B188853
:102E6000C72807D91F4B18221A701F4B0F3A1A7028
:102E700002B070BD1D4E33788008C0B21825009591
:102E800032220A21FEF731FE164C20703378184AA0
:102E90001078009546221421FEF727FE23788342FE
:102EA00001D9104B1870134E33780D4A10888008E2
:102EB000C0B20925009532220A21FEF716FE0A4CFF
:102EC000207033780A4A1078009546221421FEF7C4
:102ED0000CFE23788342CBD9034B1870C8E7C04659
:102EE0006A0F00203406002032060020350600203C
:102EF000A10F00203306002010B5314B1C78314B58
:102F00001B78002B0ED0304B1B78002B0AD12F4B97
:102F10001A882F4B197878235B1A9A4202DD2A4BC4
:102F200001221A702B4B1B78002B3AD1264B1A78B2
:102F3000002A03D1284B1B78002B31D0234B198852
:102F4000264B1B784B43544363435B0A5801C01A1A
:102F50008000C018C000224B198801F06DFA84B2BD
:102F60002409FFF779FF1F4B1A78A2421CD21E4B8F
:102F70001A701E4B1B78002B19D01B4B1B78164A5E
:102F80001278934201D9144A1370174B124A1278DF
:102F90001A70154B1B78002B0DD0154BFE221A70A2
:102FA00010BDFEF711FEC1E70F4B1C70E1E70A4BA5
:102FB00000221A70EDE70E4B00221A70F0E7C046AF
:102FC000A40F0020830F0020A10F0020500E00202E
:102FD000840F002009100020051000203A06002070
:102FE000620E00202C060020780F00200610002022
:102FF000900F002070B5304B1B78002B4DD12F4B1C
:103000001B78002B0ED02E4B1B78002B0AD12D4B9A
:103010001A882D4B197878235B1A9A4202DD284BC7
:1030200001221A70294B1B78002B02D0244B01225D
:103030001A70244B1888002803D0214B1B78002BD2
:1030400003D1234B1B78002B26D0224B1B785843EF
:10305000782101F001FA040085B2FFF7FDFE1E4B56
:103060001A78AA421CD21D4B1A701D4B1B78002BDC
:1030700019D01A4B1B78164A1278934201D9144A78
:103080001370164B124A12781A70144B1B78002BCF
:103090000DD0144BFE221A7070BDFEF7CFFDAEE7C7
:1030A0000E4B1C70E1E70A4B00221A70EDE70D4B46
:1030B00000221A70F0E7C0463D060020830F002072
:1030C000A10F0020500E0020840F0020820F00204E
:1030D00005100020A40F00202C060020780F0020EF
:1030E00006100020900F002010B5194B1A78002A06
:1030F00026D0184B1B789B189B10174A1380174B30
:103100001B78A42B02D8154BA5221A70FEF796FD4A
:10311000124B134A12781A700F4B1C88114A1288EE
:103120001A80FFF799FE104B1A78A24209D20F4B72
:103130001A700E4B1B78002B06D00D4BFE221A7016
:1031400010BD0A4B1C70F4E7094B00221A70F7E718
:10315000A10F0020A40F0020500E00203B060020ED
:103160003C060020540E00202C060020780F002082
:10317000900F002070B53C4B1B78002B0ED03B4BC2
:103180001B78002B0AD13A4B1A883A4B19787823CE
:103190005B1A9A4202DD354B01221A70364B1B78BE
:1031A000002B02D0314B01221A70314B1C88002CAD
:1031B00003D02E4B1B78002B03D1304B1B78002BF8
:1031C00043D02F4B1B78142B07D8D801C01A80B2DC
:1031D0000A2101F031F92A4B1870294B1B785B004A
:1031E000FE214900C91A89B2264B1B78002B05D055
:1031F0001E4B1B788B4229D8C91A89B20A3189B271
:103200006443081901F018F9040085B2FFF724FEA1
:103210001D4B1A78AA421BD21C4B1A701C4B1B78F0
:10322000002B18D0194B1B78144A1278934201D9FD
:10323000124A1370154B114A12781A70134B1B78EF
:10324000002B0CD0134BFE221A7070BD0021D5E765
:103250000E4B1C70E2E7094B00221A70EEE70D4B93
:1032600000221A70F1E7C046830F0020A10F002052
:10327000500E0020840F0020820F00200510002037
:10328000A40F0020370600202C060020780F002015
:1032900006100020900F002070B53A4B1B78002BD1
:1032A00061D1394B1B78002B0ED0384B1B78002B8B
:1032B0000AD1374B1A88374B197878235B1A9A4210
:1032C00002DD324B01221A70334B1B78002B02D0E7
:1032D0002E4B01221A702D4B1D78002D03D12F4B40
:1032E0001B78002B3ED02A4B1C88002C06D02C4B80
:1032F00018786043782101F0AFF884B2294B1B782D
:103300006B43294A128853435B0A5801C01A800054
:10331000C018C000254B198801F08EF880B2000952
:10332000844200D20400FFF797FD214B1A78A24295
:103330001CD2204B1A70204B1B78002B19D01D4B30
:103340001B78164A1278934201D9144A1370194B0C
:10335000124A12781A70174B1B78002B0DD0174B9E
:10336000FE221A7070BDFEF769FC9AE7114B1C70C3
:10337000E1E70A4B00221A70EDE7104B00221A70A9
:10338000F0E7C0463D060020830F0020A10F00207B
:10339000500E0020840F0020820F00200510002016
:1033A000950F0020A40F00206E0E0020620E00205A
:1033B0002C060020780F002006100020900F00201F
:1033C000F0B583B0454B1B885A2B05D8462B79D9CD
:1033D000434A1278002A75D1414A1278002A10D047
:1033E0003F4900220A703F490A803F490A803F490D
:1033F000FA20400008803E490A803E490A803E4A41
:1034000013803D4A1088C01A82B200B2354B188032
:1034100036490B88D3181BB20B80FA2189008B42E6
:1034200052DD324B1980304B1988521A15B2304A8E
:103430001580188084002D4B0020185E02F0BEF924
:103440002E4A2F4B01F0C2FE06000F00200002F0B2
:10345000B5F932003B0001F059FB06000F0068008F
:103460004019400002F0AAF932003B0001F04EFB87
:1034700002F06EF900B21F4B188000282ADB1D4BAA
:1034800000229A5EFA239B009A4203DD194BFA222E
:1034900092001A801B4BF4221A701B4BAB3A1A7025
:1034A0001A4B1B4A12781A70124B0020185E8010BB
:1034B000C0B2FE2300930023FA220021FEF715FB81
:1034C000144B187003B0F0BD002BACDA074B002191
:1034D0001980A8E700221A80D1E7C0466A0F0020B1
:1034E000310600203E0E0020420E0020400E00203B
:1034F0003C0E00203A0E0020680F00203333333397
:103500003333E33F3406002032060020780F0020DA
:103510002C060020900F002030B583B03D4AC72311
:103520009B00D3589B109B059B0D3B4A13803B4B44
:103530001B78002B01D103B030BD10888008C0B2C9
:10354000FF2300930023B0222F21FEF7CEFA344B45
:103550001870344B1B78002B14D0334A1370334B44
:103560001B78002B06D0324B1B78002B02D12E4B40
:1035700000221A702C4B1878002810D12A4B0022F8
:103580001A70D8E72B4B1B78022B03D0264B002256
:103590001A70E4E70028F9D0234B1870DFE7264BB8
:1035A0001B7800930023FF220021FEF79EFA0400FF
:1035B0000500224B1B788342E0D2214B1888FE285D
:1035C0000FD9204B30221A701F4B273A1A701A4B12
:1035D0001B78AB421BD2194A13701C4BFE221A7087
:1035E000CCE7C0B230230093C433FF222821FEF77A
:1035F0007CFA144B1870124B18780923009340334F
:10360000FF222821FEF771FA0F4B1870DFE70B4BF2
:103610001C70E2E70008034862110020111000202E
:103620000F100020131000207E0F00201210002029
:10363000A10F0020A00F00202C060020780F0020F2
:103640006A0F00203406002032060020900F002070
:1036500010B5C44BC2221A70C34B793A1A70C34BCF
:1036600000221A70C24B1A70C24B1B78002B21D05B
:10367000C14B1B88F52B1DD9C04A1178C9B2C04A6D
:103680001278D2B2914215D2BE4A1278002A11D1D4
:103690000B33DBB2BC4A13705B09BC4A137013785E
:1036A000DBB2052B02D9130005221A70B84B012298
:1036B0001A7002E0B64B00221A70B64B1B78062B2C
:1036C00002D0B54A01211170B44A1278002A1DD1E6
:1036D000082B3BD89B00B24AD3589F46FFF70CFCFF
:1036E00034E0FFF787FC31E0FFF7FEFC2EE0FFF748
:1036F00041FD2BE0FFF7D0FD28E0FFF761FE25E05C
:10370000FEF794FE22E0FEF7D9FA1FE0A54B1A78E7
:10371000642353431B11DBB2944A13708F2B02D9DD
:1037200013008F221A70A04B1B78002B02D08F4BF6
:1037300000221A709D4B1B788D4A1370FD2B02D905
:103740001300FE221A709A4B32221A70994B1B7882
:10375000012B00D197E0022B00D09EE0FFF7DCFEAA
:10376000FEF708FC944B1B78022B00D19DE0032B45
:1037700000D1A0E0914B1B889BB2914A12889342E2
:1037800004D28D4B1B78042B00D1A8E08D4AC123B5
:103790009B00D3589BB29B08DBB28B4A12789A42AB
:1037A00002D28A4B40221A70894B1B78002B10D012
:1037B000864A1278002A00D19AE0864801780131C1
:1037C0000170844909788B4203D8774B19780A43F2
:1037D0001A706A4B1A789300D21853017E4A13600C
:1037E0007E4A11685B1813607D490A68013A0A60D5
:1037F000002A07D19B097B4A136040220A60774B5D
:1038000000221A60784B1B78002B12D1664B1B7874
:1038100078221A420DD1754A1278002A09D0744ACA
:103820001278002A05D0002B66D0724B1B78002B33
:1038300062D1714BC2221A70704BB93A1A70504B58
:1038400000221A706E4B1A70684B1B78002B00D147
:10385000E4E0554A1278782111420ED1464A128886
:10386000002A00D0DAE0414A1278002A00D0D5E0E0
:10387000644A1278002A00D0D0E05C4B00221A7013
:1038800000F09CFA10BDFEF7ABFC5F4B1B78002BE1
:1038900000D165E7FFF740FE62E75B4B1B78002B2A
:1038A00000D15DE7FFF738FE5AE7584B28221A701F
:1038B000414B253A1A70554B1B78002B03D0534AC5
:1038C000013B137056E73C4B04221A70504B023AEE
:1038D0001A70354A137801218B4313704AE7324A34
:1038E000137820210B4313704A4B01221A704DE7C5
:1038F00038490020087064E7474B1B788F2B02D9AA
:10390000454B8F221A70194B1A78434B1B789A42F9
:1039100001D9164A1370164B1B78FF2B1ED0114B82
:103920001B78172B02D80F4B18221A700E4B1B78DE
:10393000082B02D80C4B09221A700A4B1A782E4B0E
:103940001A70094B1A782D4B1A70084B1A780C4BC9
:103950001A70074B1A782A4B1A7075E7044BFE222F
:103960001A70DCE73406002032060020780F0020B1
:10397000900F0020940F00206A0E00209811002064
:10398000A51100207E0F0020930F0020AD11002014
:10399000A9110020A30F0020310600200E100020E6
:1039A000885A00102F060020380600203606002016
:1039B000A40F0020A00F0020990F00206611002006
:1039C0005E0E0020000403482D060020910F002009
:1039D00030060020920F0020740F00206C0F002092
:1039E00028060020700F0020A411002039060020B6
:1039F000810F0020820F0020500600204F0600207B
:103A0000A6110020AE11002013100020440E00204B
:103A10009A0F0020361000202C060020002B00D02A
:103A200030E70D4B1B889F2B00D92BE70B4B1B78E6
:103A3000002B00D126E70A4B1B78002B00D021E792
:103A4000084B01221A70084B1D321A70074B0022D6
:103A50001A7000F0EDF915E76A0E0020780F0020CB
:103A6000A411002039060020AE110020AC11002066
:103A700010B5374B1B889BB2364A934204D8344B5F
:103A80001B889BB2092B2AD8334B00221A80FEF7E1
:103A900033F9FEF73DFAFEF757F9304B187800017D
:103AA000142100F0D9FC2E4B18702E4B1888000101
:103AB000142100F0D1FC2C4B1870FEF78FFA2B4B21
:103AC0001A78511C197003231340022B3DD00FD8D4
:103AD000002B25D0012B25D1FEF7BCFB22E01C4B8F
:103AE000198889B2224800F0A7FC1B4B1880CEE74A
:103AF000032B17D1FEF744F91E4B1A781E4B5A7050
:103B00001E4A12789A701E4A1278DA701D4A12788C
:103B10001A711D4A12785A711C4A12789A7101E082
:103B2000FFF72AF9FFF794FD134B9978184A118093
:103B3000D978184A11801979174A11805979174A8A
:103B400011809A79164B1A8010BDFFF715F9E9E735
:103B50004C060020FFEF00006A0E002098110020A4
:103B6000850F0020601100209D0F00208C0F002089
:103B700090D00300481000209C1100204910002024
:103B80004A1000204B1000204C1000204D10002047
:103B9000300E0020320E0020340E0020360E0020A1
:103BA000380E00200AE0254A1370254B01221A70B6
:103BB00004E0562B20D9224B00221A70214A8A2376
:103BC0005B00D3581B0738D41F4B1B78002B34D114
:103BD0001C4A8E235B00D358DBB2194A1178CAB253
:103BE0000129E6D0022A0FD0002AE7D1592BDAD0DA
:103BF000134B00221A70E1E7104A5370134A1370F6
:103C00000F4B02221A70D9E7114A117802310B4882
:103C1000435413780133DBB213701278D2B20B4BDA
:103C20001B78DBB29A42C9D3094B00221A70044BAD
:103C30001A70054B01321A70C0E77047A80F0020B8
:103C40000B10002000020048A20F002001100020ED
:103C50000010002010B5454B00E0013B002BFCD1CB
:103C6000FDF714FF002800D001BEA021C9050B6894
:103C70003F4803408022920013430B603D490B688C
:103C800003401A430A60FDF7C1FA00F0D5F93A4B38
:103C900042221A70394B00241C7000F0ADF8384BEA
:103CA0001C70384B01229A60374B00E0013B002B1F
:103CB000FCD1364BC62292009858354908408021E5
:103CC000C9010143995080218904196098583149EC
:103CD00008408021C903014399508022D2041A6010
:103CE000A023DB050F22DA602B4A116B80235B00D7
:103CF0000B431363244B00E0013B002BFCD1274B0B
:103D00005A6801210A435A60254A9A60254B1B6F65
:103D10009BB2254A1380254A13800FE0FFF742FF2C
:103D200013E023490B6801330B60204B1A801E4BB4
:103D30001B88D31A9BB21F498B4211D8174B184AC4
:103D40009A601D4B1B78002BE8D0144B144A9A60E4
:103D5000144B1A6F92B2154B1B889342E7D9E0E7D8
:103D6000114B1A80FFF784FEE8E7C046804F12002F
:103D7000FFFCFFFF000004485C1100203C10002005
:103D80004106002000000150C0D4010000E100E025
:103D9000FF00FFFFFFFF00FF0000014000000240A6
:103DA000FECAADAB000204483E10002040100020C7
:103DB000441000206A180000A20F00200323034AC9
:103DC0001361034A1361034A1361704700010050F5
:103DD000000200500003005010B5054A137840213E
:103DE0000B431370034B00221A70FFF7E7FF10BD5F
:103DF000380600203906002070B500F046F80A4960
:103E00004A6A920801231340084A13704D6A02243B
:103E10002C40234313704C6AA400042121400B431F
:103E2000137000F036F870BD0001044058110020F6
:103E300010B5FFF7E1FF0D4B196B802252000A43CA
:103E40001A631A6B0A490A401A6309E0074B196B97
:103E5000802252000A431A631A6B05490A401A630A
:103E6000044B9B68DB07F1D510BDC0460000014044
:103E7000FFFEFFFF000100500230800803D0013830
:103E8000FDD1C046C046C0467047EFF3108072B601
:103E9000704780F310887047064B1A8980214901CA
:103EA0000A431A8148215A5A8020000102435A527B
:103EB0007047C0460000054010B50D4A13681B0A44
:103EC000FF210B400B480360126811400A4A116041
:103ED000002B08D01B02C918084800F0ADFA4000BA
:103EE000074B186010BD064B064A1A60FAE7C04639
:103EF00000030140BC110020B8110020000024F490
:103F0000FC3F00200048E80110B5FFF7C5FFFDF7B2
:103F1000AFFD10BD70470000F0B5C64600B58B0878
:103F2000984604339B001E5803250D40ED00F827EA
:103F3000AF40BE431E50436F4F000326BE40B34305
:103F40004367CB0810339B001F5807260E40B6006E
:103F50000424B440A7431F501F585478B44026008F
:103F60003E431E500D4B98420ED00023D356002BDB
:103F700010DB434604339B0019581278AA400A43C9
:103F80001A5080BCB846F0BD036E01268E40B34384
:103F90000366EAE753688B404360EAE700020440A7
:103FA00010B50C000DE0800808490B68084A134062
:103FB00002021343074A13430B60044B1B685B0068
:103FC000FBD4A3008342EED310BDC04600030140E2
:103FD000FF000FC00000F03F30B50C000EE00122E2
:103FE00090000A490B680A4D2B4092021343094A7C
:103FF00013430B60054B1B685B00FBD48300A3429B
:1040000003D20028EBD00200EAE730BD00030140F4
:10401000FF000FC00000F03F014BC3225A627047FF
:1040200000000140034BC0225A62024B5B6A5B07EF
:10403000FBD4704700000140034A938C01210B43DD
:104040009BB293847047C0460010014010B5040035
:10405000FFF7E8FF054B186920431861034B1B6805
:104060005B00FBD4FFF7D8FF10BDC0460003014042
:10407000034B9B6803405A1E9341D8B27047C04619
:104080000003014070B504000D00FFF7CBFF154B96
:104090001A68120AFF2010401968134A1140294378
:1040A000124A0A431A600F4B1B685B00FBD4A04204
:1040B00014D82100FFF790FF0A4A13680C490B40FF
:1040C00024021C43094B23431360064B1B685B000F
:1040D000FBD4FFF7A1FFFFF7EFFE70BD2100FFF754
:1040E0005FFFE9E70003014000FF0FC00000F03F61
:1040F000FF000FC010B50400FFF794FF074A1368D4
:1041000007490B40A1680B4361680B431360FFF73D
:1041100083FF60782178FFF7B5FF10BD00030140F1
:10412000FFFFF0FF014B18687047C046FC3F0020BE
:1041300010B5044B984200D010BD0420FFF786FF55
:10414000FAE7C0460000044870B505000C00FFF710
:10415000EFFF80235B00EB602B68034A1340A4034E
:104160001C432C6070BDC046FF3FFFFF03680A0C74
:1041700093430904090C1943016070470B684361BC
:104180004B799B06DB0F1B0543600B791B071B0F4D
:1041900043624B791B071B0F03624B79DB06DB0F76
:1041A00083610B791B09C36270470B6843614B79CC
:1041B000DB07DB0A43600B791B071B0F43620B799C
:1041C0001B09C3627047000010B543680324A34372
:1041D000194341604369012A03D0044A13404361F3
:1041E00010BD8022D2001343F9E7C046FFFBFFFF5A
:1041F0004368302293430901194341607047F0B589
:10420000C64600B54C1EE4B206686500EDB22F004C
:104210001037FFB203239846BB409C4633006646E6
:10422000B3439C465378BB40664633431531CFB207
:104230000121B9408B439178B94019431935EDB24A
:104240004646AE40B143D378AB400B43A100C9B260
:104250000F248C40A34312788A401343036080BC30
:10426000B846F0BD1C318900401840687047000016
:1042700030B50B291AD889000D4B5B589F46032592
:1042800000240DE0C0252D010A2409E0C025AD0061
:10429000082405E00C25022402E0C025AD010C2411
:1042A000A8214358AB43A2401A43425030BDC046F8
:1042B000B85C001010B5A023DB05984200D010BDFB
:1042C0000220FFF7C3FEFAE770B505000C00FFF708
:1042D000F1FF80235B00EB602B68034A1340A403CB
:1042E0001C432C6070BDC046FF3FFFFF01230361EC
:1042F0000B6843614B7BDB06DB0F1B0543600B7BCD
:104300001B071B0F43620B7B1B09C3624B7B1B0705
:104310001B0F03624B6883618B68142253408364D4
:10432000704703680A0C93430904090C19430160A0
:104330007047000010B543680324A343194341604C
:104340004369012A03D0044A1340436110BD80220F
:10435000D2001343F9E7C046FFFBFFFFF0B5C646A6
:1043600000B54C1EE4B206686500EDB22F001037B0
:10437000FFB203239846BB409C4633006646B343D6
:104380009C465378BB40664633431531CFB201217A
:10439000B9408B439178B94019431935EDB246467F
:1043A000AE40B143D378AB400B43A100C9B20F2458
:1043B0008C40A34312788A401343036080BCB84604
:1043C000F0BD41637047000030B50B291DD889004E
:1043D0000E4B5B589F460024032510E00A24C0259D
:1043E0002D010CE00824C025AD0008E00424302590
:1043F00005E002240C2502E00C24C025AD01A82113
:104400004358AB43A2401A43425030BDE85C001011
:104410004B6803658B6843650B68C364704710B5D0
:10442000436F490003248C40A3434367436F8A4092
:104430001343436710BD000010B5EFF3108272B64E
:10444000044B04245C6318625962986A82F31088F2
:1044500010BDC0460000034010B5EFF3108272B6E5
:10446000044B00245C6318625962986A82F31088D6
:1044700010BDC0460000034010B5044B984200D068
:1044800010BD8020FFF7E2FDFAE7C04600000150B2
:1044900070B504000D00FFF7EFFF0323E3602B6806
:1044A000236070BD03689B0705D103680A68134346
:1044B0000360002070470120FCE710B5436F103106
:1044C00001248C40A3438A401A43426710BD000078
:1044D000F8B504000E00170000F052F9357A002DEF
:1044E00000D11035002F07D03379002B26D031684A
:1044F0002A00200000F088F8F379013B5B006D088A
:1045000001352D022B43144A1343E3637379013BB6
:104510001B068122520013436363B379002B13D02F
:10452000626B013B1B0413436363A023DB00A363A3
:1045300001235B42E36473892364F8BD31682A0078
:10454000200000F00BF8D7E7626B7379013B1B0486
:1045500013436363E9E7C04601000300F0B5DE469C
:104560004F4680B583B083460C001500632941D9BE
:10457000002A01D101203EE0FFF7D4FD6421FFF7BE
:104580005BFF814664212000FFF756FF07001C4EA9
:10459000012301938023DB0000931C0000E0013C19
:1045A000002C12D03900694348466043FFF744FFAE
:1045B000830A8005800D8022D2009342EFD8864284
:1045C000EDD9060001930094E9E7009F013F8023A5
:1045D0001B023B435A46136153690A4A1340013D8B
:1045E000AD022B43019E013E360433435A465361CC
:1045F000002000E0012003B0C0BCBB46B146F0BDC6
:10460000FF030000EF8000FCF0B5DE4657464E4643
:104610004546E0B583B08046894617000192FFF712
:1046200081FD06004B465F43B8424ADD3900FFF783
:1046300013FF0400012506E001352900794330000D
:10464000FFF70AFF0400204B9C42F5D8019F390078
:10465000614369433000FFF7EFFE8346631C9A46CF
:104660003900594369433000FFF7E6FE4B46181AFC
:10467000C317C01858404B465A469B1ADA179B1866
:104680005340984200DBA2468022D2005346D21A01
:104690008023DB0113434246136153690B4A1340E5
:1046A000019F013FBF023B43013D2D042B43424686
:1046B0005361002003B0F0BCBB46B246A946A046F9
:1046C000F0BD0120F6E7C046FE030000EF8000FCCD
:1046D00070B504AC24784569094E3540002A0DD0E8
:1046E000102211431B0419430C43059B1B021C435E
:1046F000069B9B021C432C43446170BD0022F0E7E3
:104700002C8000FC70B584256D004459064E344061
:1047100044514459054E34401B020B4312061343C7
:104720001C43445170BDC046FFFFFFF8C0C0FFF8F6
:1047300070B586256D004459074E344044514459A4
:10474000064E34401B020B43120613431C438023C6
:104750005B052343435170BDFFFFFFF8C0C0FFEF6F
:1047600010B5064B984200D010BD0820FFF76EFC34
:104770000820FFF77DFC0028FAD1F5E70800004883
:1047800010B504009023DB0598420CD0084B9842EA
:1047900009D00323E360E368DB07FCD5236C0F2219
:1047A0009343236410BD0348FFF7DAFFF1E7C046E7
:1047B000000200480800004810B5034BFF221A60B1
:1047C0000120FFF743FC10BD0005014070B5040057
:1047D0000D00FFF7F1FF6B6923606A6880231B02FD
:1047E00013438022A350AA68A023E250EA6804334E
:1047F000E2502A69DD33FF33E2502A68C93BFF3BB0
:10480000E25070BDF0B5C64600B5002A19D1CA06FF
:10481000D20E90464905490F1F26E022D200944649
:104820000025082728339B001C5862469443B94052
:104830002143B1434246AA400A431A5080BCB846BD
:10484000F0BDCA02D20E90464901490FF826760300
:10485000E022D204944610251827E3E770B504003F
:104860000D00496800230022FFF7CCFF6968002390
:1048700001222000FFF7C6FFA968012300222000C3
:10488000FFF7C0FFA968012301222000FFF7BAFF4C
:104890002A698023E250EA683833E2502A685307D5
:1048A0005B0F9101890D09040B43F8214900635006
:1048B000D300DB0F1B071001800F8006034390001D
:1048C000C00F400703435200D20F920713436258B0
:1048D0001343802212061343635070BD10B580222B
:1048E00083580324A3431943815010BD10B58A4255
:1048F00000D90131C02283580324A34319438150B6
:1049000010BDC022835803218B43835070470000A1
:1049100030B50025002300E00133012B06D8094AF9
:104920009C00A2588242F7D11D00F5E78D4200D9C4
:104930000131C0240359033101228A40134303513A
:1049400030BDC046185D0010F0B5002309E0284ACC
:104950009C00A55884242A59264E32402A510133FE
:10496000DBB2012BF3D90B789B0702D10027002281
:1049700012E080273F01FAE71D4B9400E65884259A
:1049800074591D4B1C400B781B079B0F1B022343C4
:104990003B4373510132D2B2012AEDD94A68174B19
:1049A00013438022920083508B680122134381229B
:1049B000920083500A7803231340022B01D0002376
:1049C00012E081229200815880235B020B438350C6
:1049D000F5E7074A99008858842144588022D20478
:1049E000224342500133DBB2012BF2D9F0BDC04665
:1049F000185D0010FFFFFFFBFFFCFFFF0080800041
:104A000010B58423C258184C2240C250C458813B70
:104A10009C430A7813079B0F2343920701D0082277
:104A20001343842283504A68104B13438022520060
:104A300083508B68FF3A13430432FF3283500A7865
:104A400003231340022B06D08422815880235B0469
:104A50000B43835010BD82225200815880235B0299
:104A60000B438350F0E7C046FFFFFFFE00808080CD
:104A700070B5137B8826845901258D40AC438B404B
:104A8000234383510D23D356002B17DB012908D074
:104A9000002922D1B02403591F25AB4303510E0036
:104AA00005E0B02403590E4D2B400351803EB02544
:104AB00043590D241457B44023434351C824035988
:104AC00055682B4303510834035995682B43035110
:104AD0001368803189000B5070BD0026E7E7C0469F
:104AE000FFE0FFFF10B580208000FFF7AFFA10BD98
:104AF00010B50400FFF7F6FFA268034B5A60626826
:104B00001A6122685A6110BD00000240F0B54F469C
:104B10004646D6460400C0B51F000B0310004E00E9
:104B20005B0ACD0F610F7A001943E3003C03FF0FCE
:104B3000BC46640A470F2743760D520DC000B946A4
:104B40008046B71A654500D19BE0002F00DC84E069
:104B5000002A00D1BEE0C84A964200D124E180225A
:104B60004C4612041443A146382F00DD67E11F2F85
:104B700000DDD6E120224C46D21B9440A24644469A
:104B8000FC4020005446044340469040421E904161
:104B90004A46FA400443891A1C1BA34292415242DE
:104BA0008B1A9A4653461B0200D4D4E053465A024D
:104BB000530A9A465346002B00D104E1504600F0B8
:104BC0002DFE0300083B20222000D21A5146D0407F
:104BD000994002009C400A43B34200DA02E19B1B69
:104BE000591C1F2900DDA7E02023100026005B1AB6
:104BF0009C409840CE40CA40631E9C413043924640
:104C000000260443630709D00F232340042B05D05B
:104C1000231DA342A4416442A2441C0053461B022C
:104C200000D49BE0944B01369E4200D1B8E053463D
:104C30009249E4080B4019005B07234372054C02BC
:104C4000240B520D1205ED0722432A4318001100D0
:104C5000E0BCBA46B146A846F0BD002F48D0971B2D
:104C6000002E00D00EE10C001C4300D1B7E17C1EE9
:104C7000012F00D126E2804DAF4200D1D5E12700BF
:104C800007E1002F00DCB2E0002A47D07A4A9642C2
:104C900000D189E080224C4612041443A146382FEB
:104CA0006BDC1F2F00DC6EE13A004846203AD04012
:104CB0008446202F07D040224846D21B9040020055
:104CC0004046104380464046421E904162460400E2
:104CD000144357E04A46024300D103E17A1E012FF4
:104CE00000D193E1644CA74200D18AE117003BE771
:104CF000634C721C224200D0E0E00A001A43002EEE
:104D000000D074E1002A00D1D0E14A46024300D02D
:104D1000E3E14A07DB081343C90829E04A46024396
:104D200000D17DE17A1E012F00D1E0E0524CA74274
:104D300000D166E11700B2E710001F3BD8402029E0
:104D400003D040235B1A9A401443631E9C41002306
:104D500000269A460443630700D055E75246E3080D
:104D60005207134352463700D108434A97421FD097
:104D700009037A050C0B520D64E742464C46144376
:104D8000621E9441E4189C429241524292468A44E7
:104D900053461B02DFD5384B01369E4200D0B3E0AC
:104DA0003200002400234DE74A07DB081343C908FB
:104DB0001A000A4300D100E2802424030C43240398
:104DC0002D4A240B3EE7200000F028FD0300183395
:104DD0001F2B00DCF7E62200083882400024B34293
:104DE00000DBFCE6F61A254B1A4092460AE7002F34
:104DF0002BD0971B002E00D1B8E01F4CA24200D14F
:104E00001CE1802424042143382F00DD1EE11F2FE4
:104E100000DD9EE120260C00F61B1800B340B440D4
:104E2000F8405E1EB341F94004431C4389444444A6
:104E300044459B415B424B449A461600A8E74246D4
:104E40004C461443621E9441A6E60D4C721C22424D
:104E500000D0A8E00A001A43002E00D00AE1002A80
:104E600000D15EE14A46024300D061E14A07DB0817
:104E70001343C9087CE7C046FF070000FFFF7FFF20
:104E8000FE070000CF4CA24200D1CEE080242404D3
:104E90002143382F5BDC1F2F00DDDCE020250C00D8
:104EA000ED1B1E00AB40AC40FE405D1EAB413443E9
:104EB000F9401C434B465B1A99464CE04A461C1A83
:104EC000881AA34292415242924602005046121A58
:104ED0009246120278D45346234300D06AE600215A
:104EE000002545E74A07DB081343C9083DE71C18BE
:104EF0009C429B4149448A465B429A445346012660
:104F00001B0200D427E702265246AF4B01211A406C
:104F10001300214062080A43DC075B089A461443E9
:104F200070E63A004C46203AD440A446202F07D0E1
:104F300040224846D21B9040020040461043804623
:104F40004046421E904162460400144324E6194341
:104F50000C00631E9C4143461C1BA0459B414946D7
:104F60005B42CB1A9A46654616001BE60C001C43B2
:104F700000D1C7E07C1E012F00D1F9E0914EB7426D
:104F80005CD0270040E720224C464046D21B94408C
:104F9000F840044340469040421E90414A46FA4041
:104FA00004438918EEE6874CA24200D1F9E61818AE
:104FB00098429B4149445B42CB18DC0740085B08A0
:104FC0009A4616000443C6E64246D41AA0458041DC
:104FD0004B464042591A0B1A9A466546EAE54B463B
:104FE0004A46C0085B0765460343D108BDE6002A70
:104FF00000D08EE04B46034317D1802100250903E2
:10500000DAE64A07DB081343C908D1E61C1A4A4608
:10501000A3429B41891A5B42CB1A9A460126C1E5FD
:105020004A07DB081343C9089FE64346D8084B46A6
:105030004A465B0765460343D108B9E64346D808AC
:105040004B464A465B070343D108B1E619430C00BF
:10505000631E9C41EBE63C000D00203CE540202F08
:1050600003D04024E41BA1400B431C00631E9C4161
:105070002C4370E7002AE1D04A460243C1D04A07D8
:10508000DB0813438022C9081203114208D04846A6
:10509000C408144204D143462100DB0842071343ED
:1050A0005A0FDB005207DB08134381E64B460343EC
:1050B00000D114E74B464A46C0085B0765460343E8
:1050C000D10855E6C41AA04580414B464042591AC2
:1050D0000B1A9A466546012664E51C1A4A46A34205
:1050E00080418A1A4042121A9246120249D542461B
:1050F000D41AA04580414B464042591A0B1A9A4691
:1051000065467FE54B464A46C0085B070343D10826
:105110002BE64A46DB08024338D14A071343C90845
:1051200046E64B464A46C0085B070343D1081FE6E4
:105130001C189C429B4149448A465B429A44534610
:105140001B0200D407E652461F4B01261A40924626
:1051500001E63C000E00203CE640202F03D0402416
:10516000E41BA1400B431C00631E9C4134435EE6DC
:1051700043448342804149448A4640421C00824461
:10518000BCE65346234300D1A9E6E4E54A071343AE
:105190008022C9081203114209D04846C4081442AB
:1051A00005D1434665462100DB08420713435A0FE9
:1051B000DB00DB0852071343FAE50023014A1C0019
:1051C00040E5C046FF070000FFFF7FFFF0B5454602
:1051D000DE4657464E46E0B51F000B031B0B9B46B1
:1051E0004D00CB0F04009146984687B06D0D00D15D
:1051F000CDE1CE4B9D4200D1E9E15A46430FD200AA
:105200001343802212041A43C3009A46C84B9346A4
:105210009C4600230026654400933C037B004846DF
:10522000240B5B0DFF0F002B00D189E1BF4A934295
:1052300019D0420FE4002243802424041443BC4AC2
:1052400000219446424663445B190193019B7A40D6
:105250000133C000D2B202930A2E1CDD3A000B2E9D
:105260005ED0474656E04946B04B2143EB180193C8
:1052700000292AD18020022200012B0084461643F7
:10528000424663447A40D2B202930A2E00DD31E2F4
:10529000002000240221022E26DC013E012E52D8DD
:1052A00002294CD0012900D018E100230024002558
:1052B0001B052343D20713432800190007B0F0BC95
:1052C000BB46B246A946A046F0BD80210322090193
:1052D0002B008C461643424663447A40D2B2029376
:1052E0000A2E00DD28E203210125B540AC46A626A2
:1052F0006346F600354033420BD19026B600334268
:1053000018D1B93EFF3E1E421DD0A34682460091F1
:1053100000E0170000993A00022910D05C46504680
:105320000329BFD180231B031C43240305007F4BAB
:10533000240BBDE7802400227C4B2403B8E7002423
:1053400000257A4BB4E753461E04360C1F0C33007D
:10535000010C0004000C4343984603007B4399462C
:1053600033004B439C4643460D001B0C9A467D433D
:10537000CC44D4440095E14504D980235B0299468E
:105380004D44009563461B0C1D0063461B049C4660
:1053900043461B041B0C9846634643440393230C6B
:1053A000984633002404240C63439C4623007B432B
:1053B000994643465E435F434E446346B2461E0CE5
:1053C0005644B14503D980235B0299464F44330CC0
:1053D00099463B004B4405936346AC461F043F0C83
:1053E0003604F619B444634604935B461B0C9C4692
:1053F0005B461F043F0C3B004343994663464343CF
:105400009A464B4660461B0C9B46484379435144A1
:1054100059448A4503D980235B029A4650440B0CB9
:105420009A464B461B041B0C99463B0063430904F8
:1054300045464944994663465C436B439C464B460C
:105440001B0C98466F433F1947445044BC4203D954
:1054500080235B029846C444049B009D98464544C3
:10546000B542B641734298464B461E04059B3C0428
:105470009946360CA4194C44A14683466E18C14483
:105480008E428941CB445D4649426D189C42A441FD
:10549000C1459B41834580418D4289415B426442C5
:1054A0001C434042039B4942014370023F0C184396
:1054B000E419471EB84164186444F60D6102304394
:1054C000EC0D6E020C433043C90100D4F1E0012120
:1054D000430801400B43E007184364081549029B49
:1054E0008C466344002B00DC97E0410709D00F2174
:1054F0000140042905D0011D814280414042241809
:105500000800E10106D58021C9008C460A4B1C40E9
:10551000029B634409498B4200DD10E76107C5081F
:1055200064025B050D43240B5B0DC1E6FF07000021
:1055300001FCFFFFFF030000FFFFFFFEFE0700006E
:105540004B46234359D0002C00D1A3E0200000F0AB
:1055500065F9010003000B391D22521A4946180053
:10556000D1404A4608388240844010000C43744AB7
:10557000EB1A9446424663440193019B7A400133FF
:105580000021D2B202930A2E00DD67E683E65B4675
:1055900003439A462AD05B46002B6DD0584600F054
:1055A0003DF9010003000B391D22521A2100180099
:1055B0005D46D140083885400A0084402A4393461E
:1055C000A2465F4D0026ED1A0023009325E65B46B8
:1055D00003439A4605D100239B46023308260093D5
:1055E0001BE6032382460C26009316E600239B4607
:1055F00001330426002500930FE64246013301954E
:105600001E43019B7A400133002400200121D2B2C5
:1056100002930A2E00DD21E63DE60121C91A382950
:1056200000DD42E61F2947DD1F2625007642F31ADA
:10563000DD402B00202905D04249029D8C4665445F
:10564000AC402043411E8841184307231D0000241D
:10565000054003424AD00F2300240340042B42D0CC
:10566000031D8342804140422418180023023AD58A
:105670000123002400251BE600F0D0F80100030000
:10568000153120331C298FDD0838002284409246D2
:10569000A34696E700F0C2F801000300153120335D
:1056A0001C2900DC58E702004C46083A00209440D0
:1056B0005DE7019B029311E7234B26009C46030004
:1056C000029DCB406544AE401E430300AB40581ED4
:1056D000834130001843CC404307C7D00F23034019
:1056E000042BBDD1C2E765076402240BC008002368
:1056F0000543DDE5002502230F2E0CD180245B46F7
:10570000240323420ED021420CD10C4324033A003F
:105710000E4B240BCCE50B2E00D0A2E58B46AA46FF
:105720000093F7E580245B4624031C432403424690
:105730005546064B240BBBE54D4621000323DBE712
:105740000DFCFFFF3E0400001E040000FF070000E8
:105750000A0030B5134C530009030500090B002063
:105760005B0DD20FA34204DD0F48834202DD0F4BD5
:10577000D01830BD8020400301430D48C01A1F28B7
:1057800008DD0C48C31AD9400B005842002AF0D15A
:105790001800EEE7084CC540A446634499400B004E
:1057A0002B43F2E7FE0300001D040000FFFFFF7F14
:1057B0003304000013040000EDFBFFFF70B5002868
:1057C00016D0C317C5185D40C40F280000F026F896
:1057D000114B1B1A0A2816DC02002E0015329640C7
:1057E0000B22121AD5405B052D032D0B5B0D03E038
:1057F00000240023002500261B052B43E407234338
:105800003000190070BD0B3885405B052D03002664
:105810002D0B5B0DF0E7C0461E0400001C21012388
:105820001B04984201D3000C10391B0A984201D383
:10583000000A08391B09984201D30009043902A261
:10584000105C40187047C0460403020201010101C8
:10585000000000000000000070B500260C4C0D4D4B
:10586000641BA410A64209D10026FEF753FB0A4C84
:105870000A4D641BA410A64205D170BDB300EB58BD
:1058800098470136EEE7B300EB5898470136F2E748
:1058900060060020600600206006002060060020F0
:1058A000004B000000080801100000000600000086
:1058B000F0000000040100000001000000000000F2
:1058C000100000000000007000100000F800000050
:1058D0000D010000000100000000000005000000B4
:1058E0000000000002000000F00000000D000000B9
:1058F00078780000000000000701000000000000B0
:105900000000000005000000000000000200000090
:10591000F00000000D00000078780000000000009A
:10592000070100000000000000000000050000006A
:105930000000000002000000F00000000D00000068
:10594000787800000000000007010000000000005F
:105950000000000001000040000000000000000006
:10596000F00000000701000000000000000000003F
:1059700000000000F0100000000000000000000027
:1059800000000000F4010000000000000001000021
:105990000000000000000000000000000000000007
:1059A00000000000000000000000000000000000F7
:1059B00000000000000000001000000000000000D7
:1059C000B80000000000010010000000000000000E
:1059D00008000000000000000800000000000000B7
:1059E000080000000000000010000000000000009F
:1059F000100000000000000008000000000000008F
:105A00008000000000000100A8000000000001006C
:105A1000A800000000000100B80000000000010024
:105A2000B800000000000100A80000000000010014
:105A3000A80000000000010090000000000001002C
:105A40000000000000000000000000000000000056
:105A500080000000000001000001000000000100C3
:105A600000000000D2220010DC220010F4220010FE
:105A70001423001044230010722300109023001000
:105A8000AC230010D82300104C370010DC36001077
:105A9000E2360010E8360010EE360010F436001042
:105AA000FA36001000370010063700100303060214
:105AB000050104011E06280632063B0644064C0674
:105AC00054065B06620668066E06730678067D0657
:105AD0008106840687068A068C068D068E068E064B
:105AE0008E068E068D068B06890686068306800640
:105AF0007B06770672066C06660660065906510636
:105B00004906410638062F0625061406F405D50574
:105B1000B50594057405530531050F05ED04CB0457
:105B2000A9048604630440041D04FA03D603B303E6
:105B30008F036C03480324030103DD02BA029602BB
:105B4000730250022D020A02E701C501A30181017F
:105B50005F013D011C01FC00DB00BB009C007C00E0
:105B60006B00610058004F0047003F0037003000D5
:105B70002A0024001E001900150010000D000A0064
:105B800007000500030002000200020002000300FB
:105B90000400060009000C000F00130018001D008F
:105BA000220028002E0035003C0044004C00550027
:105BB0005E006800720068005E0055004C00440002
:105BC0003C0035002E00280022001D0018001300A4
:105BD0000F000C0009000600040003000200020090
:105BE000020002000300050007000A000D0010007B
:105BF000150019001E0024002A00300037003F0065
:105C000047004F00580061006B007C009C00BB0007
:105C1000DB00FC001C013D015F018101A301C50106
:105C2000E7010A022D02500273029602BA02DD0257
:105C30000103240348036C038F03B303D603FA0361
:105C40001D04400463048604A904CB04ED040F057D
:105C50003105530574059405B505D505F4051406FD
:105C600025062F06380641064906510659066006E4
:105C700066066C06720677067B0680068306860635
:105C800089068B068D068E068E068E068E068D067E
:105C90008C068A068706840681067D0678067306CA
:105CA0006E06680662065B0654064C0644063B0612
:105CB00032062806010300027E4200107E420010D8
:105CC0009442001094420010AC420010AC4200100C
:105CD000AC420010AC4200108C4200108442001014
:105CE0009A4200109A420010D6430010D64300108A
:105CF000F2430010F2430010EC430010EC4300109C
:105D00000A4400100A440010E4430010DC43001071
:105D1000F8430010F843001000040348000803484B
:105D20002C48874600000000000000000000000032
:105D30000000000000000000000000000000000063
:105D400025488746000000000000000023488746E1
:105D50002348874623488746234887462348874663
:105D60002348874623488746234887462348874653
:105D7000234887460000000022488746224887467D
:105D80002248874622488746224887462248874637
:105D90002248874622488746224887462248874627
:105DA0002248874622488746224887462248874617
:105DB0002248874622488746224887462248874607
:105DC0002248874622488746000000000000000065
:105DD00020488746A3100010A3100010A310001045
:105DE000A3100010A3100010A3100010A3100010A7
:105DF000A3100010A3100010A3100010A310001097
:105E0000A3100010A3100010A3100010A310001086
:105E1000A3100010A3100010A3100010A310001076
:105E2000A3100010D93D0010A3100010A310001003
:105E3000A3100010A3100010A3100010A310001056
:105E4000A310001061060020B5090020A310001067
:085E5000A3100010A3100010C4
:105E580000000700000000000000000000FF000034
:105E680000000700000000000000000000FF000024
:105E780040020600000000000100000000FF0000D2
:105E8800000000000000000000000000000000000A
:105E980000000000080000000000000000000000F2
:105EA80000000000000300000000010000000000E6
:105EB80000000000000100000000000001000100D7
:105EC80000000000000000000000000000040000C6
:105ED80000000000000000000003000000040100B2
:105EE80000000000000000000004000000000000A6
:105EF8000100010000000000000000000000000098
:105F0800A0000000210000000D000000004F040068
:105F18000400000000000000000F04003000000032
:105F2800BB00960096009600B4007800AE100208F8
:105F3800400000008FC10A0202014949C2C296010D
:105F4800010143A5A501282819074803580148035A
:105F58004803AE10FFFF0549C20E000000186B424F
:085F6800C3EB980004000000E7
:105F7000F0B5D6464F464646C0B5AA48056FADB205
:105F8000012100F0D5FB86B2A74A80235B00D258DE
:105F90005211F93B1340A5490B70A54A1370AD1B74
:105FA000ABB29A46A34AC1239B00D358DB00A24A56
:105FB0001340A24A1360A2480268D2180260A148A6
:105FC000026801320260A048026894469F4A644613
:105FD000A400A046A458A1469D4F3C684D46641BB2
:105FE0003C604546AB50E4183C60634601333F22B9
:105FF000134003602034A411964B1C600F78964B1D
:106000001B789F4200D1CEE0944AD35C9F4200D1DE
:1060100093E0934A00231370924A1370924A1360DC
:10602000924A1388013313808B4B1F70904BDA5DBB
:10603000904B1A70904B1B685B09DBB28F4A137050
:106040006409E4B21470864B1B78002B0ED08C4B85
:106050001B7853448B4A1278D218834B1B685343E6
:1060600080221202944663441B0CDBB2814A1278F0
:106070009B18DBB2844A1278D318DBB2834A1278B9
:106080009B18DBB21A00553AD2B281495200525ADB
:1060900080490A80D22189008A4200D89DE07E4949
:1060A0008C4662447D4909784A431212D221890004
:1060B0008C46624492B27A490A80754A59008A5ADB
:1060C00074490A80D22189008A4200D891E072493D
:1060D0008C466244714909784A431212D2218900E0
:1060E0008C46624492B26F490A805533DBB2684AEB
:1060F0005B009B5A674A1380D2229200934200D8D9
:1061000083E0654A94466344644A127853431B1201
:10611000D2229200944663449BB2634A1380634A3E
:10612000C6239B00D3589B109B059B0D604A138090
:10613000E0BCBA46B146A846F0BD012F18D0032FE7
:1061400000D071E75B4B01221A70454B1B78802B06
:1061500000D069E73A4E3B4B98461968306800F02A
:10616000D7FA454B186000233360424613605BE763
:106170003C4B1B78002B10D04F4B1B88F31A9BB263
:106180004E4A1380118889B28020400400F0C0FA82
:10619000354B1860324B80221A70324B01221A7034
:1061A000454B1E8040E7464B9A4500D842E72C4AB3
:1061B00000231370344A13702A4A13702A4A13605A
:1061C0003E4A0121494211801C4A11682A4A116045
:1061D0001B4A13601B4A13602CE7D22189008A1ADC
:1061E0002E48007842431212891A89B22C4A118033
:1061F00063E7D22189008A1A2848007842431212A4
:10620000891A89B2274A11806FE7D2229200D31AE5
:10621000224909784B431B12D21A92B2224B1A80A0
:106220007DE7C046000204480000015058110020DC
:10623000B111002000040348F8FF07007C11002082
:1062400080110020841100205011002050100020E7
:10625000541100208811002041060020AC5A001083
:10626000B2110020B0110020901100205A1100201E
:1062700054060020B31100208C110020981100203A
:10628000AC11002051060020AF1100205C1100204D
:10629000B45A001072110020B8FCFFFFAE110020AC
:1062A0004206002046060020480600200008034859
:1062B00066110020AB1100205E1100204C0600206A
:1062C0008D20000010B5C94B1B889BB2C84AD36310
:1062D000C84B1B889BB2C84AD363C84B1B889BB270
:1062E000C74AD363A023DB051222FF321A61C54BD4
:1062F0001B78002B30D0C34B1B78DBB20A2B26D97E
:10630000C14B18780002BF4B1978C9B200F008FAE7
:1063100080B2BE4B1880BE4B1B78002B21D0BA4BED
:106320001B78BA4A1288D2185210BA4B1B785343C2
:1063300080331B12DBB2B64A13700D2B02D9130047
:106340000D221A70B24B1A78B34B1A7009E0AE4B9B
:106350001B78AE4A1380DEE7AC4B00221A80AE4BAE
:106360001A70AB4B00221A70AC4B5A6A920A012386
:1063700013405A425341DBB2A94A1370A94B1A7811
:10638000D2B2A04B1B78DBB29A421CD3A64B1A7830
:10639000D2B29D4B1B78DBB29A4214D39B4B1A8826
:1063A00092B2A24B1B889BB29A420CD8A04B1A887F
:1063B00092B2A04B1B889BB29A4204D3984B1B7895
:1063C000002B00D18FE09C4B00221A709B4A13785F
:1063D0000133DBB213709A4A1278D2B293420CD9CD
:1063E000964B00221A70974B1B78002B00D16BE064
:1063F000944A1378013BDBB21370884B5A6A120936
:1064000001231340904A128892B2002A00D1CAE0B8
:106410008D4A1288D2088D490A808D4A1278002A46
:1064200006D08C4908888949098889B288420DD9E3
:1064300089490978994209D087490B70002B05D00A
:10644000002A00D0B3E0824B01321A70804B1B78D7
:10645000002B08D07F4B1B88804A934200D9BCE0B8
:106460007C4A013313806D494B6A5B09012213405A
:10647000496A490B0A4052001343794A12789A42FA
:106480000FD07849C95C8A4200D103E1764A0021E5
:106490001180764A05311170754A00211180704AC9
:1064A0001370734A138801339BB21380714A1288A8
:1064B000934200D813E16C4B00221A806C4B1A8077
:1064C0006A4B05321A7010BD4E4B1B78002B00D161
:1064D00093E74C4A1378013BDBB21370664A13888A
:1064E0000133138089E74F4B1A78D2B2454B1B78A2
:1064F000DBB29A4228D94C4B1A78D2B2424B1B7865
:10650000DBB29A4220D94D4B00221A704A4A1378C6
:106510000133DBB21370594A1278D2B2934200D8D9
:106520006BE7454B00221A70364B1B78DBB2FD2B14
:1065300000D962E7334A13780133DBB21370504A53
:1065400013880133138058E74E4B1B78002B04D07F
:106550002C4B1B78DBB2FE2B05D0374B00221A7078
:10656000364B1A7049E7354B00221A70324A1378BD
:106570000133DBB21370414A1278D2B2934200D891
:106580003BE72D4B00221A702E4B1A78D2B23E4BAD
:106590001B78DBB29A4200D32FE72A4A13780133E3
:1065A000DBB2137029E7294A3849118035E7294BB6
:1065B0001B88A32B07D8244B00221A80254B1A8056
:1065C000234B1A7042E7204A1380224B00221A8084
:1065D0002F4A13680133136038E71B4B00221A80DF
:1065E0001C4B1A801A4B1A703DE7C0464206002029
:1065F000000100504606002000020050480600201E
:1066000000030050AE1100209811002060110020FE
:10661000AB110020AA110020AF110020000004409F
:10662000A4110020A6110020A511002018060020AA
:106630006611002044060020A8110020A7110020A8
:106640004F060020AC1100207411002078110020AA
:10665000B511002076110020B4110020F99B000034
:106660005C060020B45C00106A1100204E06002079
:106670006C1100204A0600206E11002050060020F8
:1066800070110020A9110020AD1100207F1300001F
:1066900094110020174A128817490A80174909786F
:1066A00099420BD0052914D0154A128892B2002ABB
:1066B00000D0F1E6124A13491180EDE612490C8828
:1066C0000F480480002008800B49AC32FF320A805A
:1066D000E2E60A4A13700C4A00211180DCE6074BFF
:1066E0001B78052B00D1EEE6074A1388013313808F
:1066F000E9E6C046240600204A0600204E06002097
:106700006A110020C21D0000681100200000000076
:1067100001B40248844601BC604700BF3944001000
:1067200001B40248844601BC604700BF59440010D0
:1067300001B40248844601BC604700BF65420010B6
:0400000510001019BE
:00000001FF
