:020000041000EA
:10100000480500201910001000000000A310001077
:1010100000040100000100001249134A134B00F0C4
:101020001AF8134880471349134A144B00F013F879
:101030001349144A144B00F00EF81449144A0020C6
:10104000521A02DD043A8850FCDC124880471248EC
:101050008047124880479B1A03DD043BC858D05094
:10106000FBDC70478C7700100C000020440100204E
:10107000994B0010C4780010480500208C06002011
:10108000087A0010900600208018002080180020A8
:101090000C370020A110001039700010013E001024
:1010A0007047FEE730B5204A002313601F4A1360E3
:1010B0001F4A13601F4A13601F4A13701F4A1370A0
:1010C0001F4A012111701F4A13601F4A13601F4AF3
:1010D00013601F4A13601F4C23601F4C23601F4C7A
:1010E000236014681E4A14601E4AC82464001460F9
:1010F0001D4A11601D4A1588ADB21D4C25601D4A60
:101100001278521922601C4D2D68521922601B4D15
:101110002D68521922601A4A11801A4A13801A4BFC
:1011200018601A4B196030BD84180020DC1E0020A6
:10113000342500208C2B0020EC31002008320020C8
:1011400009320020F4310020F0310020103200205C
:101150000C3200201432002018320020E43100202C
:10116000FC310020F8310020203200204E05002004
:10117000243200204C050020801800204805002063
:10118000003200200232002004320020E83100202A
:1011900010B582B06B46354ADA80354B354A1A6055
:1011A000354B0121C0225200995080201A58334CEF
:1011B00022401A50802212023148026031480260F7
:1011C000812292009950304A84238021C904D15051
:1011D0001DE0294981229200885880239B00034307
:1011E0008B50294AFC235B00D358002BF9D0C02335
:1011F0009B00D358009380231B02214A1360214A8D
:1012000013606B469A1DDB88013B9BB213806B46D3
:1012100006331B889BB2002BDBD1009B002300937D
:1012200005E080231B02164A1360164A1360174B11
:101230001B6C1B0FF5D1104B80215858C022920215
:1012400002435A5000228531FF315A5084395A5096
:101250000D4B9532FF328039FF39995083315A58FE
:101260000B4802405A5002B010BDC0465046000024
:10127000BC4003480004103F00000348FFFFFC7F10
:10128000E0400348E44003480004034800400348AA
:10129000FFFFFFFB00B583B00023124A1360124A20
:1012A00013600321114804F05BF91149802288582A
:1012B000104B03438B501423019308E0019B013B27
:1012C000019380231B02074A1360074A1360019BA6
:1012D000002BF3D1FFF75CFF0021044804F040F934
:1012E00003B000BDE0400348E44003480004034865
:1012F000000003480000018070B584B05249534893
:1013000004F0A6F85249534D280004F0E9F8524978
:10131000524C200004F0E4F80321280004F020F9E6
:101320000321200004F01CF9FFF7B4FF4C49200012
:1013300004F04CF982225200A1588023DB000B43B9
:10134000A350464A84235B00D3589B06F9D514006A
:1013500082256D0053590326B3435351535901223B
:10136000134363513F4B1A6888235B00E2503E4AA7
:101370001268E2503D4A1268E2503D4A1268E2505B
:101380003C4A0021200004F059F93B4A0121200089
:1013900004F054F9394A0721200004F04FF9384A83
:1013A0000621200004F04AF901AC0C2200212000A3
:1013B00005F03AFE2378B343012213432370DBB2D6
:1013C0000C2213432370234E2100300004F0FEF85A
:1013D00072598023DB00134373511E4A84235B0040
:1013E000D3589B06F9D5140088235B002022E250D5
:1013F0000132E2500632E250224A0021200004F07D
:101400001DF9214A0121200004F018F91F4A072183
:10141000200004F013F900220121200004F0A8F8B4
:101420000021200004F0B6F80C4D280004F0ABF8C1
:101430008423E158802252041143E150E9580A43C1
:10144000EA5004B070BDC0465005002000000348BB
:101450009805002000040348EC050020000803481C
:1014600010060020000600200406002008060020C8
:101470000C060020AC050020BC050020CC05002097
:10148000DC05002068050020780500208805002084
:1014900010B500F007F800F029FA10BD10B5FFF7FD
:1014A000F7FF10BDF0B5DE4657464E464546E0B55F
:1014B00085B0DB4D0021280003F08EFC80235B000B
:1014C0009A46EB60D749D84E300003F09FFC0523C5
:1014D000F363053373638021C904280003F08EFC95
:1014E000072399462B61D14A0121300003F0CFFC3C
:1014F000CF4A0221300003F0CAFCCE4A032130005B
:1015000003F0C5FC01220121300003F0A5FC0122FB
:101510000221300003F0EEFCA427F3590422134308
:10152000F35101239B46EB6000243467F360C2490A
:10153000C24E300003F081FCC14B7363802109056A
:10154000280003F05BFC70232B61BE4A01213000B0
:1015500003F09DFCBC4A0221300003F098FCBB4A1A
:101560000321300003F093FC0121300003F088FCDC
:1015700002218846E96034675946F160B449B54EA6
:10158000300003F043FCA023F363B34B736380216B
:101590008905280003F032FCE021C9012961AF4A26
:1015A0000121300003F073FCAD4A0221300003F04A
:1015B0006EFCAC4A0321300003F069FC0823EB60A9
:1015C00034675846F060A025ED050021280003F09F
:1015D000BDFC5046E860A449A44E300003F0C8FCAE
:1015E000D22080008346F0637464D220C00082461B
:1015F0000100300003F027FD8021C904280003F01A
:10160000D2FC484628619A4A0121300003F0E8FCE8
:10161000984A0221300003F0E3FC974A032130008E
:1016200003F0DEFC01220121300003F0C5FC9349E8
:10163000300003F02FFD34679149924E300003F0E3
:1016400097FC5846F06374645146300003F0FBFC8D
:1016500080210905280003F0A6FC70232B618A4A2B
:101660000121300003F0BCFC884A0221300003F065
:10167000B7FC874A0321300003F0B2FC01220121AC
:10168000300003F099FC8349300003F003FD346718
:101690008149824E300003F06BFC5B46F363746457
:1016A0005146300003F0CFFC80214905280003F0AB
:1016B0007AFCE023DB002B61794A0121300003F042
:1016C0008FFC784A0221300003F08AFC764A03211D
:1016D000300003F085FC01220121300003F06CFC96
:1016E0007249300003F0D6FC34677149714E300006
:1016F00003F03EFC704BF363704B73645146300053
:1017000003F0A1FC80218905280003F04CFCE021B6
:10171000C90129616A4A0121300003F061FC694A6C
:101720000221300003F05CFC674A0321300003F023
:1017300057FC01220121300003F03EFC0022012170
:10174000300003F083FC03220221300003F07EFC12
:1017500001220521300003F079FCF35941460B4387
:10176000F351F35904221343F351F3591C32134339
:10177000F3513467554D280003F0C0FC2B68032655
:10178000B3432B605249280003F0C4FC51492800A0
:1017900003F0CAFC00220221280003F0D0FC6B6F8A
:1017A000042213436B674C494C4D0022280003F080
:1017B000D1FCEB6950229343EB61EB694A469343BA
:1017C0003343EB61EA6B464B1A4080231B01134302
:1017D000EB63444B2B610C360296019400943A2340
:1017E00000220021280003F0B5FD1F23052200215F
:1017F000280003F0DFFD1F2305222021280003F02D
:10180000C3FD2B6CB343424613432B64364803F0AD
:1018100055FF05B0F0BCBB46B246A946A046F0BD98
:1018200000000448E070001000010448E870001057
:10183000EC700010F0700010FC7000100002044802
:10184000FFFF000004710010087100100C710010FF
:10185000A471001000040448FF040000AC710010E3
:10186000B0710010B4710010107100100001005030
:101870002C710010307100103471001020710010B4
:10188000387100100002005054710010587100109F
:101890005C7100104871001060710010000300506E
:1018A0007C71001080710010847100107071001044
:1018B00088710010000400508F060000140500001D
:1018C000987100109C710010A07100100000015070
:1018D000F8700010F4700010D4700010000200487E
:1018E000FFE0FFFF43820000B871001010B57F4A8F
:1018F0007F4C0021200003F057F900220021200036
:1019000003F0CFFB7B4A0A21200003F04DF90022AF
:101910000A21200003F0C5FB774A0D21200003F0C7
:1019200043F900220D21200003F0BBFB734A012183
:10193000200003F039F900220121200003F0B1FB5F
:101940006F4A0221200003F02FF90022022120001B
:1019500003F0A7FB6B4A0321200003F025F90022C6
:101960000321200003F09DFB674A0421200003F0BF
:101970001BF900220421200003F093FB634A052198
:10198000200003F011F900220521200003F089FB5B
:101990005F4A0621200003F007F9002206212000FB
:1019A00003F07FFB5B4A0721200003F0FDF80022D3
:1019B0000721200003F075FB574A0821200003F09F
:1019C000F3F800220821200003F06BFB534A0921A1
:1019D000200003F0E9F800220921200003F061FB58
:1019E0004F4A504C0021200003F0DEF80022002175
:1019F000200003F056FB4C4A0121200003F0D4F8EC
:101A000000220121200003F04CFB484A0221200063
:101A100003F0CAF800220221200003F042FB444AEE
:101A20000321200003F0C0F800220321200003F06E
:101A300038FB404A0521200003F0B6F800220521BA
:101A4000200003F02EFB3C4A3C4C0A21200003F00E
:101A5000ABF800220A21200003F023FB384A0B21B7
:101A6000200003F0A1F800220B21200003F019FB55
:101A7000344A0221200003F097F8002202212000BE
:101A800003F00FFB304A0421200003F08DF8002200
:101A90000421200003F005FB2C4A0521200003F05F
:101AA00083F800220521200003F0FBFA284A0621D2
:101AB000200003F079F800220621200003F0F1FA5B
:101AC000244A0821200003F06FF80022082120009A
:101AD00003F0E7FA204A0921200003F065F800220C
:101AE0000921200003F0DDFA10BDC0463C72001051
:101AF00000000440FC7100102472001044720010B9
:101B00004C720010547200102C7200101C720010E5
:101B1000F4710010EC7100105C720010647200101F
:101B200014720010000104400C72001004720010C6
:101B30006C72001034720010DC710010000204405E
:101B4000E47100107C720010C471001074720010F7
:101B500084720010CC710010D471001030B585B0C3
:101B600001A8044B020032CB32C203F00BF905B0DE
:101B700030BDC0468C72001010B5FFF78FFC0020FE
:101B800010BD70B505000E001C0004AB18888D4216
:101B90001FD395421ED2521A91B2A0420CD2AE1B54
:101BA000B6B2201A80B270434B08C01803F086FA10
:101BB00080B2201A80B20DE0AD1BADB2001B80B226
:101BC00068434B08C01803F079FA80B2001980B25C
:101BD00000E0200070BD70B51D0004AB1B7888428A
:101BE0001DD990421DD2AB420CD2441AE4B2E81A7D
:101BF000C0B26043511AC9B203F070FAC0B2281AD9
:101C0000C0B20DE0441AE4B2581BC0B26043511A8E
:101C1000C9B203F063FAC0B24019C0B200E02800B4
:101C200070BD1800FCE7030008008B4200D21800CA
:101C3000704770B505000C000A2A15D80A20801AD2
:101C400068434A43801805300A2103F037FA80B20E
:101C500084420AD1854202D9013080B205E0854232
:101C600003D2013880B200E0002070BD0B884340F1
:101C70000B80082202E05B080B80013A002A07D0A3
:101C80000B88D807F7D55B08024843400B80F4E780
:101C90007047C04601A0FFFF002803D0044B20225C
:101CA0005A607047024B802292035A60F9E7C0469F
:101CB0000001044070B5164B1B78002B14D0012B8B
:101CC00016D0144B1B78002B0DD0134D2C88134BC2
:101CD000134A12785200D05A6043642103F0EEF99F
:101CE00080B224182C8070BD0A4B01221A70E8E7DC
:101CF0000C4B1B88002B03D1064B01221A70E0E726
:101D0000074B1B782D2BDCD9024B00221A70D8E729
:101D100023340020263400206C3200208C32002036
:101D2000BE3300208633002010B5194B1B78002BE2
:101D30000BD1184B1B88002B07D1174B01221A70AF
:101D4000164B174A12781A701DE0134B1B78002BA4
:101D500019D0124B1B78002B16D0104A013B137080
:101D60000E4B1B78642058430D4B197803F0B6F9DD
:101D700083B26420C01A80B20A4C2388584364217D
:101D800003F0ACF9208010BD034B00221A70E7E786
:101D9000BE330020843200201F3400201E34002077
:101DA000440600206C3200200A4B1A780A4B1B783C
:101DB000934201D8013BDAB2084B18211970084B45
:101DC0000F391970074B084909781970074B1A70B9
:101DD0007047C046C2330020430600203C06002066
:101DE0003A0600209633002034060020AE3300204F
:101DF00010B5134B198889B2002912D0114B1B88DA
:101E0000AB208000584303F059F90F4B18800F4B5B
:101E10001B78002B04D00C4A99005B185B001380E0
:101E200010BD0B4B1888022806D9C0000E2103F004
:101E300055F9054B1880EAE7034B00221A80E6E7C4
:101E40002A3600202C06002086330020583400203B
:101E50008432002009490A889308D21A92B20A8073
:101E6000074B1B889B189BB20B809B08054A13806D
:101E7000054A57214B4313807047C0466432002007
:101E800010360020663200207C32002010B55B4BFB
:101E90001A8892B25A4B1B889BB29A423ED2594B37
:101EA00001221A70584B1A78531EDBB2012B39D914
:101EB000052A37D0042A35D0544B00211970534BD2
:101EC0001978002915D0524B1B880A3B9BB29120F0
:101ED0004000834208D84F4B18884F4B984203D894
:101EE0004E4B1B78002B04D04D480378022423432B
:101EF00003704C4B1B88642B1CD94B4B1B78002B5D
:101F000018D1002916D0494B1B78013BDBB2812B3D
:101F100010D947490B7801330B700EE0394B002282
:101F20001A70BFE7434B1B78002BC5D1374B0121FB
:101F30001970C4E73E4B002119703D4B1B78FA2BFA
:101F400004D937490B78042003430B703A4B1B78B4
:101F5000002B20D1394B1B885A2B08D9072A06D0D1
:101F6000062A04D0364A13880133138002E0344B2A
:101F700000221A80334B1B88002B02D0304B0022EA
:101F80001A802F4B1B887D2B05D9254A1178802379
:101F90005B420B4313702C4B1B780F2B10D9274B34
:101FA0001B88092B0CD8294A13780133DBB2137034
:101FB0000A2B08D91A4A137808210B43137002E040
:101FC000224B00221A70224B1B78002B03D0214B8E
:101FD0001B78022B00D010BD1F4B1B78132BFAD897
:101FE0001D4A013313701D4B1B88D32BF3D90C4AA8
:101FF000137810210B431370EDE7C0461036002014
:102000005806002051340020C1330020C333002083
:102010001E0600206A3200208A0200009A33002047
:10202000400600206E32002022340020BE33002003
:10203000A63300209C3300202A3400208432002064
:102040007E32002086330020A3330020B9330020E5
:102050002D340020BD3300202C34002076320020A7
:1020600010B582B0124B1C88A4B2C822114B18883C
:1020700011230093CF3352002821FFF782FD0E4B2E
:102080001880002C0BD021000C4803F017F8C0B2C8
:102090000B4B1870782805D978221A7002E0084B8B
:1020A00000221A70074B064A12781A7002B010BD4F
:1020B00018360020863300202A06002035DF000075
:1020C000BE330020BF33002030B583B0134B1B78E4
:1020D000002B21D09A1ED2B2910051184900023330
:1020E000DAB29300D21852000D4B002018700D4B3D
:1020F0001888904209D90C4B1B78002B02D0084B52
:1021000001241C70094B00241C70074C2378002507
:102110000095FFF736FD207003B030BD4B06002060
:10212000203400208633002096330020AE33002078
:1021300030B583B0134B1888134C21880822FFF761
:1021400078FD0300208011485843C00A80B2104B2C
:102150001880104B1978104B1A78914204D30F4B0A
:1021600000221A7003B030BD0C4C23789500521930
:1021700052008D004919490000250095FFF701FD27
:102180002070EFE776320020683200201027000030
:1021900086320020BC330020BB3300209633002061
:1021A00010B56D4A13780133DBB213706B490A78AE
:1021B0000132D2B20A706A49097800291AD0032B79
:1021C00018D9654B00211970654B1970654B1B7848
:1021D000002B19D0012A17D9604B00221A70614BCD
:1021E0001A70614B1A78082A00D9B0E093005F4A50
:1021F000D3589F460029E9D1022BE7D9564B1970D5
:10220000574B01311970E1E7002BEAD1012AE8D9D7
:10221000524B00221A70534B01321A70E1E7544BB3
:102220001878FFF739FD10BD514B1878002804D0FD
:102230004B4B1878FFF730FDF5E7FFF72DFDF2E780
:102240004B4B1878002803D04A4B1B78002B02D147
:10225000FFF722FDE7E7434B1878FFF71DFDE2E7A4
:10226000434B1878002803D0424B1B78002B06D133
:1022700000280AD03A4B1878FFF70EFDD3E73D4B04
:102280001878C0B2FFF708FDCDE7FFF705FDCAE7F4
:10229000374B1878002803D0364B1B78002B06D11B
:1022A000002809D02E4B1878FFF7F6FCBBE72D4B22
:1022B0001878FFF7F1FCB6E7FFF7EEFCB3E72D4B1C
:1022C0001B78002B05D02B4B1878C0B2FFF7E4FC2D
:1022D000A9E7274B1878FFF7DFFCA4E7254B1B780D
:1022E000002B04D01F4B1878FFF7D6FC9BE7204B40
:1022F0001878FFF7D1FC96E71E4B1B78002B08D10E
:102300001B4B187800280AD0154B1878FFF7C4FC2F
:1023100089E7184B1878C0B2FFF7BEFC83E7FFF7D8
:10232000BBFC80E7134B1B78002B08D1104B1878AF
:10233000002809D00A4B1878FFF7AEFC73E7094B69
:102340001878FFF7A9FC6EE7FFF7A6FC6BE7084BD0
:102350001878FFF7A1FC66E7AD330020A533002015
:10236000AC330020A4330020B43300209872001056
:10237000B53300205136002010B5754B1B78002B6B
:102380001DD0744B1B781433734A1370724B1B7837
:10239000822B02D9704B82221A70704BF4221A7071
:1023A0006F4BAB3A1A706F4B19782820FFF73BFC44
:1023B0006D4B18706D4B684A12781A7010BD654BE2
:1023C00018786B4B18706B4B1B78002B0ED16A4A38
:1023D0001288002A0AD1604B32321A70674B1A7089
:1023E000674B00221A80674B1A80CFE7002B6FD013
:1023F000614B1B88644A1288934219D2634B0422B2
:102400001A70634A1378591C1170042BBED9524BB1
:102410001A785A4B1B789A4206D24F4B01321A70E7
:102420005B4B00221A70B1E7544A01331370F7E78F
:10243000544909888B4217D29B1A9B00DBB2534A3E
:10244000137053490A78501C087093429ED2424B35
:102450001B784A4A1278934202D23F4A01331370E2
:102460004B4B00221A7091E74A4A1288934216D2C7
:10247000D31A9B00DBB2454A137045490A78501CB9
:102480000870934200D381E7334B1B78282B02D985
:10249000314A013B13703E4B00221A7076E73B4BEA
:1024A00004221A703A4A1378591C1170042B00D870
:1024B0006CE7294B1B78282B06D9274A013B137060
:1024C0002E4A1378013B1370314B00221A705DE7DE
:1024D0002E4B0A221A702E4A1378591C11700A2B9F
:1024E00000D853E72C4B1988002925D02A2903D975
:1024F000194A1378013B1370214A13885C1C14801D
:10250000092B15D91D4A13780A3313701A4B1B88EF
:10251000584302F0E3FD80B21A4B18800200143ACF
:10252000194B1A8014301B4B1880124B01221A7061
:10253000174B00221A7029E7104B1B78772BF7D81E
:1025400005490A7801320A700C4A01331370EFE72B
:10255000A0330020553400204A0600203C0600200D
:102560003A0600203406002096330020AE330020C7
:1025700057340020563400208432002049060020C1
:1025800082330020803300207E330020533400202B
:10259000543400207C33002086330020F0B583B013
:1025A0000500D24B43221A709870032800D145E1F0
:1025B00043D8012800D1E8E202283CD1CC4B0022CC
:1025C0001A70CC48C278CC4B1A700279CB4B1A7077
:1025D000437901221C001440C9490C705C08144066
:1025E00099081140C74D2970DD081540190911409F
:1025F000C54E317059091140C44E317099090A40D5
:10260000C3490A70DB09C34A13708379DBB2C24A3B
:102610001370C24A1278934228D1B64BDA79C04B74
:102620001A70002C4DD0BF4B1B88452B49D8BE4B90
:1026300007221A705DE003250EE004280BD1BB4B86
:102640001A78AA4BDA7000221A7115325A711E32AA
:102650009A71072500E00325A44B5D70B44B01225D
:1026600052421A80B34B00221A70A1E2AB4A137097
:10267000B14A10786422504380B20009C6B2AF4814
:102680005843AF4B198802F019FD0109C9B2300057
:10269000FFF7C9FA0600AB4B1870BB20704380B23D
:1026A0008F2102F00BFD80B2A74B18801B889BB2D4
:1026B000BB2B02D9A44BBB221A803236A34B1E700F
:1026C000ABE7002D11D0974B1B885A2B0DD9914B9E
:1026D0001B78002B03D09E4A1278002A01D1002BD0
:1026E00007D1914B06221A7003E0824B1A7A8E4B67
:1026F0001A70002C02D1974B00221A707D4B597A28
:10270000954A1170997AC9B2944A1170DA7A944B49
:102710001A70944B18881A78744BDA7000093022BA
:1027200002401A71904A12785A717E4A10881278C3
:102730009A71000A07220240DA718C4A127801204D
:1027400002401A728A4A107840001A7A0243D2B2C2
:102750001A721A7A87480478240110202040024314
:102760001A721A7A844804786401202020400243B7
:102770001A721A7A81480478A4014020204002434A
:102780001A727F4A12889208D2B25A7201294CD02A
:102790007C4B1A78554B9A727B4A1388DBB2534CA8
:1027A000E37213889B083F229343DBB2E279134321
:1027B000E371764A1388127822731B0A6373644BA1
:1027C0001B78A373724B1B881B0A64205843714B00
:1027D000197802F083FCC0B2E0736F4A1388127854
:1027E00022741B0A63746D4B1B881B0AA3744F4B26
:1027F0001B78E3746A4B1B7823756A4A1368DBB253
:10280000637513681B0ADBB2A37513681B0CDBB27C
:10281000E375654A1388127822761B0A6376634B48
:102820001B78DBB2A3761B2516E7614B18880931AC
:1028300002F044FCC0B22D4B9872ADE701F0D6FC1B
:102840005C4B00271F70394B01261A7801210A437F
:102850001A70594B02221A70254B1E70254C237991
:102860001B02E2789B189BB2544A138064205843A1
:10287000572102F023FC80B2514B18801B88643B27
:10288000504A1380A3791B0262799B184E4A138029
:10289000E279294B1A70214B1F70237A012218000C
:1028A00010404A4908705908114049480170990878
:1028B000114048480170D908114047480170190972
:1028C00011404648017059090A4045490A70DB0920
:1028D000444A1370A37A5B00434A1380E47AE4B25B
:1028E000424B1C70134B1E7097E0C04634340020DE
:1028F000B7330020C4330020C2330020B23300209D
:10290000B53300209F330020223400202D340020D6
:102910002E340020AB33002028340020293400203E
:102920005534002086330020C133002040060020AB
:1029300082320020B333002036060020A025260076
:102940007C320020340600201C06002035060020C2
:10295000BE330020563400204B060020BD3300203B
:102960002F34002066320020A3330020513600208F
:102970005A360020203400205134002052340020E8
:10298000763200202B3400200E3600206E320020DC
:102990001E3600204306002084320020BA36002074
:1029A000BA3300204C3600206C3200205036002014
:1029B0008632002041060020B63300207A32002003
:1029C00058060020783200202C06002025340020F4
:1029D000233400204606002030340020A03300209D
:1029E000A13300203F0600208C3200202434002038
:1029F000864A1378013B86495B005B5A1B021078BC
:102A000001384000405A60431B1A1B0A10784000EE
:102A1000435213780133DBB213707C4B1B78DBB26B
:102A2000772BE5D97B4C227B7B4B1A70227B7B4B2F
:102A30001A70627B7A4B1A70627B7A4B1A70A07B99
:102A4000C0B218230093AA3364220021FFF7C3F811
:102A5000754B1870E07BC0B20923009340336422A9
:102A60000021FFF7B8F8714B18703223E25CD2B244
:102A70006F4B1A703323E15C6E4B19703423E15CA9
:102A80006D4B19703523E15CC9B26C4B197036235C
:102A9000E35CDBB26A4803705B005B1ADBB29B1A33
:102AA000684A13703723E05CC0B2193B0093E133EE
:102AB00064220021FFF78FF8634B18703923E25C22
:102AC000624B1A703823E35CDBB24F2B05D85E4BA8
:102AD000A5221A705D4BA33A1A704E4C4D23E35C4D
:102AE0001B024C22A25C9B189BB2594A138019000E
:102AF0003C39584A1180584A13804F23E15C09023F
:102B0000013BE35CC91889B2544B1980FA2040019B
:102B100002F0E4FA524B18805023E25C51084F3B1C
:102B2000194050480170920813404F4A137006D064
:102B3000454B1B78A42B02D8434BA5221A704B4B54
:102B4000414A12781A70334B5122995C484A1170ED
:102B50005222995C474A117053229A5C464B1A7074
:102B6000464B1B78002B0CD02A4B54229B5CDBB2CB
:102B7000434A1370642B00D86EE5130064221A7068
:102B80006AE53F4B00221A7066E53E4B1A783E4BD1
:102B9000DA70042560E51D4C2378DBB23A4AD05C3C
:102BA000C0B23A49FFF762F823780133DBB22370F1
:102BB000164B1B78DBB2AB42EDD3344A1388117845
:102BC000314A51556C1C1B0A1355314B00221A70A7
:102BD000304A8A235B00D3581B0E7F221A401E23E3
:102BE0009B1A0235AB4204D22B4B00221A7003B061
:102BF000F0BD00239C42F7DB234AD25CD2B22548C9
:102C0000C021490042500133DBB2F3E7B333002067
:102C10008C320020C4330020BC3300204806002042
:102C2000BB330020470600203D0600203B06002065
:102C3000993300209B330020973300209D330020E0
:102C40009E330020983300204406002038060020E0
:102C50002606002024060020220600202806002048
:102C600074320020B1330020A73300204506002035
:102C7000A8330020B433002042060020A1330020F6
:102C8000A2330020B73300203434002082320020E9
:102C9000B833002000020048C033002070B52F4B2D
:102CA0001B78002B3ED02E4B012252421A802D4B16
:102CB0005D78EDB22C4B00221A700CE02A4C237880
:102CC000DBB2284AD05CC0B22549FEF7CFFF23789B
:102CD0000133DBB22370244B1B78DBB2AB42EDD364
:102CE0006A1C204B9A5C12025B5D9B181C4A12887E
:102CF000934207D0194B00221A701C4A13780133F3
:102D0000137013E0194B00221A70194B1B78002B1B
:102D100002D1174B01321A70124B9878C0B2FFF7EC
:102D20003DFC03E0114A1378013313700F4B1B78FD
:102D30001E2B04D80E4B1B78002B0BD070BD01F05E
:102D400055FA0C4B00221A700B4A137820210B43C2
:102D50001370EFE70020FFF721FCEFE7C0330020FE
:102D600080320020C4330020B3330020A933002078
:102D7000B6330020410600204006002070B582B026
:102D8000204B1888C72807D91F4B18221A701F4BD1
:102D90000F3A1A7002B070BD1D4E33788008C0B271
:102DA0001825009532220A21FEF715FF164C2070D7
:102DB0003378184A1078009546221421FEF70BFF4D
:102DC0002378834201D9104B1870134E33780D4A83
:102DD00010888008C0B20925009532220A21FEF72A
:102DE000FAFE0A4C207033780A4A10780095462281
:102DF0001421FEF7F0FE23788342CBD9034B1870E1
:102E0000C8E7C046863300203C0600203A06002072
:102E10003D060020BE3300203B06002010B5314B9C
:102E20001C78314B1B78002B0ED0304B1B78002BBD
:102E30000AD12F4B1A882F4B197878235B1A9A42A4
:102E400002DD2A4B01221A702B4B1B78002B3BD141
:102E5000264B1A78002A03D1284B1B78002B32D03E
:102E6000234B1988264B1B784B43544363431B0A5F
:102E70005801C01A8000C018C000224B198802F007
:102E80001DF984B22409FFF779FF1F4B1A78A2427B
:102E90001DD21E4B1A701E4B1B78002B1AD01B4BD9
:102EA0001B78164A1278934201D9144A1370174BB3
:102EB000124A12781A70154B1B78002B0ED0154B46
:102EC000154A12781A7010BDFEF7F4FEC0E70F4BDA
:102ED0001C70E0E7094B00221A70ECE70D4B002252
:102EE0001A70F0E7C2330020A1330020BE33002067
:102EF0006C320020A2330020253400202134002031
:102F0000420600207C320020340600209633002048
:102F100022340020AE3300204306002070B5304B31
:102F20001B78002B4ED12F4B1B78002B0ED02E4B35
:102F30001B78002B0AD12D4B1A882D4B197878233A
:102F40005B1A9A4202DD284B01221A70294B1B782A
:102F5000002B02D0244B01221A70244B1888002821
:102F600003D0214B1B78002B03D1234B1B78002B64
:102F700027D0224B1B7858433C2102F0AFF80400C5
:102F800085B2FFF7FBFE1E4B1A78AA421DD21D4BDD
:102F90001A701D4B1B78002B1AD01A4B1B78164A3F
:102FA0001278934201D9144A1370164B124A1278C0
:102FB0001A70144B1B78002B0ED0144B144A127845
:102FC0001A7070BDFEF7B0FEADE70E4B1C70E0E767
:102FD000094B00221A70ECE70C4B00221A70F0E744
:102FE00046060020A1330020BE3300206C320020B2
:102FF000A2330020A033002021340020C23300205F
:10300000340600209633002022340020AE33002006
:103010004306002010B51A4B1A78002A27D0194B06
:103020001B789B189B10184A1380184B1B78A42BF5
:1030300002D8164BA5221A70FEF776FE134B144ADF
:1030400012781A70104B1C88124A12881A80FFF7E7
:1030500095FE114B1A78A2420AD2104B1A700F4BF0
:103060001B78002B07D00E4B0E4A12781A7010BD39
:103070000A4B1C70F3E70A4B00221A70F7E7C046B0
:10308000BE330020C23300206C32002044060020F2
:1030900045060020703200203406002096330020C0
:1030A000AE3300204306002070B53C4B1B78002B4C
:1030B0000ED03B4B1B78002B0AD13A4B1A883A4B67
:1030C000197878235B1A9A4202DD354B01221A7077
:1030D000364B1B78002B02D0314B01221A70314B3A
:1030E0001C88002C03D02E4B1B78002B03D1304BB7
:1030F0001B78002B44D02F4B1B78142B07D8D801FA
:10310000C01A80B20A2101F0D9FF2A4B1870294B4E
:103110001B785B00FE214900C91A89B2264B1B7837
:10312000002B05D01E4B1B788B422AD8C91A89B2B6
:103130000A3189B26443081901F0C0FF040085B266
:10314000FFF71CFE1D4B1A78AA421CD21C4B1A70AA
:103150001C4B1B78002B19D0194B1B78144A127882
:10316000934201D9124A1370154B114A12781A7002
:10317000134B1B78002B0DD0134B144A12781A7086
:1031800070BD0021D4E70E4B1C70E1E7084B002214
:103190001A70EDE70C4B00221A70F1E7A133002002
:1031A000BE3300206C320020A2330020A033002068
:1031B00021340020C23300203F06002034060020C6
:1031C0009633002022340020AE3300204306002036
:1031D00070B53A4B1B78002B62D1394B1B78002B12
:1031E0000ED0384B1B78002B0AD1374B1A88374B3F
:1031F000197878235B1A9A4202DD324B01221A7049
:10320000334B1B78002B02D02E4B01221A702D4B12
:103210001D78002D03D12F4B1B78002B3FD02A4B5C
:103220001C88002C06D02C4B187860433C2101F000
:1032300055FF84B2294B1B786B43294A12885343AC
:103240001B0A5801C01A8000C018C000254B1988FD
:1032500001F034FF80B20009844200D20400FFF77D
:103260008DFD214B1A78A2421DD2204B1A70204BA3
:103270001B78002B1AD01D4B1B78164A12789342EC
:1032800001D9144A1370194B124A12781A70174B4D
:103290001B78002B0ED0174B174A12781A7070BD8E
:1032A000FEF742FD99E7114B1C70E0E7094B002245
:1032B0001A70ECE70F4B00221A70F0E74606002068
:1032C000A1330020BE3300206C320020A233002046
:1032D000A033002021340020B2330020C23300206C
:1032E000883200207C3200203406002096330020F3
:1032F00022340020AE33002043060020F0B583B016
:10330000454B1B885A2B05D8462B7AD9434A12784D
:10331000002A76D1414A1278002A10D03F49002273
:103320000A703F490A803F490A803F49FA2040001D
:1033300008803E490A803E490A803E4A13803D4A41
:103340001088C01A82B200B2354B188036490B88FB
:10335000D3181BB20B80FA2189008B4253DD324B0C
:103360001980304B1988521A15B2304A15801880CE
:1033700084002D4B0020185E03F008FE2E4A2F4BD0
:1033800003F00CFB06000F00200003F0FFFD3200ED
:103390003B0002F0A3FF06000F0068004019400048
:1033A00003F0F4FD32003B0002F098FF03F0B8FD9B
:1033B00000B21F4B188000282BDB1D4B00229A5EA9
:1033C000FA239B009A4203DD194BFA2292001A80DD
:1033D0001B4BF4221A701B4BAB3A1A701A4B1B4A48
:1033E00012781A70124B0020185E8010C0B2184B71
:1033F0001B7800930023FA220021FEF7ECFB154B0B
:10340000187003B0F0BD002BABDA074B0021198018
:10341000A7E700221A80D0E7863300203906002073
:103420002C320020303200202E3200202A320020A0
:103430002832002084330020333333333333E33FE7
:103440003C0600203A060020963300203406002077
:1034500043060020AE33002030B583B03E4AC72378
:103460009B00D05880108005800D3C4B18803C4B51
:103470001B78002B01D103B030BD3A4B1A783A4B80
:1034800019788008FF2300930023FEF7A4FB374B35
:103490001870374B1B78002B14D0364A1370364BFC
:1034A0001B78002B06D0354B1B78002B02D1314BFB
:1034B00000221A702F4B1878002810D12D4B0022B3
:1034C0001A70D8E72E4B1B78022B03D0294B002211
:1034D0001A70E4E70028F9D0264B1870DFE7294B73
:1034E0001B7800930023FF220021FEF774FB0400E9
:1034F0000500254B1B788342E0D2244B1888FE2818
:1035000010D9234B30221A70224B273A1A701D4BC8
:103510001B78AB421CD21C4A13701F4B1F4A1278F7
:103520001A70CBE7C0B230230093C433FF222821A6
:10353000FEF751FB164B1870144B187809230093B3
:103540004033FF222821FEF746FB124B1870DEE7BE
:103550000D4B1C70E1E7C04600080348763200209E
:103560002D34002047060020480600202B34002080
:103570002F3400209C3300202E340020BE33002046
:10358000BD3300203406002096330020863300200F
:103590003C0600203A060020AE33002043060020FF
:1035A00010B5AF4BC2221A70AE4B793A1A70AE4BBF
:1035B00000221A70AD4B1A70AD4B1B78002B21D036
:1035C000AC4B1B88F52B1DD9AB4A1178C9B2AB4A5D
:1035D0001278D2B2914215D2A94A1278002A11D19A
:1035E0000B33DBB2A74A13705B09A74A1370137839
:1035F000DBB2052B02D9130005221A70A34B01225E
:103600001A7002E0A14B00221A70A14B1B78062B06
:1036100002D0A04A012111709F4A1278002A1DD1C0
:10362000082B3CD89B009D4AD3589F46FFF7F6FBDA
:1036300035E0FFF773FC32E0FFF7ECFC2FE0FFF71B
:1036400033FD2CE0FFF7C4FD29E0FFF757FE26E02D
:10365000FEF792FE23E0FEF7A7FB20E0904B1A78DE
:10366000642353431B11DBB27F4A13708F2B02D9A3
:1036700013008F221A708B4B1B78002B02D07A4BD1
:1036800000221A70884B1B78784A1370874A127888
:10369000934201D3754B1A70854B32221A70854BB9
:1036A0001B78012B00D1A1E0022B00D0A8E0FFF78E
:1036B000D3FEFEF709FD804B1B78022B00D1A7E05B
:1036C000032B00D1AAE07D4B1B889BB27C4A128859
:1036D000934204D2784B1B78042B00D1B2E0794B93
:1036E0001B78002B14D0644A1278D2B2764909783C
:1036F0008A4200D8AFE075490A7801320A70734AED
:103700001278934204D8674A137840210B43137010
:103710006F4B1B78002B03D16E4B1B78002B04D012
:10372000604A137840210B431370534B1A7893006F
:10373000D2185301684A1360684A11685B18136015
:1037400067490A68013A0A60002A07D19B09654A5D
:10375000136040220A60614B00221A60624B1B78A2
:10376000002B14D14F4B1B7878221A420FD15F4A9D
:103770001278002A0BD05E4A1278002A07D0002B5C
:1037800000D1C9E05B4B1B78002B00D0C4E05A4B42
:10379000C2221A70594BB93A1A70384B00221A706B
:1037A000574B1A70514B1B78002B00D1EAE04E4A60
:1037B0001278002A14D13B4A1278782111420FD195
:1037C0002C4A1288002A00D0DCE0274A1278002A0E
:1037D00000D0D7E04B4A128892B2002A00D0D1E044
:1037E000424B00221A7000F001FD10BDFEF7A0FC54
:1037F000454B1B78002B00D15BE7FFF72DFE58E708
:10380000414B1B78002B00D153E7FFF725FE50E713
:103810003E4B28221A70284B253A1A703B4B1B78D6
:10382000002B03D0394A013B13704CE7224B042292
:103830001A70374B023A1A701A4A137801218B43D7
:10384000137040E7174A137820210B431370314B54
:1038500001221A7043E71D4A002111704FE7C0464C
:103860003C0600203A06002096330020AE330020AC
:10387000B133002084320020503600205236002020
:103880009C330020B03300205836002056360020EC
:10389000C1330020390600202A340020BC720010F9
:1038A00037060020400600203E0600204306002088
:1038B000C2330020BD330020B63300201036002074
:1038C000783200203806002035060020AF33002073
:1038D000B1350020B035002090330020883300201F
:1038E000300600208C330020513600204106002095
:1038F0009F330020A033002085060020840600208E
:10390000533600201E3600202F3400203232002093
:10391000B7330020523400202A4B1B788F2B02D95A
:10392000284B8F221A70284B1A78264B1B789A4204
:1039300001D9254A1370254B1A78254B1B789A42DA
:1039400001D9224A1370234B1B78172B02D8214B25
:1039500018221A70204B1B78082B02D81E4B092204
:103960001A701C4B1A781D4B1A701B4B1A781C4B83
:103970001A70154B1A781B4B1A70144B1A781A4B85
:103980001A700FE7002B00D02FE7184B1B78002B85
:1039900000D02AE7164B1B889F2B00D925E70A4B3E
:1039A0001B78002B00D120E7124B01221A70124B1A
:1039B00000221A80114B00211970114B1A6000F07F
:1039C0004FFC12E73406002096330020AE3300206F
:1039D000430600203C0600203A0600208506002011
:1039E0008406002052360020533600205136002035
:1039F00084320020410600201E3600205736002069
:103A000048360020030043434B4343431B0C8022B2
:103A10005200521A5043C0188030000A704770B5E7
:103A2000040000290CD000280BDB80235B009842A7
:103A300000DD1800002906DBFFF7E4FF002C0ADB9D
:103A400070BD4042F1E7494280256D00281AFFF71A
:103A5000D9FF281AF2E74042F2E7000010B5444BC4
:103A60001B78772B1CD9434B1A88434B1A80434B46
:103A70001A88434B1A80434B002119803D4B1B8809
:103A80009BB29A4233D29B1A9800C01840013E4B19
:103A9000198801F013FB80B2A0282CD9A0202AE0BD
:103AA000344B188880B2394C21880422FEF7C1F8C3
:103AB00020802F4A13780133DBB21370782B02D0A9
:103AC0002D4B1880D3E7324B1B78002BF8D0314BAD
:103AD0001B88984207D9304B1B88984203D22F4B42
:103AE00000221A70ECE72D4B01221A70E8E72C4BEC
:103AF00000221A8000202B4B197814291ED000298F
:103B000005D0294B188801F0E9FA254B1880274B7E
:103B10001B78143B5900C9188900214B1888FFF7FE
:103B20007EFF80B2174B1880214B1880214B1880E4
:103B3000214B1B784343214A138010BD204B1B8827
:103B400083420BD2C31A9BB2632B0AD8144C164B78
:103B50001888142101F0B2FA2080D8E71B1A9BB212
:103B6000F2E70F4C21880522FEF763F82080CEE7AC
:103B7000333200200E3600206A3200202606002054
:103B80001E0600206C32002028060020200600209F
:103B90003034002024060020220600209A33002022
:103BA0007232002094330020623200209B330020C8
:103BB000703200206E320020420600208832002041
:103BC0003432002010B5274B1B889BB2264A934203
:103BD00004D8244B1B889BB2092B2AD8234B0022E4
:103BE0001A80FEF705F9FEF73BFAFEF733F9204B92
:103BF00018780001142101F071FA1E4B18701E4B49
:103C000018880001142101F069FA1C4B1870FFF7A5
:103C100025FF1B4B1A78511C197003231340022BEC
:103C20001CD00FD8002B14D0012B14D1FEF7B8FAFA
:103C300011E00C4B198889B2124801F03FFA0B4B86
:103C40001880CEE7032B06D1FEF720F900F0C4F967
:103C500001E0FFF723F8FFF7A3FC10BDFFF71EF804
:103C6000F9E7C04668060020FFEF0000843200201C
:103C700050360020A33300200C360020BA33002039
:103C8000AA33002040420F0070B5284B1B785BB26E
:103C9000002B16DB254B00221A70254B1B889BB28C
:103CA000244A12889A4217D29B1A9800C0184001E1
:103CB000214B198801F002FA80B2A0280DD9A0206A
:103CC0000BE01A4A002313701C4A13701C4A13801D
:103CD0001C4B00221A701DE000201A4B1B781A4A58
:103CE00059008C5A194D2C808852154A1188401859
:103CF00080B21080114A1278142A0CD00F49013278
:103D00000A700133DBB20F4A1370132B02D9130070
:103D100000221A7070BD844203D2094A001B108031
:103D2000EFE7074A00211180EBE7C0465E3600202E
:103D30000E3600201E0600202806002094330020A6
:103D400062320020953300203832002034320020C7
:103D50000AE0254A1370254B01221A7004E0562B05
:103D600020D9224B00221A70214A8A235B00D358A3
:103D70001B0738D41F4B1B78002B34D11C4A8E23D1
:103D80005B00D358DBB2194A1178CAB20129E6D0D8
:103D9000022A0FD0002AE7D1592BDAD0134B002288
:103DA0001A70E1E7104A5370134A13700F4B022246
:103DB0001A70D9E7114A117802310B48435413782D
:103DC0000133DBB213701278D2B20B4B1B78DBB22B
:103DD0009A42C9D3094B00221A70044B1A70054B42
:103DE00001321A70C0E77047C43300202734002026
:103DF00000020048C03300201D3400201C34002085
:103E000010B55D4B00E0013B002BFCD1FDF7B4FE8B
:103E1000002800D001BE8020400000F05FFF574B1B
:103E200000245C606A225A641C645548FDF73AF924
:103E3000A021C9050B685348034080229200134318
:103E40000B6051490B6803401A430A60FDF754FAAE
:103E500000F03AFF4D4B3C221A704D4B1C7000F0A5
:103E6000E3F94C4B1C704C4B01229A604B4B00E029
:103E7000013B002BFCD14A4BC62292009958090203
:103E8000090A8020C0050143995080210905196065
:103E900098584449084080210902014399508021E3
:103EA0008904196098584049084080210904014359
:103EB00099508022D2041A603C4B1868FA2189007C
:103EC00001F0FCF8013880235B0498420DD2384A97
:103ED00050603848036A1B021B0AC02109060B43C5
:103EE00003620023936007331360A023DB050F22D6
:103EF000DA60314A116B80235B000B431363274B5D
:103F000000E0013B002BFCD12C4B5A6801210A43F5
:103F10005A602B4A9A602B4B1A682B4B1A60274B1E
:103F2000274A9A60294B1B78002B19D0234B244A2F
:103F30009A60274B1B78002B15D1224B1A68254B12
:103F40001B88D31A0A2B11D81E4B1A681E4B1B68EC
:103F5000D31A192BE3D91C4B1A60FFF733FEDEE7A7
:103F6000FFF7F6FEE2E7FFF78FFEE6E7194B1A8050
:103F700000F0E8F8E8E7C046804F12000000034078
:103F8000384A0000FFFCFFFF00000448E035002035
:103F9000583400208806002000000150C0D40100E1
:103FA00000E100E0FF00FFFFFFFF00FFFC3F0020FB
:103FB00010E000E000ED00E00000014000000240E1
:103FC000FECAADABDC3600205C340020C0330020DC
:103FD0005E3600205A34002070B58CB0484B1B78F8
:103FE000022B19D00CB070BD464BA600F05801F062
:103FF00065F806AB9851A20006ABD358ED18013412
:10400000052C0CDC404B6200D15A0029ECD1A300F6
:1040100006AA01319950EEE700240025F0E7002DB3
:1040200003D00024C026760114E0354B04221A7018
:10403000D8E7A20006ABD0580004290001F03EF8F2
:1040400080B262006B46D052B6B203A956528019B4
:1040500006B20134052CECDD8C235B029E4205D0B8
:104060009A1B6B465B899B186A465381002209E0C4
:1040700053006946585A2549585203A9585A2449A9
:1040800058520132052AF3DD1D4B05221A7003AB8D
:104090001A88803212121F490A805A8880321212FE
:1040A0001D490A809A88803212121C490A80DA88D7
:1040B000803212121A490A801A8980321212194962
:1040C0000A805B8980331B12174A13806B461A885B
:1040D000164B1A806B465A88154B1A806B469A8885
:1040E000144B1A806B46DA88134B1A806B461A8978
:1040F000124B1A806B465A89114B1A8072E7C046E0
:10410000DA350020C0350020B43500206C060020D0
:104110005C060020603400206234002064340020FB
:1041200066340020683400206A340020F83500200E
:10413000FA350020FC350020FE3500200036002036
:104140000236002030B51D4B1B78002B35D11C4B9F
:10415000E022920099580905090D1A488258120563
:10416000120DE12080001B581B051B0D1648016035
:1041700016480260164803604802164C2568E9019B
:10418000491B0918C8092060090C13480180510215
:1041900012480468E201121B5218D1090160120C86
:1041A0000F490A805A020F490868C3011B1A9B185D
:1041B000DA090A601B0C0C4A138030BD410600204E
:1041C00000080348000403487435002078350020B7
:1041D0007C350020780600204C0600207C0600205C
:1041E0004E06002080060020500600200323034ACC
:1041F0001361034A1361034A1361704700010050C1
:10420000000200500003005010B5054A1378402109
:104210000B431370034B00221A70FFF7E7FF10BD2A
:10422000400600204106002070B500F076FC0A49E7
:104230004A6A920801231340084A13704D6A022407
:104240002C40234313704C6AA400042121400B43EB
:10425000137000F066FC70BD00010440543600206D
:1042600010B5FFF7E1FF0D4B196B802252000A4396
:104270001A631A6B0A490A401A6309E0074B196B63
:10428000802252000A431A631A6B05490A401A63D6
:10429000044B9B68DB07F1D510BDC0460000014010
:1042A000FFFEFFFF0001005070B500241FE0214B0E
:1042B0006500E85A01F0C0FF1F4901F0AFFCFC2186
:1042C000890501F05BFA01F041FA1C4B58531C4B75
:1042D000A200D0581B4901F0A1FCFC21890501F086
:1042E0004DFA01F033FA184B58530134E4B2052C5F
:1042F000DDD9002408E08020C00500F0DFFE134B6C
:10430000AD0058510134E4B2042C0BD82500631CD5
:104310000A4A5B00985A63009B5AC11A9842EAD134
:104320000121E8E70A4B0B4A1A600B4B01221A7075
:1043300070BDC04618770010022B8F40F836002061
:1043400000770010610B3643943600207C36002045
:10435000703600207F030000B036002070B5154B8A
:104360001B88834205D2134B5B89834204D9002307
:1043700007E0114B18881CE00F4B588919E00133F6
:10438000DBB21C005D1C0B4A6900895A8142F6D3DE
:104390006600B35AC01A094AA400A3584343DB0B72
:1043A00005496D006A5A705A121A5343DB0BC01844
:1043B00080B270BDF8360020943600207C36002094
:1043C00070B5694B1B78002B55D0684A13880133B0
:1043D0009BB21380042B00D894E0130000221A80B3
:1043E000634B1B78634A5B00995A634A1180634AA6
:1043F0009A5A634B1A80634B1B68634A14681B1BF1
:104400001A113BD0A418604B1C60A0B2FFF7A6FFA6
:1044100005005E4B1A785E4900200B5E0988521A2F
:1044200012B2961133D089190BB2594A13801A016E
:104430009B1898B2401980B2564B1880C8235B0174
:10444000984203D9534BC82252011A80524B1B7811
:10445000002B25D151480568AD11514B19688911C0
:10446000504A1560504A1160002202601A604A4B9F
:1044700040321A7016E0FFF717FFA6E7002BC2D0F4
:1044800002DD0123E418BEE701235B42FAE7002ABC
:10449000CBD003DD0123CB181BB2C6E7434BFAE7B1
:1044A00000210025EB17EE185E40CB17C9185940C4
:1044B00000290DDD3E4B4B43DB13642B00DA6423F4
:1044C0003C4A1068002805D03B4A4243D21302E020
:1044D0000121EFE71A00984215DA364A1360354B8E
:1044E0001B68B34200DD0025344B1B689C420FD291
:1044F000334B00221A60324B1B88264A12889B18C5
:10450000304A138070BDB242E9DD2A4A1360E6E703
:10451000002DF0D0EB17E8185840C00300F0DEFD86
:104520008001C013032812DD402812DC002D12DDAB
:10453000234A13681B181360214B1B68224A9342BD
:104540000EDB224A93420DDC1D4A1360D3E70420A0
:10455000ECE74020EAE71A4A13681B1A1360EBE7FE
:10456000194BF1E7194BEFE7B0360020B2360020C7
:1045700066360020F8360020683600209436002089
:104580006436002040360020783600205036002067
:1045900074360020A036002087060020E835002071
:1045A000EC3500209435002098350020FFFF0000F6
:1045B000660600009036002033730000703600203D
:1045C000A4360020BA36002072FCFFFF8E030000E4
:1045D0002D4B00221A702D4B1B682D4A12689A42EF
:1045E00001D92B4B1B682B4A12689A4201D9294BDF
:1045F0001B68294A934211D9284A11884B1C9BB247
:104600001380142B0DD91180254B01221A701E4BDB
:104610001A70244BFA22D2001A8002E01F4B0022AB
:104620001A80214B1A68214B9A4211D9204A1188CD
:104630004B1C9BB21380642B0DD911801D4B0122A2
:104640001A70114B1A70174BFA22D2001A8002E02E
:10465000174B00221A80184B1B78184B00221A8027
:10466000104B1B88002B0DD0013B9BB20D4A1380D1
:10467000002B07D10A4A13700E4A1370104A1370A8
:10468000014A13707047C0466A3600203036002059
:10469000343600203836002000A41F00AC3600203D
:1046A0006D360020AE3600202C36002000EB410095
:1046B000AA3600206C36002050360020A836002094
:1046C0006B36002010B5694B1A78694B1B78DBB24A
:1046D0009A4211D0664B1B78002B02D1644B0A2200
:1046E0001A70634C21789820400100F0E7FC614B80
:1046F000188022785D4B1A705F4B1A785F4B1B78DD
:10470000DBB29A4211D05D4B1B78002B02D15B4B80
:104710000A221A70594C21789820400100F0CEFCF2
:10472000574B18802278544B1A70564B1B78002B2D
:1047300036D1554B1B78002B32D1544B1B78002BB4
:1047400032D1534B1A78534B1B881B0A9A421BD306
:10475000514B1A78D2B2514B1B78DBB29A4213D329
:104760004F4B1A8892B24F4B1B889BB29A420BD880
:104770004D4B1A8892B24D4B1B889BB29A4203D381
:104780004B4B1B78002B2CD04A4B1B88002B17D08F
:104790003B4A128893420FD946499B1A0B8002E08C
:1047A0003C4B00221A8010BD3A4A1188C908138870
:1047B0005B1A9BB21380F6E73E4B00221A80F2E7A9
:1047C000344B1B889BB22E4A1288934205D931493B
:1047D0000B889B1A9BB20B80E5E72E4B00221A80B8
:1047E000E1E7354B1B88002BDDD1294B1A78294B8B
:1047F0001B881B0A9A421DD9274B1A78D2B2274B25
:104800001B78DBB29A4215D9224B1A88194B1B88A8
:10481000D218F0235B019A4206D3284B1B781B0267
:10482000934203D3130001E0F0235B019BB2194ACA
:104830001380B8E7224B1B78002BB4D0154B1A8895
:1048400092B21E4B1B781B029A42ACD1194B1B88AB
:10485000084A12889B181B4A127812029A4202D206
:10486000184B1B781B02134A13809CE7F536002077
:1048700085060020B6360020F4360020840600208D
:10488000B4360020B1350020B03500206A36002053
:10489000533600201E3600205236002050360020AD
:1048A0000C3600201C060020103600205806002080
:1048B00051360020B8360020AE36002043060020D6
:1048C000563600205836002010B5764A136801335A
:1048D0001360754B19680123002401E00133DBB23A
:1048E000042B07D8704A980082589142F6D21100E2
:1048F0001C00F3E76D4B1B688B422CD06B4B19608F
:10490000042C1BD06A4B1B785BB2002B00DA94E0BE
:10491000654A9B009A58674B1B68934200D194E00C
:10492000D31A9BB264490B80624B1A60634B01221D
:104930001A70634A13780133137008E05E4B00224B
:104940001A805B4BFF321A705C4B7F3A1A70554BE2
:104950001A685C4B1A60534B1B685A4A12689B1AC0
:10496000594A128893420DD9534B00221A80504B5A
:10497000FF2119704F4B1A60504B80321A70504B08
:1049800000221A70514B1A68514B1B68934211D088
:10499000002B00D0D31A4E490A60424A11684D4A92
:1049A0001160002B06D096229200934202D99BB24E
:1049B000494A13803B4B1B68464A12689B1A474A78
:1049C000934204D9444B00221A80414B1A60444A56
:1049D000C7239B00D25892109205920D414801883E
:1049E0004900511803885B189B109BB2018889B25B
:1049F000994234D03B4A13803B4AC6239B00D3588C
:104A00009B109B059B0D394A1380394B1B889BB229
:104A1000002B33D0364B1B889BB2802292009342EE
:104A200027D9344B18780002314B1988090A00F055
:104A300045FB80B2304B188023E01D4B1C701D4B92
:104A400019601F4B00221A7081E71B4B1B889BB219
:104A5000002B00D07BE7184B284A1A8077E79A4250
:104A600002D901339BB2C5E79A42C3D2013B9BB244
:104A7000C0E7204B1B78204A138002E01E4B002227
:104A80001A801F4B5A6A920A012313405A4253411B
:104A9000DBB21C4A1370FFF793FCFFF799FDFFF799
:104AA00011FE10BDDC360020BC360020E4360020AC
:104AB00089060020E0360020183600205E360020EF
:104AC0005D360020D43600202A060020F036002073
:104AD000E8360020D83600202A36002035080000AD
:104AE000000403480E36002000080348103600205A
:104AF0001E360020503600200C360020C21D00005B
:104B000000000440513600200230800803D00138F4
:104B1000FDD1C046C046C0467047EFF3108072B664
:104B2000704780F310887047064B1A89802149012D
:104B30000A431A8148215A5A8020000102435A52DE
:104B40007047C0460000054010B50D4A13681B0AA7
:104B5000FF210B400B480360126811400A4A1160A4
:104B6000002B08D01B02C918084800F0A7FA400023
:104B7000074B186010BD064B064A1A60FAE7C0469C
:104B8000000301400837002004370020000024F40F
:104B9000FC3F00200048E80110B5FFF7C5FFFCF717
:104BA000DDFF10BD70470000F0B5C64600B58B08AC
:104BB000984604339B001E5803250D40ED00F8274E
:104BC000AF40BE431E50436F4F000326BE40B34369
:104BD0004367CB0810339B001F5807260E40B600D2
:104BE0000424B440A7431F501F585478B4402600F3
:104BF0003E431E500D4B98420ED00023D356002B3F
:104C000010DB434604339B0019581278AA400A432C
:104C10001A5080BCB846F0BD036E01268E40B343E7
:104C20000366EAE753688B404360EAE7000204400A
:104C300010B50C000DE0800808490B68084A1340C5
:104C400002021343074A13430B60044B1B685B00CB
:104C5000FBD4A3008342EED310BDC0460003014045
:104C6000FF000FC00000F03F30B50C000EE0012245
:104C700090000A490B680A4D2B4092021343094ADF
:104C800013430B60054B1B685B00FBD48300A342FE
:104C900003D20028EBD00200EAE730BD0003014058
:104CA000FF000FC00000F03F014BC3225A62704763
:104CB00000000140034BC0225A62024B5B6A5B0753
:104CC000FBD4704700000140034A938C01210B4341
:104CD0009BB293847047C0460010014010B5040099
:104CE000FFF7E8FF054B186920431861034B1B6869
:104CF0005B00FBD4FFF7D8FF10BDC04600030140A6
:104D0000034B9B6803405A1E9341D8B27047C0467C
:104D10000003014070B504000D00FFF7CBFF154BF9
:104D20001A68120AFF2010401968134A11402943DB
:104D3000124A0A431A600F4B1B685B00FBD4A04267
:104D400014D82100FFF790FF0A4A13680C490B4062
:104D500024021C43094B23431360064B1B685B0072
:104D6000FBD4FFF7A1FFFFF7EFFE70BD2100FFF7B7
:104D70005FFFE9E70003014000FF0FC00000F03FC4
:104D8000FF000FC010B50400FFF794FF074A136837
:104D900007490B40A1680B4361680B431360FFF7A1
:104DA00083FF60782178FFF7B5FF10BD0003014055
:104DB000FFFFF0FF014B18687047C046FC3F002022
:104DC00010B5044B984200D010BD0420FFF786FFB9
:104DD000FAE7C0460000044870B505000C00FFF774
:104DE000EFFF80235B00EB602B68034A1340A403B2
:104DF0001C432C6070BDC046FF3FFFFF03680A0CD8
:104E000093430904090C1943016070470B6843611F
:104E10004B799B06DB0F1B0543600B791B071B0FB0
:104E200043624B791B071B0F03624B79DB06DB0FD9
:104E300083610B791B09C36270470B6843614B792F
:104E4000DB07DB0A43600B791B071B0F43620B79FF
:104E50001B09C3627047000010B543680324A343D5
:104E6000194341604369012A03D0044A1340436156
:104E700010BD8022D2001343F9E7C046FFFBFFFFBD
:104E80004368302293430901194341607047F0B5EC
:104E9000C64600B54C1EE4B206686500EDB22F00B0
:104EA0001037FFB203239846BB409C46330066464A
:104EB000B3439C465378BB40664633431531CFB26B
:104EC0000121B9408B439178B94019431935EDB2AE
:104ED0004646AE40B143D378AB400B43A100C9B2C4
:104EE0000F248C40A34312788A401343036080BC94
:104EF000B846F0BD30B50B291AD889000D4B5B5868
:104F00009F46032500240DE0C0252D010A2409E059
:104F1000C025AD00082405E00C25022402E0C025D0
:104F2000AD010C24A8214358AB43A2401A43425080
:104F300030BDC0462477001010B5A023DB05984291
:104F400000D010BD0220FFF7C9FEFAE770B50500DA
:104F50000C00FFF7F1FF80235B00EB602B68034A36
:104F60001340A4031C432C6070BDC046FF3FFFFFED
:104F7000012303610B6843614B7BDB06DB0F1B05E1
:104F800043600B7B1B071B0F43620B7B1B09C36238
:104F90004B7B1B071B0F03624B6883618B681422DA
:104FA00053408364704703680A0C93430904090C57
:104FB000194301607047000010B543680324A34300
:104FC000194341604369012A03D0044A13404361F5
:104FD00010BD8022D2001343F9E7C046FFFBFFFF5C
:104FE000F0B5C64600B54C1EE4B206686500EDB2E9
:104FF0002F001037FFB203239846BB409C46330076
:105000006646B3439C465378BB40664633431531EE
:10501000CFB20121B9408B439178B940194319357A
:10502000EDB24646AE40B143D378AB400B43A1004E
:10503000C9B20F248C40A34312788A401343036003
:1050400080BCB846F0BD41637047000030B50B2905
:105050001DD889000E4B5B589F460024032510E0A5
:105060000A24C0252D010CE00824C025AD0008E06D
:105070000424302505E002240C2502E00C24C02580
:10508000AD01A8214358AB43A2401A43425030BD62
:10509000547700104B6803658B6843650B68C364E5
:1050A000704710B5436F490003248C40A343436706
:1050B000436F8A401343436710BD000010B5EFF300
:1050C000108272B6044B04245C6318625962986AB9
:1050D00082F3108810BDC0460000034010B5EFF306
:1050E000108272B6044B00245C6318625962986A9D
:1050F00082F3108810BDC0460000034010B5044B79
:10510000984200D010BD8020FFF7E8FDFAE7C046C6
:105110000000015070B504000D00FFF7EFFF0323FE
:10512000E3602B68236070BD03689B0705D10368AB
:105130000A6813430360002070470120FCE710B5A4
:10514000436F103101248C40A3438A401A434267C5
:1051500010BD0000F8B504000E00170000F052F971
:10516000357A002D00D11035002F07D03379002B70
:1051700026D031682A00200000F088F8F379013B3E
:105180005B006D0801352D022B43144A1343E36382
:105190007379013B1B068122520013436363B37989
:1051A000002B13D0626B013B1B0413436363A023EA
:1051B000DB00A36301235B42E36473892364F8BDCE
:1051C00031682A00200000F00BF8D7E7626B737992
:1051D000013B1B0413436363E9E7C046010003007E
:1051E000F0B5DE464F4680B583B083460C0015000F
:1051F000632941D9002A01D101203EE0FFF7DAFD01
:105200006421FFF75BFF814664212000FFF756FF12
:1052100007001C4E012301938023DB0000931C0038
:1052200000E0013C002C12D039006943484660433D
:10523000FFF744FF830A8005800D8022D20093424D
:10524000EFD88642EDD9060001930094E9E7009F6C
:10525000013F80231B023B435A46136153690A4AAC
:105260001340013DAD022B43019E013E3604334302
:105270005A465361002000E0012003B0C0BCBB4689
:10528000B146F0BDFF030000EF8000FCF0B5DE4644
:1052900057464E464546E0B583B0804689461700DE
:1052A0000192FFF787FD06004B465F43B8424ADD97
:1052B0003900FFF713FF0400012506E0013529003E
:1052C00079433000FFF70AFF0400204B9C42F5D8D9
:1052D000019F3900614369433000FFF7EFFE8346C9
:1052E000631C9A463900594369433000FFF7E6FED4
:1052F0004B46181AC317C01858404B465A469B1ABB
:10530000DA179B185340984200DBA2468022D20055
:105310005346D21A8023DB0113434246136153697B
:105320000B4A1340019F013FBF023B43013D2D0447
:105330002B4342465361002003B0F0BCBB46B2464B
:10534000A946A046F0BD0120F6E7C046FE030000D6
:10535000EF8000FC70B504AC24784569094E3540F7
:10536000002A0DD0102211431B0419430C43059B46
:105370001B021C43069B9B021C432C43446170BDD3
:105380000022F0E72C8000FC70B584256D004459A4
:10539000064E344044514459054E34401B020B43E1
:1053A000120613431C43445170BDC046FFFFFFF873
:1053B000C0C0FFF870B586256D004459074E3440D3
:1053C00044514459064E34401B020B43120613430A
:1053D0001C4380235B052343435170BDFFFFFFF84F
:1053E000C0C0FFEF10B5064B984200D010BD08209A
:1053F000FFF774FC0820FFF783FC0028FAD1F5E7DB
:105400000800004810B504009023DB0598420CD03A
:10541000084B984209D00323E360E368DB07FCD51F
:10542000236C0F229343236410BD0348FFF7DAFF78
:10543000F1E7C046000200480800004810B5034BE1
:10544000FF221A600120FFF749FC10BD0005014052
:1054500070B504000D00FFF7F1FF6B6923606A6807
:1054600080231B0213438022A350AA68A023E2508A
:10547000EA680433E2502A69DD33FF33E2502A68D8
:10548000C93BFF3BE25070BDF0B5C64600B5002AEF
:1054900019D1CA06D20E90464905490F1F26E022AF
:1054A000D20094460025082728339B001C586246EA
:1054B0009443B9402143B1434246AA400A431A509B
:1054C00080BCB846F0BDCA02D20E90464901490FD1
:1054D000F8267603E022D204944610251827E3E745
:1054E00070B504000D00496800230022FFF7CCFFCF
:1054F0006968002301222000FFF7C6FFA968012385
:1055000000222000FFF7C0FFA9680123012220002C
:10551000FFF7BAFF2A698023E250EA683833E25085
:105520002A6853075B0F9101890D09040B43F82189
:1055300049006350D300DB0F1B071001800F80066A
:1055400003439000C00F400703435200D20F92075D
:10555000134362581343802212061343635070BDF5
:1055600010B5802283580324A3431943815010BDF2
:1055700010B58A4200D90131C02283580324A343C5
:105580001943815010BDC022835803218B4383509F
:105590007047000030B50025002300E00133012BE7
:1055A00006D8094A9C00A2588242F7D11D00F5E7AF
:1055B0008D4200D90131C0240359033101228A40B0
:1055C0001343035130BDC0468477001010B58423C7
:1055D000C258184C2240C250C458813B9C430A78A0
:1055E00013079B0F2343920701D008221343842201
:1055F00083504A68104B13438022520083508B68BB
:10560000FF3A13430432FF3283500A7803231340D6
:10561000022B06D08422815880235B040B438350E5
:1056200010BD82225200815880235B020B438350BD
:10563000F0E7C046FFFFFFFE0080808070B5137B5F
:105640008826845901258D40AC438B4023438351E8
:105650000D23D356002B17DB012908D0002922D1B6
:10566000B02403591F25AB4303510E0005E0B024BD
:1056700003590E4D2B400351803EB02543590D2454
:105680001457B44023434351C824035955682B434E
:1056900003510834035995682B4303511368803133
:1056A00089000B5070BD0026E7E7C046FFE0FFFF12
:1056B00010B580208000FFF711FB10BD10B504006D
:1056C000FFF7F6FFA268034B5A6062681A6122680E
:1056D0005A6110BD00000240844608006146FFE7A1
:1056E0001FB500F057FA002801D40021C8421FBDA1
:1056F00010B500F0E3F94042013010BD10B500F0E4
:1057000049FA002801DB002010BD012010BDC04671
:1057100010B500F03FFA002801DD002010BD012087
:1057200010BDC04610B500F0EFF9002801DC0020E4
:1057300010BD012010BDC04610B500F0E5F90028ED
:1057400001DA002010BD012010BDC0469E2110B519
:10575000C905041CFFF7F0FF002803D1201C00F04E
:105760004BFD10BD9E21201CC90500F0A5FB00F0DB
:1057700043FD80231B069C466044F2E7F8B547468C
:10578000CE464A0243024500C40F500A80464800F4
:105790005B0A000E9209944680B51E008146020005
:1057A0002D0EDF00C90F8C4224D0281A00280EDDF0
:1057B000002A3ED16246002A00D1FDE0421E0128A7
:1057C00000D137E1FF2800D1A9E0100039E000281E
:1057D00063D04B46521B002D00D0E0E0002F00D1DB
:1057E000CEE0531E012A00D155E1FF2A00D194E0FA
:1057F0001A00D9E02A1A002A00DC99E0002862D0B9
:10580000FF2D00D18BE080236146DB0419438C46D9
:105810001B2A00DCD2E00123DB195A016AD50135CD
:10582000FF2D5BD00122A3491A405B080B401343B4
:105830001CE0FF2D00D172E080236246DB041A4396
:1058400094461B2800DC90E00123FB1A5A0151D535
:105850009B019E09300001F0C9FB330005388340ED
:10586000854200DC75E0944A2D1A13405A0704D093
:105870000F221A40042A00D004335A013CD5681C78
:10588000FE2D2BD09B015E0AC0B2C0053043E40759
:105890002043C0BCB946B046F8BDFE206A1C104289
:1058A00072D1002D00D0AEE0002F00D1ECE06346B5
:1058B0000020002BE9D0FB1A5A0100D4F3E0634624
:1058C0000C00DB1BD2E7614600295BD0511E012A88
:1058D00000D1A7E0FF2A22D00A0099E7FF20002686
:1058E000D3E7FE216A1C114273D0FF2AF6D01500BF
:1058F00067447B085A07BBD1DB08FF2D0FD05B0242
:105900005E0AE8B2C1E76246002A08D08022D203CC
:10591000134204D04046104201D10C004346002BF4
:10592000DCD08026F6031E437602FF20760AACE721
:10593000002AD6D0421B002D5CD0FF28EED0802359
:10594000DB041F431B2A00DC82E001234D46634435
:1059500063E72022401B0130121A19009340C14016
:105960005A1E934100250B4380E7202361461B1AF2
:10597000994062460B00C240591E8B41134364E7B5
:105980000C0043461500B8E76346FE1A730145D480
:10599000002E00D05EE700240020002675E7FF2BD4
:1059A000BBD08023DB041F431B2A47DD0123624653
:1059B0000C004D46D31A49E705009EE761462023B7
:1059C000D1409B1A62469A4013005A1E93410B43E2
:1059D00022E7002D46D1002F62D063460020002B25
:1059E00000D152E73B0063445A0183D5324A013566
:1059F00013407FE7002FC4D0531E012A12D0FF2A84
:105A00008CD01A009EE7002F00D07CE76346002B65
:105A100083D180260024FF20F60336E763460C007E
:105A2000DE1B17E73B00634401255A0100D461E700
:105A30000225F7E663460125FB1A07E720239B1A98
:105A400038009F403B00D0405A1E93410343AEE7CD
:105A500020239B1A39009F403B00D1405A1E93419E
:105A60000B4373E7002F00D158E76246002A00D1AC
:105A700055E78022D203134200D150E7414611423C
:105A800000D04CE743464AE76346002B83D00C0026
:105A900046460020F9E663460C00DB1B0135D5E6DF
:105AA00046460020F1E6002B00D023E70024002624
:105AB000EBE6C046FFFFFF7DFFFFFFFB70B5420036
:105AC00045024E024C00C30F6D0A0120120E760AE9
:105AD000240EC90FFF2A06D0FF2C03D0A24201D109
:105AE000B54206D070BD002DFCD1FF2CFAD1002E9E
:105AF000F8D18B4206D00120002AF3D12800431EA2
:105B00009841EFE70020EDE770B5420045024E02F4
:105B10004C00C30F6D0A120E760A240EC80FFF2A1E
:105B20001BD0FF2C0ED0002A1BD1002C01D1002E3F
:105B30001CD0002D0CD083421CD00221581E0840DE
:105B4000013870BD002E22D1002AF4D1002DF2D1EF
:105B50000028F6D101204042F3E7002D17D1FF2C99
:105B6000F0D0002CE7D1002EE5D1E6E70020002D93
:105B7000E7D0E2E7A24205DCEADBB54202D8E7D390
:105B80000020DEE74342584140000138D9E70220B7
:105B90004042D6E770B5420045024E024C00C30FAA
:105BA0006D0A120E760A240EC80FFF2A0BD0FF2CA6
:105BB0000DD0002A1FD1002C16D1002E14D10020A8
:105BC000002D10D009E0002D0CD1FF2C13D1002E98
:105BD00008D1002A08D0834212D00221581E084062
:105BE000013800E0022070BD002DF4D10028FAD168
:105BF00001204042F7E7002CEDD1002EEBD1ECE77D
:105C0000A24205DCF2DBB54202D8EFD30020EAE77E
:105C10004342584140000138E5E7C04643025B0A71
:105C2000F0B54F4646469946D646C30F45009846BE
:105C3000C0B54B460F1C2D0E00D1CBE0FF2D00D17F
:105C4000CFE08022DB00D2041A43002391460026D5
:105C50009A467F3D7C027B00640A1B0EFF0F002BDF
:105C600000D1A9E0FF2B11D08022E400D20414431C
:105C700042467F3B5B197A400020D2B25D1C0A2E5F
:105C800013DD3A000B2E47D047463FE02B00FF3391
:105C9000002C1ED102221643424601357A40D2B270
:105CA000FF350A2E00DDE4E00220022E1CDC013E5E
:105CB000012E42D802283DD0012866D100200021C3
:105CC000C0050843D2071043E0BCBA46B146A84617
:105CD000F0BD03221643424601357A40D2B2FF3569
:105CE0000A2E00DDE4E003200121B140A626F600E3
:105CF00031420AD19026B600314216D1B93EFF3E5C
:105D00000E421AD0A146824600E0170053463A00E0
:105D1000022B0FD04C4650460328CDD18021C90319
:105D200021434902FF20490ACAE780210022FF20BF
:105D3000C903C5E7FF200021C2E7200C494624041F
:105D4000240C27000E0C0904090C74434F434643EE
:105D50004843390C001909188C4203D980204002AD
:105D6000844666443F0408043F0CC0198401671E42
:105D7000BC41090C800E8919044389010C430901B7
:105D800071D5012361081C400C432B007F33002B8D
:105D900051DD610704D00F212140042900D00434D3
:105DA000210103D5434B1C402B008033FE2BC1DC6B
:105DB000A101490AD8B283E7002C2CD10123424625
:105DC0001E432B007A400120D2B25D1C0A2E00DD5A
:105DD00057E76AE7002B10D10123042600259A46D5
:105DE00038E7002B04D102230826FF259A4631E725
:105DF00003230C26FF259A462CE7484601F0F6F8C7
:105E00004A46431F76259A4000236D42914600265C
:105E10009A462D1A1EE7200001F0E8F84246431F7B
:105E20009C402B1A763B7A400020D2B25D1C0A2E91
:105E300000DD26E739E70121CB1A1B2B00DD3DE70A
:105E40009E352100AC40D940631E9C4121434B0745
:105E500004D00F230B40042B00D004314B0104D598
:105E6000012000212CE71D008FE789010020490A4D
:105E700026E702230F2E0CD180214B46C9030B428B
:105E80000DD00C420BD1214349023A00FF20490AB0
:105E900016E70B2E00D0F7E6A1469A4636E780219A
:105EA0004B46C903194349024246FF20490A07E706
:105EB0000323DFE7FFFFFFF7F0B5C64643025B0AA7
:105EC0004500DA00C40F48024F009446420A1E0003
:105ED000904600B52D0E3F0EC90F8009FF2F59D0F7
:105EE000012251408C4239D0EA1B002A58DD002F94
:105EF00068D0FF2D00D1D1E08023DB0418431B2A9A
:105F000000DCE3E001236246D31A5A0100D4ACE07E
:105F10009B019E09300001F069F833000538834089
:105F2000854200DCC6E0B24A2D1A13405A0704D05D
:105F30000F221A40042A00D004335A0100D497E0FB
:105F40006A1CFE2D00D184E09B015E0AD2B2D0050E
:105F50003043E407204380BCB846F0BDEA1B002A6A
:105F600041DD002F6BD0FF2D00D197E08023DB04B3
:105F700018431B2A00DCCCE0012363445A0174D58A
:105F80000135FF2D65D001229A491A405B080B406C
:105F90001343CBE700281FD08C4222D02A00FF3ABF
:105FA000002A35D07A1B002D00D099E06346002BE3
:105FB00000D1DDE0531E012A00D105E1FF2A6BD09C
:105FC0001A0094E0002873D0511E012A00D1DFE0AE
:105FD000FF2A63D00A0092E701225140A14200D07B
:105FE00082E72A00FF3A002A36D07A1B002D00D122
:105FF000AAE0FF2F00D1DAE080236146DB041943D9
:106000008C461B2A00DCD4E001233D001B18B5E7B9
:10601000FE276A1C174271D1002D00D09EE0634616
:10602000002B00D1D5E00022002800D18FE71B1AF9
:106030005E0100D4D6E063460C00C31A76E7002860
:1060400036D0511E012A00D19AE0FF2A26D00A003C
:106050008FE7FF2200267AE7FE276A1C174262D0EC
:10606000FF2AF6D01500604443085A0700D05FE7C6
:10607000DB08FF2D12D05B025E0AEAB267E76246D8
:10608000002A00D193E0002808D08022D2031342D6
:1060900004D04046104201D10C004346002BD8D01A
:1060A0008026F6031E437602FF22760A4FE7434618
:1060B0001500DEE72022401B0130121A1900934020
:1060C000C1405A1E934100250B432FE720239B1A02
:1060D000010098400300D1405A1E93410B4312E740
:1060E000FF2FD9D080236446DB041C43A4461B2A1F
:1060F00052DD01230C003D00C31A06E763461E1A59
:10610000730139D4002E00D004E7002400220026B9
:106110001DE720239B1A010098400300D1405A1E1E
:1061200093410B4329E7002DA9D16346002B56D09C
:106130000022002800D10AE7030063445A0194D5E5
:106140002B4A0135134090E76346002BAFD0531E16
:10615000012A15D0FF2A2AD01A0052E76246002AE7
:1061600091D1002898D180260024FF22F603EEE684
:106170000C00434615007CE763460C00C61AC9E6CE
:106180000300634401255A0100D46EE70225FAE6B4
:10619000634601251B1AB8E664462023D4409B1AA7
:1061A00062469A4013005A1E93412343A2E7434696
:1061B00074E761462023D1409B1A62469A4013003F
:1061C0005A1E93410B4320E763460C000125C31A76
:1061D0009BE6002899D00C0046460022B7E64646CA
:1061E0000022B4E6002B00D03FE700240026AEE6F4
:1061F000FFFFFFFBFFFFFF7D41024200C30F490A83
:106200000020120E7E2A03DD9D2A02DD094A98181D
:106210007047802000040143952A07DC9620821AEB
:10622000D1404842002BF3D10800F1E7963A914063
:10623000F7E7C046FFFFFF7F70B5002813D0C317F4
:10624000C5185D40C40F280000F0D0FE9E23010059
:106250001B1A962B0FDC082831D008398D406D02AF
:106260006D0AD8B202E0002400200025C0052843B2
:10627000E407204370BD992B0CDD0522121A28007B
:10628000D040020008001B3085402800451EA84170
:1062900002431500052916DC2A000F4802406E074C
:1062A00009D00F263540042D05D00432550102D502
:1062B0009F2302405B1A9201550AD8B2D6E76D02BD
:1062C00096206D0AD2E74A1F95402A0002480240F4
:1062D0006E07F0D0E5E7C046FFFFFFFBF0B54F4685
:1062E0004646D6460400C0B51F000B0310004E0002
:1062F0005B0ACD0F610F7A001943E3003C03FF0FE7
:10630000BC46640A470F2743760D520DC000B946BC
:106310008046B71A654500D19BE0002F00DC84E081
:10632000002A00D1BEE0C84A964200D124E1802272
:106330004C4612041443A146382F00DD67E11F2F9D
:1063400000DDD6E120224C46D21B9440A2464446B2
:10635000FC4020005446044340469040421E904179
:106360004A46FA400443891A1C1BA34292415242F6
:106370008B1A9A4653461B0200D4D4E053465A0265
:10638000530A9A465346002B00D104E1504600F0D0
:106390002DFE0300083B20222000D21A5146D04097
:1063A000994002009C400A43B34200DA02E19B1B81
:1063B000591C1F2900DDA7E02023100026005B1ACE
:1063C0009C409840CE40CA40631E9C413043924658
:1063D00000260443630709D00F232340042B05D074
:1063E000231DA342A4416442A2441C0053461B0245
:1063F00000D49BE0944B01369E4200D1B8E0534656
:106400009249E4080B4019005B07234372054C02D4
:10641000240B520D1205ED0722432A4318001100E8
:10642000E0BCBA46B146A846F0BD002F48D0971B45
:10643000002E00D00EE10C001C4300D1B7E17C1E01
:10644000012F00D126E2804DAF4200D1D5E12700D7
:1064500007E1002F00DCB2E0002A47D07A4A9642DA
:1064600000D189E080224C4612041443A146382F03
:106470006BDC1F2F00DC6EE13A004846203AD0402A
:106480008446202F07D040224846D21B904002006D
:106490004046104380464046421E904162460400FA
:1064A000144357E04A46024300D103E17A1E012F0C
:1064B00000D193E1644CA74200D18AE117003BE789
:1064C000634C721C224200D0E0E00A001A43002E06
:1064D00000D074E1002A00D1D0E14A46024300D046
:1064E000E3E14A07DB081343C90829E04A460243AF
:1064F00000D17DE17A1E012F00D1E0E0524CA7428D
:1065000000D166E11700B2E710001F3BD8402029F8
:1065100003D040235B1A9A401443631E9C4100231E
:1065200000269A460443630700D055E75246E30825
:106530005207134352463700D108434A97421FD0AF
:1065400009037A050C0B520D64E742464C4614438E
:10655000621E9441E4189C429241524292468A44FF
:1065600053461B02DFD5384B01369E4200D0B3E0C4
:106570003200002400234DE74A07DB081343C90813
:106580001A000A4300D100E2802424030C432403B0
:106590002D4A240B3EE7200000F028FD03001833AD
:1065A0001F2B00DCF7E62200083882400024B342AB
:1065B00000DBFCE6F61A254B1A4092460AE7002F4C
:1065C0002BD0971B002E00D1B8E01F4CA24200D167
:1065D0001CE1802424042143382F00DD1EE11F2FFD
:1065E00000DD9EE120260C00F61B1800B340B440ED
:1065F000F8405E1EB341F94004431C4389444444BF
:1066000044459B415B424B449A461600A8E74246EC
:106610004C461443621E9441A6E60D4C721C224265
:1066200000D0A8E00A001A43002E00D00AE1002A98
:1066300000D15EE14A46024300D061E14A07DB082F
:106640001343C9087CE7C046FF070000FFFF7FFF38
:10665000FE070000CF4CA24200D1CEE080242404EB
:106660002143382F5BDC1F2F00DDDCE020250C00F0
:10667000ED1B1E00AB40AC40FE405D1EAB41344301
:10668000F9401C434B465B1A99464CE04A461C1A9B
:10669000881AA34292415242924602005046121A70
:1066A0009246120278D45346234300D06AE6002172
:1066B000002545E74A07DB081343C9083DE71C18D6
:1066C0009C429B4149448A465B429A445346012678
:1066D0001B0200D427E702265246AF4B01211A4085
:1066E0001300214062080A43DC075B089A46144302
:1066F00070E63A004C46203AD440A446202F07D0FA
:1067000040224846D21B904002004046104380463B
:106710004046421E904162460400144324E6194359
:106720000C00631E9C4143461C1BA0459B414946EF
:106730005B42CB1A9A46654616001BE60C001C43CA
:1067400000D1C7E07C1E012F00D1F9E0914EB74285
:106750005CD0270040E720224C464046D21B9440A4
:10676000F840044340469040421E90414A46FA4059
:1067700004438918EEE6874CA24200D1F9E61818C6
:1067800098429B4149445B42CB18DC0740085B08B8
:106790009A4616000443C6E64246D41AA0458041F4
:1067A0004B464042591A0B1A9A466546EAE54B4653
:1067B0004A46C0085B0765460343D108BDE6002A88
:1067C00000D08EE04B46034317D1802100250903FA
:1067D000DAE64A07DB081343C908D1E61C1A4A4621
:1067E000A3429B41891A5B42CB1A9A460126C1E516
:1067F0004A07DB081343C9089FE64346D8084B46BF
:106800004A465B0765460343D108B9E64346D808C4
:106810004B464A465B070343D108B1E619430C00D7
:10682000631E9C41EBE63C000D00203CE540202F20
:1068300003D04024E41BA1400B431C00631E9C4179
:106840002C4370E7002AE1D04A460243C1D04A07F0
:10685000DB0813438022C9081203114208D04846BE
:10686000C408144204D143462100DB084207134305
:106870005A0FDB005207DB08134381E64B46034304
:1068800000D114E74B464A46C0085B076546034300
:10689000D10855E6C41AA04580414B464042591ADA
:1068A0000B1A9A466546012664E51C1A4A46A3421D
:1068B00080418A1A4042121A9246120249D5424633
:1068C000D41AA04580414B464042591A0B1A9A46A9
:1068D00065467FE54B464A46C0085B070343D1083F
:1068E0002BE64A46DB08024338D14A071343C9085E
:1068F00046E64B464A46C0085B070343D1081FE6FD
:106900001C189C429B4149448A465B429A44534628
:106910001B0200D407E652461F4B01261A4092463E
:1069200001E63C000E00203CE640202F03D040242E
:10693000E41BA1400B431C00631E9C4134435EE6F4
:1069400043448342804149448A4640421C00824479
:10695000BCE65346234300D1A9E6E4E54A071343C6
:106960008022C9081203114209D04846C4081442C3
:1069700005D1434665462100DB08420713435A0F01
:10698000DB00DB0852071343FAE50023014A1C0031
:1069900040E5C046FF070000FFFF7FFFF0B545461A
:1069A000DE4657464E46E0B51F000B031B0B9B46C9
:1069B0004D00CB0F04009146984687B06D0D00D175
:1069C000CDE1CE4B9D4200D1E9E15A46430FD200C2
:1069D0001343802212041A43C3009A46C84B9346BD
:1069E0009C4600230026654400933C037B004846F8
:1069F000240B5B0DFF0F002B00D189E1BF4A9342AE
:106A000019D0420FE4002243802424041443BC4ADA
:106A100000219446424663445B190193019B7A40EE
:106A20000133C000D2B202930A2E1CDD3A000B2EB5
:106A30005ED0474656E04946B04B2143EB180193E0
:106A400000292AD18020022200012B00844616430F
:106A5000424663447A40D2B202930A2E00DD31E20C
:106A6000002000240221022E26DC013E012E52D8F5
:106A700002294CD0012900D018E100230024002570
:106A80001B052343D20713432800190007B0F0BCAD
:106A9000BB46B246A946A046F0BD802103220901AB
:106AA0002B008C461643424663447A40D2B202938E
:106AB0000A2E00DD28E203210125B540AC46A626BA
:106AC0006346F600354033420BD19026B600334280
:106AD00018D1B93EFF3E1E421DD0A346824600910A
